{
  "contractName": "prana",
  "abi": [
    {
      "inputs": [],
      "stateMutability": "nonpayable",
      "type": "constructor"
    },
    {
      "anonymous": false,
      "inputs": [
        {
          "indexed": true,
          "internalType": "address",
          "name": "owner",
          "type": "address"
        },
        {
          "indexed": true,
          "internalType": "address",
          "name": "approved",
          "type": "address"
        },
        {
          "indexed": true,
          "internalType": "uint256",
          "name": "tokenId",
          "type": "uint256"
        }
      ],
      "name": "Approval",
      "type": "event"
    },
    {
      "anonymous": false,
      "inputs": [
        {
          "indexed": true,
          "internalType": "address",
          "name": "owner",
          "type": "address"
        },
        {
          "indexed": true,
          "internalType": "address",
          "name": "operator",
          "type": "address"
        },
        {
          "indexed": false,
          "internalType": "bool",
          "name": "approved",
          "type": "bool"
        }
      ],
      "name": "ApprovalForAll",
      "type": "event"
    },
    {
      "anonymous": false,
      "inputs": [
        {
          "indexed": true,
          "internalType": "address",
          "name": "publisher",
          "type": "address"
        },
        {
          "indexed": true,
          "internalType": "uint256",
          "name": "isbn",
          "type": "uint256"
        },
        {
          "indexed": false,
          "internalType": "string",
          "name": "bookCoverAndDetails",
          "type": "string"
        },
        {
          "indexed": true,
          "internalType": "uint256",
          "name": "price",
          "type": "uint256"
        },
        {
          "indexed": false,
          "internalType": "uint256",
          "name": "transactionCut",
          "type": "uint256"
        }
      ],
      "name": "BookPublished",
      "type": "event"
    },
    {
      "anonymous": false,
      "inputs": [
        {
          "indexed": true,
          "internalType": "uint256",
          "name": "rentingPrice",
          "type": "uint256"
        },
        {
          "indexed": true,
          "internalType": "uint256",
          "name": "isbn",
          "type": "uint256"
        },
        {
          "indexed": true,
          "internalType": "uint256",
          "name": "tokenId",
          "type": "uint256"
        }
      ],
      "name": "TokenForRenting",
      "type": "event"
    },
    {
      "anonymous": false,
      "inputs": [
        {
          "indexed": true,
          "internalType": "uint256",
          "name": "resalePrice",
          "type": "uint256"
        },
        {
          "indexed": true,
          "internalType": "uint256",
          "name": "isbn",
          "type": "uint256"
        },
        {
          "indexed": true,
          "internalType": "uint256",
          "name": "tokenId",
          "type": "uint256"
        }
      ],
      "name": "TokenForSale",
      "type": "event"
    },
    {
      "anonymous": false,
      "inputs": [
        {
          "indexed": true,
          "internalType": "uint256",
          "name": "isbn",
          "type": "uint256"
        },
        {
          "indexed": true,
          "internalType": "uint256",
          "name": "tokenId",
          "type": "uint256"
        },
        {
          "indexed": true,
          "internalType": "address",
          "name": "rentee",
          "type": "address"
        }
      ],
      "name": "TokenRented",
      "type": "event"
    },
    {
      "anonymous": false,
      "inputs": [
        {
          "indexed": true,
          "internalType": "address",
          "name": "from",
          "type": "address"
        },
        {
          "indexed": true,
          "internalType": "address",
          "name": "to",
          "type": "address"
        },
        {
          "indexed": true,
          "internalType": "uint256",
          "name": "tokenId",
          "type": "uint256"
        }
      ],
      "name": "Transfer",
      "type": "event"
    },
    {
      "inputs": [
        {
          "internalType": "address",
          "name": "to",
          "type": "address"
        },
        {
          "internalType": "uint256",
          "name": "tokenId",
          "type": "uint256"
        }
      ],
      "name": "approve",
      "outputs": [],
      "stateMutability": "nonpayable",
      "type": "function"
    },
    {
      "inputs": [
        {
          "internalType": "address",
          "name": "owner",
          "type": "address"
        }
      ],
      "name": "balanceOf",
      "outputs": [
        {
          "internalType": "uint256",
          "name": "",
          "type": "uint256"
        }
      ],
      "stateMutability": "view",
      "type": "function",
      "constant": true
    },
    {
      "inputs": [],
      "name": "baseURI",
      "outputs": [
        {
          "internalType": "string",
          "name": "",
          "type": "string"
        }
      ],
      "stateMutability": "view",
      "type": "function",
      "constant": true
    },
    {
      "inputs": [
        {
          "internalType": "uint256",
          "name": "tokenId",
          "type": "uint256"
        }
      ],
      "name": "getApproved",
      "outputs": [
        {
          "internalType": "address",
          "name": "",
          "type": "address"
        }
      ],
      "stateMutability": "view",
      "type": "function",
      "constant": true
    },
    {
      "inputs": [
        {
          "internalType": "address",
          "name": "owner",
          "type": "address"
        },
        {
          "internalType": "address",
          "name": "operator",
          "type": "address"
        }
      ],
      "name": "isApprovedForAll",
      "outputs": [
        {
          "internalType": "bool",
          "name": "",
          "type": "bool"
        }
      ],
      "stateMutability": "view",
      "type": "function",
      "constant": true
    },
    {
      "inputs": [],
      "name": "name",
      "outputs": [
        {
          "internalType": "string",
          "name": "",
          "type": "string"
        }
      ],
      "stateMutability": "view",
      "type": "function",
      "constant": true
    },
    {
      "inputs": [
        {
          "internalType": "uint256",
          "name": "tokenId",
          "type": "uint256"
        }
      ],
      "name": "ownerOf",
      "outputs": [
        {
          "internalType": "address",
          "name": "",
          "type": "address"
        }
      ],
      "stateMutability": "view",
      "type": "function",
      "constant": true
    },
    {
      "inputs": [
        {
          "internalType": "address",
          "name": "from",
          "type": "address"
        },
        {
          "internalType": "address",
          "name": "to",
          "type": "address"
        },
        {
          "internalType": "uint256",
          "name": "tokenId",
          "type": "uint256"
        }
      ],
      "name": "safeTransferFrom",
      "outputs": [],
      "stateMutability": "nonpayable",
      "type": "function"
    },
    {
      "inputs": [
        {
          "internalType": "address",
          "name": "from",
          "type": "address"
        },
        {
          "internalType": "address",
          "name": "to",
          "type": "address"
        },
        {
          "internalType": "uint256",
          "name": "tokenId",
          "type": "uint256"
        },
        {
          "internalType": "bytes",
          "name": "_data",
          "type": "bytes"
        }
      ],
      "name": "safeTransferFrom",
      "outputs": [],
      "stateMutability": "nonpayable",
      "type": "function"
    },
    {
      "inputs": [
        {
          "internalType": "address",
          "name": "operator",
          "type": "address"
        },
        {
          "internalType": "bool",
          "name": "approved",
          "type": "bool"
        }
      ],
      "name": "setApprovalForAll",
      "outputs": [],
      "stateMutability": "nonpayable",
      "type": "function"
    },
    {
      "inputs": [
        {
          "internalType": "bytes4",
          "name": "interfaceId",
          "type": "bytes4"
        }
      ],
      "name": "supportsInterface",
      "outputs": [
        {
          "internalType": "bool",
          "name": "",
          "type": "bool"
        }
      ],
      "stateMutability": "view",
      "type": "function",
      "constant": true
    },
    {
      "inputs": [],
      "name": "symbol",
      "outputs": [
        {
          "internalType": "string",
          "name": "",
          "type": "string"
        }
      ],
      "stateMutability": "view",
      "type": "function",
      "constant": true
    },
    {
      "inputs": [
        {
          "internalType": "uint256",
          "name": "index",
          "type": "uint256"
        }
      ],
      "name": "tokenByIndex",
      "outputs": [
        {
          "internalType": "uint256",
          "name": "",
          "type": "uint256"
        }
      ],
      "stateMutability": "view",
      "type": "function",
      "constant": true
    },
    {
      "inputs": [
        {
          "internalType": "address",
          "name": "owner",
          "type": "address"
        },
        {
          "internalType": "uint256",
          "name": "index",
          "type": "uint256"
        }
      ],
      "name": "tokenOfOwnerByIndex",
      "outputs": [
        {
          "internalType": "uint256",
          "name": "",
          "type": "uint256"
        }
      ],
      "stateMutability": "view",
      "type": "function",
      "constant": true
    },
    {
      "inputs": [
        {
          "internalType": "uint256",
          "name": "tokenId",
          "type": "uint256"
        }
      ],
      "name": "tokenURI",
      "outputs": [
        {
          "internalType": "string",
          "name": "",
          "type": "string"
        }
      ],
      "stateMutability": "view",
      "type": "function",
      "constant": true
    },
    {
      "inputs": [],
      "name": "totalSupply",
      "outputs": [
        {
          "internalType": "uint256",
          "name": "",
          "type": "uint256"
        }
      ],
      "stateMutability": "view",
      "type": "function",
      "constant": true
    },
    {
      "inputs": [
        {
          "internalType": "address",
          "name": "from",
          "type": "address"
        },
        {
          "internalType": "address",
          "name": "to",
          "type": "address"
        },
        {
          "internalType": "uint256",
          "name": "tokenId",
          "type": "uint256"
        }
      ],
      "name": "transferFrom",
      "outputs": [],
      "stateMutability": "nonpayable",
      "type": "function"
    },
    {
      "inputs": [
        {
          "internalType": "address",
          "name": "_pranaHelperAddress",
          "type": "address"
        }
      ],
      "name": "setPranaHelperAddress",
      "outputs": [],
      "stateMutability": "nonpayable",
      "type": "function"
    },
    {
      "inputs": [
        {
          "internalType": "string",
          "name": "_encryptedBookDataHash",
          "type": "string"
        },
        {
          "internalType": "uint256",
          "name": "_isbn",
          "type": "uint256"
        },
        {
          "internalType": "uint256",
          "name": "_price",
          "type": "uint256"
        },
        {
          "internalType": "string",
          "name": "_unencryptedBookDetailsCID",
          "type": "string"
        },
        {
          "internalType": "uint256",
          "name": "_transactionCut",
          "type": "uint256"
        }
      ],
      "name": "publishBook",
      "outputs": [],
      "stateMutability": "nonpayable",
      "type": "function"
    },
    {
      "inputs": [
        {
          "internalType": "uint256",
          "name": "_isbn",
          "type": "uint256"
        }
      ],
      "name": "directPurchase",
      "outputs": [
        {
          "internalType": "bool",
          "name": "",
          "type": "bool"
        }
      ],
      "stateMutability": "payable",
      "type": "function",
      "payable": true
    },
    {
      "inputs": [
        {
          "internalType": "uint256",
          "name": "salePrice",
          "type": "uint256"
        },
        {
          "internalType": "uint256",
          "name": "tokenId",
          "type": "uint256"
        }
      ],
      "name": "putTokenForSale",
      "outputs": [],
      "stateMutability": "nonpayable",
      "type": "function"
    },
    {
      "inputs": [
        {
          "internalType": "uint256",
          "name": "tokenId",
          "type": "uint256"
        },
        {
          "internalType": "address",
          "name": "_tokenRecipient",
          "type": "address"
        }
      ],
      "name": "buyToken",
      "outputs": [],
      "stateMutability": "payable",
      "type": "function",
      "payable": true
    },
    {
      "inputs": [
        {
          "internalType": "uint256",
          "name": "_newPrice",
          "type": "uint256"
        },
        {
          "internalType": "uint256",
          "name": "tokenId",
          "type": "uint256"
        }
      ],
      "name": "putForRent",
      "outputs": [],
      "stateMutability": "nonpayable",
      "type": "function"
    },
    {
      "inputs": [
        {
          "internalType": "uint256",
          "name": "tokenId",
          "type": "uint256"
        }
      ],
      "name": "rentToken",
      "outputs": [],
      "stateMutability": "payable",
      "type": "function",
      "payable": true
    },
    {
      "inputs": [
        {
          "internalType": "uint256",
          "name": "tokenId",
          "type": "uint256"
        }
      ],
      "name": "consumeContent",
      "outputs": [
        {
          "internalType": "string",
          "name": "",
          "type": "string"
        }
      ],
      "stateMutability": "view",
      "type": "function",
      "constant": true
    },
    {
      "inputs": [
        {
          "internalType": "uint256",
          "name": "_tokenId",
          "type": "uint256"
        },
        {
          "internalType": "uint256",
          "name": "_salePrice",
          "type": "uint256"
        },
        {
          "internalType": "address",
          "name": "buyer",
          "type": "address"
        }
      ],
      "name": "putForSaleForSomeoneSpecial",
      "outputs": [],
      "stateMutability": "nonpayable",
      "type": "function"
    },
    {
      "inputs": [
        {
          "internalType": "uint256",
          "name": "_tokenId",
          "type": "uint256"
        },
        {
          "internalType": "address",
          "name": "_tokenRecipient",
          "type": "address"
        }
      ],
      "name": "buyTokenAsTheSpecialBuyer",
      "outputs": [],
      "stateMutability": "payable",
      "type": "function",
      "payable": true
    },
    {
      "inputs": [
        {
          "internalType": "uint256",
          "name": "_tokenId",
          "type": "uint256"
        }
      ],
      "name": "viewTokenDetails",
      "outputs": [
        {
          "internalType": "uint256",
          "name": "",
          "type": "uint256"
        },
        {
          "internalType": "string",
          "name": "",
          "type": "string"
        },
        {
          "internalType": "uint256",
          "name": "",
          "type": "uint256"
        },
        {
          "internalType": "uint256",
          "name": "",
          "type": "uint256"
        },
        {
          "internalType": "bool",
          "name": "",
          "type": "bool"
        }
      ],
      "stateMutability": "view",
      "type": "function",
      "constant": true
    },
    {
      "inputs": [],
      "name": "numberofTokensForResale",
      "outputs": [
        {
          "internalType": "uint256",
          "name": "",
          "type": "uint256"
        }
      ],
      "stateMutability": "view",
      "type": "function",
      "constant": true
    },
    {
      "inputs": [
        {
          "internalType": "uint256",
          "name": "index",
          "type": "uint256"
        }
      ],
      "name": "tokenForResaleAtIndex",
      "outputs": [
        {
          "internalType": "uint256",
          "name": "",
          "type": "uint256"
        }
      ],
      "stateMutability": "view",
      "type": "function",
      "constant": true
    },
    {
      "inputs": [
        {
          "internalType": "uint256",
          "name": "_isbn",
          "type": "uint256"
        }
      ],
      "name": "viewBookDetails",
      "outputs": [
        {
          "internalType": "string",
          "name": "",
          "type": "string"
        },
        {
          "internalType": "string",
          "name": "",
          "type": "string"
        },
        {
          "internalType": "address",
          "name": "",
          "type": "address"
        },
        {
          "internalType": "uint256",
          "name": "",
          "type": "uint256"
        },
        {
          "internalType": "uint256",
          "name": "",
          "type": "uint256"
        },
        {
          "internalType": "uint256",
          "name": "",
          "type": "uint256"
        }
      ],
      "stateMutability": "view",
      "type": "function",
      "constant": true
    },
    {
      "inputs": [
        {
          "internalType": "uint256",
          "name": "_isbn",
          "type": "uint256"
        }
      ],
      "name": "viewMyBookDetails",
      "outputs": [
        {
          "internalType": "string",
          "name": "",
          "type": "string"
        },
        {
          "internalType": "string",
          "name": "",
          "type": "string"
        },
        {
          "internalType": "address",
          "name": "",
          "type": "address"
        },
        {
          "internalType": "uint256",
          "name": "",
          "type": "uint256"
        },
        {
          "internalType": "uint256",
          "name": "",
          "type": "uint256"
        },
        {
          "internalType": "uint256",
          "name": "",
          "type": "uint256"
        }
      ],
      "stateMutability": "view",
      "type": "function",
      "constant": true
    }
  ],
  "bytecode": "0x60806040523480156200001157600080fd5b506040518060400160405280600a81526020017f5072616e61426f6f6b73000000000000000000000000000000000000000000008152506040518060400160405280600381526020017f5042540000000000000000000000000000000000000000000000000000000000815250620000966301ffc9a760e01b6200016160201b60201c565b8160069080519060200190620000ae9291906200026a565b508060079080519060200190620000c79291906200026a565b50620000e06380ac58cd60e01b6200016160201b60201c565b620000f8635b5e139f60e01b6200016160201b60201c565b6200011063780e9d6360e01b6200016160201b60201c565b505033600b60006101000a81548173ffffffffffffffffffffffffffffffffffffffff021916908373ffffffffffffffffffffffffffffffffffffffff1602179055506064600c8190555062000310565b63ffffffff60e01b817bffffffffffffffffffffffffffffffffffffffffffffffffffffffff19161415620001fe576040517f08c379a000000000000000000000000000000000000000000000000000000000815260040180806020018281038252601c8152602001807f4552433136353a20696e76616c696420696e746572666163652069640000000081525060200191505060405180910390fd5b6001600080837bffffffffffffffffffffffffffffffffffffffffffffffffffffffff19167bffffffffffffffffffffffffffffffffffffffffffffffffffffffff1916815260200190815260200160002060006101000a81548160ff02191690831515021790555050565b828054600181600116156101000203166002900490600052602060002090601f016020900481019282601f10620002ad57805160ff1916838001178555620002de565b82800160010185558215620002de579182015b82811115620002dd578251825591602001919060010190620002c0565b5b509050620002ed9190620002f1565b5090565b5b808211156200030c576000816000905550600101620002f2565b5090565b6158cb80620003206000396000f3fe6080604052600436106101e35760003560e01c806370a0823111610102578063b88d4fde11610095578063e985e9c511610064578063e985e9c5146110bd578063eb4880f414611144578063ee88248914611195578063f01a4899146111da576101e3565b8063b88d4fde14610e15578063c87b56dd14610f27578063d1e3069314610fdb578063df2581b814611009576101e3565b8063a22cb465116100d1578063a22cb46514610bd5578063a27091fd14610c32578063a78dbf8814610c5d578063b28dbb4214610d43576101e3565b806370a0823114610a4357806375bc852814610aa85780639134709e14610af757806395d89b4114610b45576101e3565b806342842e0e1161017a5780636352211e116101495780636352211e146108a45780636a5b6431146109095780636c0360eb1461096e5780636e8f0363146109fe576101e3565b806342842e0e1461063a5780634ae010d8146106b55780634f6ccce7146108075780635437c7fa14610856576101e3565b806318160ddd116101b657806318160ddd146103a857806323b872dd146103d35780632f745c591461044e578063343ea626146104bd576101e3565b806301ffc9a7146101e857806306fdde0314610258578063081812fc146102e8578063095ea7b31461034d575b600080fd5b3480156101f457600080fd5b506102406004803603602081101561020b57600080fd5b8101908080357bffffffffffffffffffffffffffffffffffffffffffffffffffffffff1916906020019092919050505061121e565b60405180821515815260200191505060405180910390f35b34801561026457600080fd5b5061026d611285565b6040518080602001828103825283818151815260200191508051906020019080838360005b838110156102ad578082015181840152602081019050610292565b50505050905090810190601f1680156102da5780820380516001836020036101000a031916815260200191505b509250505060405180910390f35b3480156102f457600080fd5b506103216004803603602081101561030b57600080fd5b8101908080359060200190929190505050611327565b604051808273ffffffffffffffffffffffffffffffffffffffff16815260200191505060405180910390f35b34801561035957600080fd5b506103a66004803603604081101561037057600080fd5b81019080803573ffffffffffffffffffffffffffffffffffffffff169060200190929190803590602001909291905050506113c2565b005b3480156103b457600080fd5b506103bd611506565b6040518082815260200191505060405180910390f35b3480156103df57600080fd5b5061044c600480360360608110156103f657600080fd5b81019080803573ffffffffffffffffffffffffffffffffffffffff169060200190929190803573ffffffffffffffffffffffffffffffffffffffff16906020019092919080359060200190929190505050611517565b005b34801561045a57600080fd5b506104a76004803603604081101561047157600080fd5b81019080803573ffffffffffffffffffffffffffffffffffffffff1690602001909291908035906020019092919050505061158d565b6040518082815260200191505060405180910390f35b3480156104c957600080fd5b50610638600480360360a08110156104e057600080fd5b81019080803590602001906401000000008111156104fd57600080fd5b82018360208201111561050f57600080fd5b8035906020019184600183028401116401000000008311171561053157600080fd5b91908080601f016020809104026020016040519081016040528093929190818152602001838380828437600081840152601f19601f8201169050808301925050505050505091929192908035906020019092919080359060200190929190803590602001906401000000008111156105a857600080fd5b8201836020820111156105ba57600080fd5b803590602001918460018302840111640100000000831117156105dc57600080fd5b91908080601f016020809104026020016040519081016040528093929190818152602001838380828437600081840152601f19601f820116905080830192505050505050509192919290803590602001909291905050506115e8565b005b34801561064657600080fd5b506106b36004803603606081101561065d57600080fd5b81019080803573ffffffffffffffffffffffffffffffffffffffff169060200190929190803573ffffffffffffffffffffffffffffffffffffffff169060200190929190803590602001909291905050506118c9565b005b3480156106c157600080fd5b506106ee600480360360208110156106d857600080fd5b81019080803590602001909291905050506118e9565b6040518080602001806020018773ffffffffffffffffffffffffffffffffffffffff168152602001868152602001858152602001848152602001838103835289818151815260200191508051906020019080838360005b83811015610760578082015181840152602081019050610745565b50505050905090810190601f16801561078d5780820380516001836020036101000a031916815260200191505b50838103825288818151815260200191508051906020019080838360005b838110156107c65780820151818401526020810190506107ab565b50505050905090810190601f1680156107f35780820380516001836020036101000a031916815260200191505b509850505050505050505060405180910390f35b34801561081357600080fd5b506108406004803603602081101561082a57600080fd5b8101908080359060200190929190505050611c97565b6040518082815260200191505060405180910390f35b6108a26004803603604081101561086c57600080fd5b8101908080359060200190929190803573ffffffffffffffffffffffffffffffffffffffff169060200190929190505050611cba565b005b3480156108b057600080fd5b506108dd600480360360208110156108c757600080fd5b8101908080359060200190929190505050611e49565b604051808273ffffffffffffffffffffffffffffffffffffffff16815260200191505060405180910390f35b34801561091557600080fd5b5061096c6004803603606081101561092c57600080fd5b810190808035906020019092919080359060200190929190803573ffffffffffffffffffffffffffffffffffffffff169060200190929190505050611e80565b005b34801561097a57600080fd5b50610983612047565b6040518080602001828103825283818151815260200191508051906020019080838360005b838110156109c35780820151818401526020810190506109a8565b50505050905090810190601f1680156109f05780820380516001836020036101000a031916815260200191505b509250505060405180910390f35b348015610a0a57600080fd5b50610a4160048036036040811015610a2157600080fd5b8101908080359060200190929190803590602001909291905050506120e9565b005b348015610a4f57600080fd5b50610a9260048036036020811015610a6657600080fd5b81019080803573ffffffffffffffffffffffffffffffffffffffff1690602001909291905050506123d8565b6040518082815260200191505060405180910390f35b348015610ab457600080fd5b50610ae160048036036020811015610acb57600080fd5b81019080803590602001909291905050506124ad565b6040518082815260200191505060405180910390f35b610b4360048036036040811015610b0d57600080fd5b8101908080359060200190929190803573ffffffffffffffffffffffffffffffffffffffff1690602001909291905050506124ca565b005b348015610b5157600080fd5b50610b5a6125d0565b6040518080602001828103825283818151815260200191508051906020019080838360005b83811015610b9a578082015181840152602081019050610b7f565b50505050905090810190601f168015610bc75780820380516001836020036101000a031916815260200191505b509250505060405180910390f35b348015610be157600080fd5b50610c3060048036036040811015610bf857600080fd5b81019080803573ffffffffffffffffffffffffffffffffffffffff169060200190929190803515159060200190929190505050612672565b005b348015610c3e57600080fd5b50610c47612828565b6040518082815260200191505060405180910390f35b348015610c6957600080fd5b50610c9660048036036020811015610c8057600080fd5b8101908080359060200190929190505050612839565b60405180806020018673ffffffffffffffffffffffffffffffffffffffff168152602001858152602001848152602001838152602001828103825287818151815260200191508051906020019080838360005b83811015610d04578082015181840152602081019050610ce9565b50505050905090810190601f168015610d315780820380516001836020036101000a031916815260200191505b50965050505050505060405180910390f35b348015610d4f57600080fd5b50610d7c60048036036020811015610d6657600080fd5b8101908080359060200190929190505050612a5b565b60405180868152602001806020018581526020018481526020018315158152602001828103825286818151815260200191508051906020019080838360005b83811015610dd6578082015181840152602081019050610dbb565b50505050905090810190601f168015610e035780820380516001836020036101000a031916815260200191505b50965050505050505060405180910390f35b348015610e2157600080fd5b50610f2560048036036080811015610e3857600080fd5b81019080803573ffffffffffffffffffffffffffffffffffffffff169060200190929190803573ffffffffffffffffffffffffffffffffffffffff1690602001909291908035906020019092919080359060200190640100000000811115610e9f57600080fd5b820183602082011115610eb157600080fd5b80359060200191846001830284011164010000000083111715610ed357600080fd5b91908080601f016020809104026020016040519081016040528093929190818152602001838380828437600081840152601f19601f820116905080830192505050505050509192919290505050612c23565b005b348015610f3357600080fd5b50610f6060048036036020811015610f4a57600080fd5b8101908080359060200190929190505050612c9b565b6040518080602001828103825283818151815260200191508051906020019080838360005b83811015610fa0578082015181840152602081019050610f85565b50505050905090810190601f168015610fcd5780820380516001836020036101000a031916815260200191505b509250505060405180910390f35b61100760048036036020811015610ff157600080fd5b8101908080359060200190929190505050612f84565b005b34801561101557600080fd5b506110426004803603602081101561102c57600080fd5b8101908080359060200190929190505050613234565b6040518080602001828103825283818151815260200191508051906020019080838360005b83811015611082578082015181840152602081019050611067565b50505050905090810190601f1680156110af5780820380516001836020036101000a031916815260200191505b509250505060405180910390f35b3480156110c957600080fd5b5061112c600480360360408110156110e057600080fd5b81019080803573ffffffffffffffffffffffffffffffffffffffff169060200190929190803573ffffffffffffffffffffffffffffffffffffffff169060200190929190505050613614565b60405180821515815260200191505060405180910390f35b34801561115057600080fd5b506111936004803603602081101561116757600080fd5b81019080803573ffffffffffffffffffffffffffffffffffffffff1690602001909291905050506136a8565b005b3480156111a157600080fd5b506111d8600480360360408110156111b857600080fd5b810190808035906020019092919080359060200190929190505050613792565b005b611206600480360360208110156111f057600080fd5b8101908080359060200190929190505050613a78565b60405180821515815260200191505060405180910390f35b6000806000837bffffffffffffffffffffffffffffffffffffffffffffffffffffffff19167bffffffffffffffffffffffffffffffffffffffffffffffffffffffff1916815260200190815260200160002060009054906101000a900460ff169050919050565b606060068054600181600116156101000203166002900480601f01602080910402602001604051908101604052809291908181526020018280546001816001161561010002031660029004801561131d5780601f106112f25761010080835404028352916020019161131d565b820191906000526020600020905b81548152906001019060200180831161130057829003601f168201915b5050505050905090565b600061133282613d4e565b611387576040517f08c379a000000000000000000000000000000000000000000000000000000000815260040180806020018281038252602c8152602001806156f6602c913960400191505060405180910390fd5b6004600083815260200190815260200160002060009054906101000a900473ffffffffffffffffffffffffffffffffffffffff169050919050565b60006113cd82611e49565b90508073ffffffffffffffffffffffffffffffffffffffff168373ffffffffffffffffffffffffffffffffffffffff161415611454576040517f08c379a00000000000000000000000000000000000000000000000000000000081526004018080602001828103825260218152602001806157b86021913960400191505060405180910390fd5b8073ffffffffffffffffffffffffffffffffffffffff16611473613d6b565b73ffffffffffffffffffffffffffffffffffffffff1614806114a257506114a18161149c613d6b565b613614565b5b6114f7576040517f08c379a00000000000000000000000000000000000000000000000000000000081526004018080602001828103825260388152602001806155b36038913960400191505060405180910390fd5b6115018383613d73565b505050565b60006115126002613e2c565b905090565b611528611522613d6b565b82613e41565b61157d576040517f08c379a00000000000000000000000000000000000000000000000000000000081526004018080602001828103825260318152602001806158046031913960400191505060405180910390fd5b611588838383613f35565b505050565b60006115e082600160008673ffffffffffffffffffffffffffffffffffffffff1673ffffffffffffffffffffffffffffffffffffffff16815260200190815260200160002061417890919063ffffffff16565b905092915050565b600073ffffffffffffffffffffffffffffffffffffffff166010600086815260200190815260200160002060020160009054906101000a900473ffffffffffffffffffffffffffffffffffffffff1673ffffffffffffffffffffffffffffffffffffffff16146116a3576040517f08c379a000000000000000000000000000000000000000000000000000000000815260040180806020018281038252602581526020018061549e6025913960400191505060405180910390fd5b6000811180156116b35750605081105b611708576040517f08c379a000000000000000000000000000000000000000000000000000000000815260040180806020018281038252602c815260200180615835602c913960400191505060405180910390fd5b8460106000868152602001908152602001600020600001908051906020019061173292919061525d565b50336010600086815260200190815260200160002060020160006101000a81548173ffffffffffffffffffffffffffffffffffffffff021916908373ffffffffffffffffffffffffffffffffffffffff160217905550826010600086815260200190815260200160002060030181905550816010600086815260200190815260200160002060010190805190602001906117cd92919061525d565b508060106000868152602001908152602001600020600401819055506000601060008681526020019081526020016000206005018190555082843373ffffffffffffffffffffffffffffffffffffffff167f464bf690f3d3e19892f2be39fb8ad47b2ed271a55dd628889035458a52e3d97985856040518080602001838152602001828103825284818151815260200191508051906020019080838360005b8381101561188757808201518184015260208101905061186c565b50505050905090810190601f1680156118b45780820380516001836020036101000a031916815260200191505b50935050505060405180910390a45050505050565b6118e483838360405180602001604052806000815250612c23565b505050565b606080600080600080600073ffffffffffffffffffffffffffffffffffffffff166010600089815260200190815260200160002060020160009054906101000a900473ffffffffffffffffffffffffffffffffffffffff1673ffffffffffffffffffffffffffffffffffffffff1614156119cb576040517f08c379a00000000000000000000000000000000000000000000000000000000081526004018080602001828103825260208152602001807f5468697320626f6f6b206973206e6f74206f6e2074686520706c6174666f726d81525060200191505060405180910390fd5b6010600088815260200190815260200160002060020160009054906101000a900473ffffffffffffffffffffffffffffffffffffffff1673ffffffffffffffffffffffffffffffffffffffff163373ffffffffffffffffffffffffffffffffffffffff1614611aa2576040517f08c379a000000000000000000000000000000000000000000000000000000000815260040180806020018281038252601e8152602001807f596f7520617265206e6f74207468697320626f6f6b277320617574686f72000081525060200191505060405180910390fd5b6010600088815260200190815260200160002060000160106000898152602001908152602001600020600101601060008a815260200190815260200160002060020160009054906101000a900473ffffffffffffffffffffffffffffffffffffffff16601060008b815260200190815260200160002060030154601060008c815260200190815260200160002060040154601060008d815260200190815260200160002060050154858054600181600116156101000203166002900480601f016020809104026020016040519081016040528092919081815260200182805460018160011615610100020316600290048015611bdf5780601f10611bb457610100808354040283529160200191611bdf565b820191906000526020600020905b815481529060010190602001808311611bc257829003601f168201915b50505050509550848054600181600116156101000203166002900480601f016020809104026020016040519081016040528092919081815260200182805460018160011615610100020316600290048015611c7b5780601f10611c5057610100808354040283529160200191611c7b565b820191906000526020600020905b815481529060010190602001808311611c5e57829003601f168201915b5050505050945095509550955095509550955091939550919395565b600080611cae83600261419290919063ffffffff16565b50905080915050919050565b6012600083815260200190815260200160002060009054906101000a900473ffffffffffffffffffffffffffffffffffffffff1673ffffffffffffffffffffffffffffffffffffffff168173ffffffffffffffffffffffffffffffffffffffff1614611d71576040517f08c379a00000000000000000000000000000000000000000000000000000000081526004018080602001828103825260288152602001806156ce6028913960400191505060405180910390fd5b60116000838152602001908152602001600020600201543414611ddf576040517f08c379a00000000000000000000000000000000000000000000000000000000081526004018080602001828103825260388152602001806154666038913960400191505060405180910390fd5b611df2611deb83611e49565b82846118c9565b60006012600084815260200190815260200160002060006101000a81548173ffffffffffffffffffffffffffffffffffffffff021916908373ffffffffffffffffffffffffffffffffffffffff1602179055505050565b6000611e79826040518060600160405280602981526020016156426029913960026141be9092919063ffffffff16565b9050919050565b3373ffffffffffffffffffffffffffffffffffffffff16611ea084611e49565b73ffffffffffffffffffffffffffffffffffffffff1614611f29576040517f08c379a000000000000000000000000000000000000000000000000000000000815260040180806020018281038252601c8152602001807f596f752020617265206e6f742074686520746f6b656e206f776e65720000000081525060200191505060405180910390fd5b600015156011600085815260200190815260200160002060030160009054906101000a900460ff16151514611fa9576040517f08c379a000000000000000000000000000000000000000000000000000000000815260040180806020018281038252602b8152602001806157d9602b913960400191505060405180910390fd5b816011600085815260200190815260200160002060020181905550806012600085815260200190815260200160002060006101000a81548173ffffffffffffffffffffffffffffffffffffffff021916908373ffffffffffffffffffffffffffffffffffffffff160217905550612042600d60009054906101000a900473ffffffffffffffffffffffffffffffffffffffff16846113c2565b505050565b606060098054600181600116156101000203166002900480601f0160208091040260200160405190810160405280929190818152602001828054600181600116156101000203166002900480156120df5780601f106120b4576101008083540402835291602001916120df565b820191906000526020600020905b8154815290600101906020018083116120c257829003601f168201915b5050505050905090565b6120f281611e49565b73ffffffffffffffffffffffffffffffffffffffff163373ffffffffffffffffffffffffffffffffffffffff1614612192576040517f08c379a000000000000000000000000000000000000000000000000000000000815260040180806020018281038252601e8152602001807f596f7520617265206e6f74207468697320746f6b656e2773206f776e6572000081525060200191505060405180910390fd5b600015156011600083815260200190815260200160002060030160009054906101000a900460ff16151514612212576040517f08c379a00000000000000000000000000000000000000000000000000000000081526004018080602001828103825260388152602001806154c36038913960400191505060405180910390fd5b600073ffffffffffffffffffffffffffffffffffffffff166011600083815260200190815260200160002060050160019054906101000a900473ffffffffffffffffffffffffffffffffffffffff1673ffffffffffffffffffffffffffffffffffffffff16146122ef57600c5460116000838152602001908152602001600020600601540143116122ee576040517f08c379a000000000000000000000000000000000000000000000000000000000815260040180806020018281038252603e81526020018061577a603e913960400191505060405180910390fd5b5b81601160008381526020019081526020016000206004018190555060016011600083815260200190815260200160002060050160006101000a81548160ff02191690831515021790555060006011600083815260200190815260200160002060050160016101000a81548173ffffffffffffffffffffffffffffffffffffffff021916908373ffffffffffffffffffffffffffffffffffffffff160217905550806011600083815260200190815260200160002060000154837fe90ddca2005d74ee3e3ada587c65dfcab2f807f66782aa2b197f196ebc05217460405160405180910390a45050565b60008073ffffffffffffffffffffffffffffffffffffffff168273ffffffffffffffffffffffffffffffffffffffff16141561245f576040517f08c379a000000000000000000000000000000000000000000000000000000000815260040180806020018281038252602a815260200180615618602a913960400191505060405180910390fd5b6124a6600160008473ffffffffffffffffffffffffffffffffffffffff1673ffffffffffffffffffffffffffffffffffffffff1681526020019081526020016000206141dd565b9050919050565b60006124c382600e61417890919063ffffffff16565b9050919050565b600115156011600084815260200190815260200160002060030160009054906101000a900460ff1615151461254a576040517f08c379a000000000000000000000000000000000000000000000000000000000815260040180806020018281038252603681526020018061534f6036913960400191505060405180910390fd5b60116000838152602001908152602001600020600201543410156125b9576040517f08c379a00000000000000000000000000000000000000000000000000000000081526004018080602001828103825260248152602001806155506024913960400191505060405180910390fd5b6125cc6125c583611e49565b82846118c9565b5050565b606060078054600181600116156101000203166002900480601f0160208091040260200160405190810160405280929190818152602001828054600181600116156101000203166002900480156126685780601f1061263d57610100808354040283529160200191612668565b820191906000526020600020905b81548152906001019060200180831161264b57829003601f168201915b5050505050905090565b61267a613d6b565b73ffffffffffffffffffffffffffffffffffffffff168273ffffffffffffffffffffffffffffffffffffffff16141561271b576040517f08c379a00000000000000000000000000000000000000000000000000000000081526004018080602001828103825260198152602001807f4552433732313a20617070726f766520746f2063616c6c65720000000000000081525060200191505060405180910390fd5b8060056000612728613d6b565b73ffffffffffffffffffffffffffffffffffffffff1673ffffffffffffffffffffffffffffffffffffffff16815260200190815260200160002060008473ffffffffffffffffffffffffffffffffffffffff1673ffffffffffffffffffffffffffffffffffffffff16815260200190815260200160002060006101000a81548160ff0219169083151502179055508173ffffffffffffffffffffffffffffffffffffffff166127d5613d6b565b73ffffffffffffffffffffffffffffffffffffffff167f17307eab39ab6107e8899845ad3d59bd9653f200f220920489ca2b5937696c318360405180821515815260200191505060405180910390a35050565b6000612834600e6141dd565b905090565b6060600080600080600073ffffffffffffffffffffffffffffffffffffffff166010600088815260200190815260200160002060020160009054906101000a900473ffffffffffffffffffffffffffffffffffffffff1673ffffffffffffffffffffffffffffffffffffffff16141561291a576040517f08c379a00000000000000000000000000000000000000000000000000000000081526004018080602001828103825260208152602001807f5468697320626f6f6b206973206e6f74206f6e2074686520706c6174666f726d81525060200191505060405180910390fd5b601060008781526020019081526020016000206001016010600088815260200190815260200160002060020160009054906101000a900473ffffffffffffffffffffffffffffffffffffffff166010600089815260200190815260200160002060030154601060008a815260200190815260200160002060040154601060008b815260200190815260200160002060050154848054600181600116156101000203166002900480601f016020809104026020016040519081016040528092919081815260200182805460018160011615610100020316600290048015612a415780601f10612a1657610100808354040283529160200191612a41565b820191906000526020600020905b815481529060010190602001808311612a2457829003601f168201915b505050505094509450945094509450945091939590929450565b600060606000806000612a6d86613d4e565b612adf576040517f08c379a00000000000000000000000000000000000000000000000000000000081526004018080602001828103825260148152602001807f546f6b656e20646f65736e27742020657869737400000000000000000000000081525060200191505060405180910390fd5b601160008781526020019081526020016000206000015460106000601160008a81526020019081526020016000206000015481526020019081526020016000206001016011600089815260200190815260200160002060010154601160008a815260200190815260200160002060020154601160008b815260200190815260200160002060030160009054906101000a900460ff16838054600181600116156101000203166002900480601f016020809104026020016040519081016040528092919081815260200182805460018160011615610100020316600290048015612c095780601f10612bde57610100808354040283529160200191612c09565b820191906000526020600020905b815481529060010190602001808311612bec57829003601f168201915b505050505093509450945094509450945091939590929450565b612c34612c2e613d6b565b83613e41565b612c89576040517f08c379a00000000000000000000000000000000000000000000000000000000081526004018080602001828103825260318152602001806158046031913960400191505060405180910390fd5b612c95848484846141f2565b50505050565b6060612ca682613d4e565b612cfb576040517f08c379a000000000000000000000000000000000000000000000000000000000815260040180806020018281038252602f81526020018061574b602f913960400191505060405180910390fd5b6060600860008481526020019081526020016000208054600181600116156101000203166002900480601f016020809104026020016040519081016040528092919081815260200182805460018160011615610100020316600290048015612da45780601f10612d7957610100808354040283529160200191612da4565b820191906000526020600020905b815481529060010190602001808311612d8757829003601f168201915b50505050509050600060098054600181600116156101000203166002900490501415612dd35780915050612f7f565b600081511115612eac576009816040516020018083805460018160011615610100020316600290048015612e3e5780601f10612e1c576101008083540402835291820191612e3e565b820191906000526020600020905b815481529060010190602001808311612e2a575b505082805190602001908083835b60208310612e6f5780518252602082019150602081019050602083039250612e4c565b6001836020036101000a03801982511681845116808217855250505050505090500192505050604051602081830303815290604052915050612f7f565b6009612eb784614264565b6040516020018083805460018160011615610100020316600290048015612f155780601f10612ef3576101008083540402835291820191612f15565b820191906000526020600020905b815481529060010190602001808311612f01575b505082805190602001908083835b60208310612f465780518252602082019150602081019050602083039250612f23565b6001836020036101000a038019825116818451168082178552505050505050905001925050506040516020818303038152906040529150505b919050565b600115156011600083815260200190815260200160002060050160009054906101000a900460ff16151514613004576040517f08c379a00000000000000000000000000000000000000000000000000000000081526004018080602001828103825260328152602001806152fb6032913960400191505060405180910390fd5b600073ffffffffffffffffffffffffffffffffffffffff166011600083815260200190815260200160002060050160019054906101000a900473ffffffffffffffffffffffffffffffffffffffff1673ffffffffffffffffffffffffffffffffffffffff16146130bf576040517f08c379a000000000000000000000000000000000000000000000000000000000815260040180806020018281038252602c8152602001806153e1602c913960400191505060405180910390fd5b601160008281526020019081526020016000206004015434101561312e576040517f08c379a000000000000000000000000000000000000000000000000000000000815260040180806020018281038252602d8152602001806155eb602d913960400191505060405180910390fd5b336011600083815260200190815260200160002060050160016101000a81548173ffffffffffffffffffffffffffffffffffffffff021916908373ffffffffffffffffffffffffffffffffffffffff16021790555043601160008381526020019081526020016000206006018190555060006011600083815260200190815260200160002060050160006101000a81548160ff0219169083151502179055506131d6816143ab565b3373ffffffffffffffffffffffffffffffffffffffff168160116000848152602001908152602001600020600001547f5faac23f0b6536f9cabd35fe9faf70af0b2adf251378e0b858966f80bebb024260405160405180910390a450565b60603373ffffffffffffffffffffffffffffffffffffffff1661325683611e49565b73ffffffffffffffffffffffffffffffffffffffff1614806132d957503373ffffffffffffffffffffffffffffffffffffffff166011600084815260200190815260200160002060050160019054906101000a900473ffffffffffffffffffffffffffffffffffffffff1673ffffffffffffffffffffffffffffffffffffffff16145b61332e576040517f08c379a00000000000000000000000000000000000000000000000000000000081526004018080602001828103825260298152602001806155276029913960400191505060405180910390fd5b3373ffffffffffffffffffffffffffffffffffffffff1661334e83611e49565b73ffffffffffffffffffffffffffffffffffffffff16141561344c57600073ffffffffffffffffffffffffffffffffffffffff166011600084815260200190815260200160002060050160019054906101000a900473ffffffffffffffffffffffffffffffffffffffff1673ffffffffffffffffffffffffffffffffffffffff161461344757600c546011600084815260200190815260200160002060060154014311613446576040517f08c379a000000000000000000000000000000000000000000000000000000000815260040180806020018281038252604181526020018061566b6041913960600191505060405180910390fd5b5b613548565b3373ffffffffffffffffffffffffffffffffffffffff166011600084815260200190815260200160002060050160019054906101000a900473ffffffffffffffffffffffffffffffffffffffff1673ffffffffffffffffffffffffffffffffffffffff16141561354757600c54601160008481526020019081526020016000206006015401431115613546576040517f08c379a000000000000000000000000000000000000000000000000000000000815260040180806020018281038252601e8152602001807f596f75722072656e74616c20706572696f64206861732065787069726564000081525060200191505060405180910390fd5b5b5b60106000601160008581526020019081526020016000206000015481526020019081526020016000206000018054600181600116156101000203166002900480601f0160208091040260200160405190810160405280929190818152602001828054600181600116156101000203166002900480156136085780601f106135dd57610100808354040283529160200191613608565b820191906000526020600020905b8154815290600101906020018083116135eb57829003601f168201915b50505050509050919050565b6000600560008473ffffffffffffffffffffffffffffffffffffffff1673ffffffffffffffffffffffffffffffffffffffff16815260200190815260200160002060008373ffffffffffffffffffffffffffffffffffffffff1673ffffffffffffffffffffffffffffffffffffffff16815260200190815260200160002060009054906101000a900460ff16905092915050565b600b60009054906101000a900473ffffffffffffffffffffffffffffffffffffffff1673ffffffffffffffffffffffffffffffffffffffff163373ffffffffffffffffffffffffffffffffffffffff161461374e576040517f08c379a000000000000000000000000000000000000000000000000000000000815260040180806020018281038252603581526020018061540d6035913960400191505060405180910390fd5b80600d60006101000a81548173ffffffffffffffffffffffffffffffffffffffff021916908373ffffffffffffffffffffffffffffffffffffffff16021790555050565b61379b81611e49565b73ffffffffffffffffffffffffffffffffffffffff163373ffffffffffffffffffffffffffffffffffffffff161461383b576040517f08c379a000000000000000000000000000000000000000000000000000000000815260040180806020018281038252601e8152602001807f596f7520617265206e6f74207468697320746f6b656e2773206f776e6572000081525060200191505060405180910390fd5b600015156011600083815260200190815260200160002060050160009054906101000a900460ff161515146138bb576040517f08c379a00000000000000000000000000000000000000000000000000000000081526004018080602001828103825260358152602001806158616035913960400191505060405180910390fd5b6000821015613932576040517f08c379a00000000000000000000000000000000000000000000000000000000081526004018080602001828103825260178152602001807f50726963652063616e2774206265206e6567617469766500000000000000000081525060200191505060405180910390fd5b43600c54601160008481526020019081526020016000206006015401106139a4576040517f08c379a000000000000000000000000000000000000000000000000000000000815260040180806020018281038252602a815260200180615385602a913960400191505060405180910390fd5b81601160008381526020019081526020016000206002018190555060016011600083815260200190815260200160002060030160006101000a81548160ff021916908315150217905550613a1a600d60009054906101000a900473ffffffffffffffffffffffffffffffffffffffff16826113c2565b613a2e81600e61450890919063ffffffff16565b50806011600083815260200190815260200160002060000154837f9c8f609c71aa14f0f8cf09f1c3e8fbbbe92010d555840a9bb980359ee03c896360405160405180910390a45050565b60008073ffffffffffffffffffffffffffffffffffffffff166010600084815260200190815260200160002060020160009054906101000a900473ffffffffffffffffffffffffffffffffffffffff1673ffffffffffffffffffffffffffffffffffffffff161415613b52576040517f08c379a00000000000000000000000000000000000000000000000000000000081526004018080602001828103825260158152602001807f4953424e20646f6573206e6f742065786973742021000000000000000000000081525060200191505060405180910390fd5b6010600083815260200190815260200160002060030154341015613bc1576040517f08c379a000000000000000000000000000000000000000000000000000000000815260040180806020018281038252603f815260200180615574603f913960400191505060405180910390fd5b6000613bcd600a614522565b9050613bd93382614530565b613be3600a61454e565b60106000848152602001908152602001600020600501600081548092919060010191905055508260116000838152602001908152602001600020600001819055506010600084815260200190815260200160002060050154601160008381526020019081526020016000206001018190555060006011600083815260200190815260200160002060050160016101000a81548173ffffffffffffffffffffffffffffffffffffffff021916908373ffffffffffffffffffffffffffffffffffffffff160217905550600060116000838152602001908152602001600020600601819055506010600084815260200190815260200160002060020160009054906101000a900473ffffffffffffffffffffffffffffffffffffffff1673ffffffffffffffffffffffffffffffffffffffff166108fc349081150290604051600060405180830381858888f19350505050158015613d43573d6000803e3d6000fd5b506001915050919050565b6000613d6482600261456490919063ffffffff16565b9050919050565b600033905090565b816004600083815260200190815260200160002060006101000a81548173ffffffffffffffffffffffffffffffffffffffff021916908373ffffffffffffffffffffffffffffffffffffffff160217905550808273ffffffffffffffffffffffffffffffffffffffff16613de683611e49565b73ffffffffffffffffffffffffffffffffffffffff167f8c5be1e5ebec7d5bd14f71427d1e84f3dd0314c0f7b2291e5b200ac8c7c3b92560405160405180910390a45050565b6000613e3a8260000161457e565b9050919050565b6000613e4c82613d4e565b613ea1576040517f08c379a000000000000000000000000000000000000000000000000000000000815260040180806020018281038252602c8152602001806154fb602c913960400191505060405180910390fd5b6000613eac83611e49565b90508073ffffffffffffffffffffffffffffffffffffffff168473ffffffffffffffffffffffffffffffffffffffff161480613f1b57508373ffffffffffffffffffffffffffffffffffffffff16613f0384611327565b73ffffffffffffffffffffffffffffffffffffffff16145b80613f2c5750613f2b8185613614565b5b91505092915050565b8273ffffffffffffffffffffffffffffffffffffffff16613f5582611e49565b73ffffffffffffffffffffffffffffffffffffffff1614613fc1576040517f08c379a00000000000000000000000000000000000000000000000000000000081526004018080602001828103825260298152602001806157226029913960400191505060405180910390fd5b600073ffffffffffffffffffffffffffffffffffffffff168273ffffffffffffffffffffffffffffffffffffffff161415614047576040517f08c379a00000000000000000000000000000000000000000000000000000000081526004018080602001828103825260248152602001806154426024913960400191505060405180910390fd5b61405283838361458f565b61405d600082613d73565b6140ae81600160008673ffffffffffffffffffffffffffffffffffffffff1673ffffffffffffffffffffffffffffffffffffffff16815260200190815260200160002061468a90919063ffffffff16565b5061410081600160008573ffffffffffffffffffffffffffffffffffffffff1673ffffffffffffffffffffffffffffffffffffffff16815260200190815260200160002061450890919063ffffffff16565b50614117818360026146a49092919063ffffffff16565b50808273ffffffffffffffffffffffffffffffffffffffff168473ffffffffffffffffffffffffffffffffffffffff167fddf252ad1be2c89b69c2b068fc378daa952ba7f163c4a11628f55a4df523b3ef60405160405180910390a4505050565b600061418783600001836146d9565b60001c905092915050565b6000806000806141a5866000018661475c565b915091508160001c8160001c9350935050509250929050565b60006141d1846000018460001b846147f5565b60001c90509392505050565b60006141eb826000016148eb565b9050919050565b6141fd848484613f35565b614209848484846148fc565b61425e576040517f08c379a00000000000000000000000000000000000000000000000000000000081526004018080602001828103825260328152602001806153af6032913960400191505060405180910390fd5b50505050565b606060008214156142ac576040518060400160405280600181526020017f300000000000000000000000000000000000000000000000000000000000000081525090506143a6565b600082905060005b600082146142d6578080600101915050600a82816142ce57fe5b0491506142b4565b60608167ffffffffffffffff811180156142ef57600080fd5b506040519080825280601f01601f1916602001820160405280156143225781602001600182028036833780820191505090505b50905060006001830390508593505b6000841461439e57600a848161434357fe5b0660300160f81b8282806001900393508151811061435d57fe5b60200101907effffffffffffffffffffffffffffffffffffffffffffffffffffffffffffff1916908160001a905350600a848161439657fe5b049350614331565b819450505050505b919050565b601060006011600084815260200190815260200160002060000154815260200190815260200160002060020160009054906101000a900473ffffffffffffffffffffffffffffffffffffffff1673ffffffffffffffffffffffffffffffffffffffff166108fc6064348161441b57fe5b04601060006011600087815260200190815260200160002060000154815260200190815260200160002060040154029081150290604051600060405180830381858888f19350505050158015614475573d6000803e3d6000fd5b50600061448182611e49565b90508073ffffffffffffffffffffffffffffffffffffffff166108fc606434816144a757fe5b046010600060116000888152602001908152602001600020600001548152602001908152602001600020600401540234039081150290604051600060405180830381858888f19350505050158015614503573d6000803e3d6000fd5b505050565b600061451a836000018360001b614b15565b905092915050565b600081600001549050919050565b61454a828260405180602001604052806000815250614b85565b5050565b6001816000016000828254019250508190555050565b6000614576836000018360001b614bf6565b905092915050565b600081600001805490509050919050565b600073ffffffffffffffffffffffffffffffffffffffff168373ffffffffffffffffffffffffffffffffffffffff16141580156145f95750600073ffffffffffffffffffffffffffffffffffffffff168273ffffffffffffffffffffffffffffffffffffffff1614155b1561461257600034111561461157614610816143ab565b5b5b60006011600083815260200190815260200160002060030160006101000a81548160ff02191690831515021790555060006011600083815260200190815260200160002060050160006101000a81548160ff02191690831515021790555061468481600e61468a90919063ffffffff16565b50505050565b600061469c836000018360001b614c19565b905092915050565b60006146d0846000018460001b8473ffffffffffffffffffffffffffffffffffffffff1660001b614d01565b90509392505050565b60008183600001805490501161473a576040517f08c379a000000000000000000000000000000000000000000000000000000000815260040180806020018281038252602281526020018061532d6022913960400191505060405180910390fd5b82600001828154811061474957fe5b9060005260206000200154905092915050565b600080828460000180549050116147be576040517f08c379a00000000000000000000000000000000000000000000000000000000081526004018080602001828103825260228152602001806156ac6022913960400191505060405180910390fd5b60008460000184815481106147cf57fe5b906000526020600020906002020190508060000154816001015492509250509250929050565b600080846001016000858152602001908152602001600020549050600081141583906148bc576040517f08c379a00000000000000000000000000000000000000000000000000000000081526004018080602001828103825283818151815260200191508051906020019080838360005b83811015614881578082015181840152602081019050614866565b50505050905090810190601f1680156148ae5780820380516001836020036101000a031916815260200191505b509250505060405180910390fd5b508460000160018203815481106148cf57fe5b9060005260206000209060020201600101549150509392505050565b600081600001805490509050919050565b600061491d8473ffffffffffffffffffffffffffffffffffffffff16614ddd565b61492a5760019050614b0d565b6060614a9463150b7a0260e01b61493f613d6b565b888787604051602401808573ffffffffffffffffffffffffffffffffffffffff1681526020018473ffffffffffffffffffffffffffffffffffffffff16815260200183815260200180602001828103825283818151815260200191508051906020019080838360005b838110156149c35780820151818401526020810190506149a8565b50505050905090810190601f1680156149f05780820380516001836020036101000a031916815260200191505b5095505050505050604051602081830303815290604052907bffffffffffffffffffffffffffffffffffffffffffffffffffffffff19166020820180517bffffffffffffffffffffffffffffffffffffffffffffffffffffffff83818316178352505050506040518060600160405280603281526020016153af603291398773ffffffffffffffffffffffffffffffffffffffff16614e289092919063ffffffff16565b90506000818060200190516020811015614aad57600080fd5b8101908080519060200190929190505050905063150b7a0260e01b7bffffffffffffffffffffffffffffffffffffffffffffffffffffffff1916817bffffffffffffffffffffffffffffffffffffffffffffffffffffffff191614925050505b949350505050565b6000614b218383614e40565b614b7a578260000182908060018154018082558091505060019003906000526020600020016000909190919091505582600001805490508360010160008481526020019081526020016000208190555060019050614b7f565b600090505b92915050565b614b8f8383614e63565b614b9c60008484846148fc565b614bf1576040517f08c379a00000000000000000000000000000000000000000000000000000000081526004018080602001828103825260328152602001806153af6032913960400191505060405180910390fd5b505050565b600080836001016000848152602001908152602001600020541415905092915050565b60008083600101600084815260200190815260200160002054905060008114614cf55760006001820390506000600186600001805490500390506000866000018281548110614c6457fe5b9060005260206000200154905080876000018481548110614c8157fe5b9060005260206000200181905550600183018760010160008381526020019081526020016000208190555086600001805480614cb957fe5b60019003818190600052602060002001600090559055866001016000878152602001908152602001600020600090556001945050505050614cfb565b60009150505b92915050565b6000808460010160008581526020019081526020016000205490506000811415614da857846000016040518060400160405280868152602001858152509080600181540180825580915050600190039060005260206000209060020201600090919091909150600082015181600001556020820151816001015550508460000180549050856001016000868152602001908152602001600020819055506001915050614dd6565b82856000016001830381548110614dbb57fe5b90600052602060002090600202016001018190555060009150505b9392505050565b60008060007fc5d2460186f7233c927e7db2dcc703c0e500b653ca82273b7bfad8045d85a47060001b9050833f9150808214158015614e1f57506000801b8214155b92505050919050565b6060614e378484600085615057565b90509392505050565b600080836001016000848152602001908152602001600020541415905092915050565b600073ffffffffffffffffffffffffffffffffffffffff168273ffffffffffffffffffffffffffffffffffffffff161415614f06576040517f08c379a00000000000000000000000000000000000000000000000000000000081526004018080602001828103825260208152602001807f4552433732313a206d696e7420746f20746865207a65726f206164647265737381525060200191505060405180910390fd5b614f0f81613d4e565b15614f82576040517f08c379a000000000000000000000000000000000000000000000000000000000815260040180806020018281038252601c8152602001807f4552433732313a20746f6b656e20616c7265616479206d696e7465640000000081525060200191505060405180910390fd5b614f8e6000838361458f565b614fdf81600160008573ffffffffffffffffffffffffffffffffffffffff1673ffffffffffffffffffffffffffffffffffffffff16815260200190815260200160002061450890919063ffffffff16565b50614ff6818360026146a49092919063ffffffff16565b50808273ffffffffffffffffffffffffffffffffffffffff16600073ffffffffffffffffffffffffffffffffffffffff167fddf252ad1be2c89b69c2b068fc378daa952ba7f163c4a11628f55a4df523b3ef60405160405180910390a45050565b606061506285614ddd565b6150d4576040517f08c379a000000000000000000000000000000000000000000000000000000000815260040180806020018281038252601d8152602001807f416464726573733a2063616c6c20746f206e6f6e2d636f6e747261637400000081525060200191505060405180910390fd5b600060608673ffffffffffffffffffffffffffffffffffffffff1685876040518082805190602001908083835b602083106151245780518252602082019150602081019050602083039250615101565b6001836020036101000a03801982511681845116808217855250505050505090500191505060006040518083038185875af1925050503d8060008114615186576040519150601f19603f3d011682016040523d82523d6000602084013e61518b565b606091505b509150915081156151a0578092505050615255565b6000815111156151b35780518082602001fd5b836040517f08c379a00000000000000000000000000000000000000000000000000000000081526004018080602001828103825283818151815260200191508051906020019080838360005b8381101561521a5780820151818401526020810190506151ff565b50505050905090810190601f1680156152475780820380516001836020036101000a031916815260200191505b509250505060405180910390fd5b949350505050565b828054600181600116156101000203166002900490600052602060002090601f016020900481019282601f1061529e57805160ff19168380011785556152cc565b828001600101855582156152cc579182015b828111156152cb5782518255916020019190600101906152b0565b5b5090506152d991906152dd565b5090565b5b808211156152f65760008160009055506001016152de565b509056fe5468697320636f7079206861736e2774206265656e2070757420666f722072656e74696e6720627920746865206f776e6572456e756d657261626c655365743a20696e646578206f7574206f6620626f756e64735468697320746f6b656e206861736e2774206265656e2070757420666f722073616c652062792074686520746f6b656e206f776e65725468652063757272656e742072656e74696e6720706572696f64206973206e6f74206f766572207965744552433732313a207472616e7366657220746f206e6f6e20455243373231526563656976657220696d706c656d656e7465725468697320636f707920686173206265656e2072656e74656420627920736f6d656f6e6520616c7265616479596f7520617265206e6f742074686520636f6e7472616374206f776e657220746f2063616c6c20746869732066756e6374696f6e214552433732313a207472616e7366657220746f20746865207a65726f2061646472657373596f757220707269636520646f65736e2774206d61746368206d617463682077686174207468652073656c6c6572206861732061736b65645468697320626f6f6b2068617320616c7265616479206265656e207075626c69736865642143616e277420707574206120636f707920757020666f722072656e74696e67206966206974277320616c7265616479206f6e2073616c65214552433732313a206f70657261746f7220717565727920666f72206e6f6e6578697374656e7420746f6b656e596f7520617265206e6f7420617574686f72697a656420746f2076696577207468697320636f707921596f757220707269636520697320746f6f206c6f7720666f72207468697320746f6b656e496e73756666696369656e742066756e6473202120506c656173652070617920746865207072696365206173207365742062792074686520617574686f722e4552433732313a20617070726f76652063616c6c6572206973206e6f74206f776e6572206e6f7220617070726f76656420666f7220616c6c596f75722070726963652069736e27742073756666696369656e7420746f2072656e74207468697320636f70794552433732313a2062616c616e636520717565727920666f7220746865207a65726f20616464726573734552433732313a206f776e657220717565727920666f72206e6f6e6578697374656e7420746f6b656e5468652072656e74696e6720706572696f64206973206e6f74206f7665722079657420666f7220796f7520746f20636f6e73756d652074686520636f6e74656e74456e756d657261626c654d61703a20696e646578206f7574206f6620626f756e6473596f7520617265206e6f7420617574686f72697a656420746f20627579207468697320746f6b656e4552433732313a20617070726f76656420717565727920666f72206e6f6e6578697374656e7420746f6b656e4552433732313a207472616e73666572206f6620746f6b656e2074686174206973206e6f74206f776e4552433732314d657461646174613a2055524920717565727920666f72206e6f6e6578697374656e7420746f6b656e5468652072656e74696e6720706572696f64206973206e6f74206f7665722079657420746f2070757420697420666f722072656e74696e6720616761696e4552433732313a20617070726f76616c20746f2063757272656e74206f776e657254686520746f6b656e20697320616c72656164792070757420666f722073616c6520696e207075626c69634552433732313a207472616e736665722063616c6c6572206973206e6f74206f776e6572206e6f7220617070726f766564596f7572206375742063616e2774206265206d6f7265207468616e20383025206f662074686520746f74616c43616e277420707574206120746f6b656e20666f722073616c65207768696c6520697427732070757420666f722072656e74696e67a2646970667358221220940b6027df859693a2e6eaacdfc9991d8ac9bb8065b6fcc46198d0331169b1ad64736f6c634300060c0033",
  "source": "// SPDX-License-Identifier: MIT\n\npragma solidity >=0.4.16 <0.8.0;\n\nimport \"../../node_modules/@openzeppelin/contracts/utils/Counters.sol\";\nimport \"../../node_modules/@openzeppelin/contracts/token/ERC721/ERC721.sol\";\n\n\n//prana main contract.\n\n\ncontract prana is ERC721 {\n\n    using Counters for Counters.Counter;\n\n    //to automate tokenId generation\n    Counters.Counter private _tokenIdTracker;\n\n    //AccessControl and Ownable can be added instead of owner if time permits\n    constructor() ERC721(\"PranaBooks\", \"PBT\") public {\n        owner = msg.sender;\n        // edit rentedBlocks to appropriate time/number of blocks before final version\n        // for a two-week rental period, the rentedBlocks would be 100800 blocks.\n        // assuming the block time is 12 seconds on average.\n        rentedBlocks = 100;\n    }\n\n    //address of the contract deployer\n    address owner;\n\n    //rented number of blocks, to count time\n    uint256 rentedBlocks;\n\n    //address of the helper contract\n    address pranaHelperAddress;\n\n    EnumerableSet.UintSet upForResaleTokens;\n\n    //Modifier for onlyOwner functions\n    //this could be figured out with AccessControl if there's enough time\n    modifier onlyOwner {\n       require(msg.sender == owner, 'You are not the contract owner to call this function!');\n       _;\n    }\n\n    // A nonce to ensure unique id for each new token.\n    //deprecated in favor of _tokenIdTracker\n    // uint256 public nonce;  // might need more work\n\n    // struct to store book details. For each new title.\n    // bytes32(encryptedBookDataHash) - the actual content of the book\n    // bytes32(unencryptedBookDetailsCID) - cid to pull book cover and other details to show the world\n    // This is where the linkage of the contract with storage mechanisms happen\n    // address(publisherAddress) -  address of the content creator/publisher\n    // uint256(bookPrice) - price of the book that the creator asks for direct purchase\n    // uint256(transactionCut) - cut of further transactions on copies\n    // that the creator lay claim to. Stored as a percentage.\n    struct BookInfo{\n        string encryptedBookDataHash;\n        string unencryptedBookDetailsCID;\n        address payable publisherAddress;\n        uint256 bookPrice;\n        uint256 transactionCut;\n        uint256 bookSales;\n    }\n\n    // mapping for all books\n    // ISBN is the key, its corresponding details is the value\n    mapping(uint256 => BookInfo) internal booksInfo;\n\n    // struct for token details and transactions\n    // uint256(isbn) binds the token to the book it points to\n    // uint256(copyNumber) to count which copy of the book the token is\n    // so that people can brag about owning the 1st copy, 100th copy etc,\n    // add sell them at a premium\n    // uint256(resalePrice) is the price that tokenOwner asks to sell the token\n    // bool(isUpForResale) is to advertise that the token is for sale\n    // uint(rentingPrice) is the price for renting that the tokenOwner sets\n    // bool (isUpForRenting) is to advertise that the token is for renting\n    // address(rentee) so that the tokenOwner doesn't change and the token comes back after a while\n    struct TokenDetails{\n        uint256 isbn;\n        uint256 copyNumber;\n        // resale aspects\n        uint256 resalePrice;\n        bool isUpForResale;\n        //Renting aspects (gonna be hard to properly figure out renting)\n        uint256 rentingPrice;\n        bool isUpForRenting;\n        address rentee;\n        uint256 rentedAtBlock;\n    }\n\n\n    // tokenId to TokenDetails mapping\n    mapping (uint256 => TokenDetails) internal tokenData;\n\n    // account balances, for everyone involved.\n    // mapping (address => uint256) internal accountBalance;\n\n    // mapping for special buyer for a tokenId\n    mapping (uint256 => address) internal specialBuyer;\n\n\n    //Event to emit when a new book is published with its ISBN and publisher address\n    event BookPublished(address indexed publisher, uint256 indexed isbn,\n    string bookCoverAndDetails, uint256 indexed price, uint256 transactionCut);\n\n    //Event to emit when a tokenOwner puts out a token for sale\n    event TokenForSale(uint256 indexed resalePrice, uint256 indexed isbn, uint256 indexed tokenId);\n\n    //Event to emit when the tokenOwner puts out a token for renting\n    event TokenForRenting(uint256 indexed rentingPrice, uint256 indexed isbn, uint256 indexed tokenId);\n\n    //Event to emit when a token is rented\n    event TokenRented(uint256 indexed isbn, uint256 indexed tokenId, address indexed rentee);\n\n    // function to pass in the adddresses of each of the contract\n    // so that they may refer to each other. Crude version\n    function setPranaHelperAddress(address _pranaHelperAddress) public onlyOwner{\n        pranaHelperAddress = _pranaHelperAddress;\n    }\n\n    // overriding _beforeTokenTransfer()\n    // this ensure good behavior whenever a token transfer happens with money involved.\n    // various actors get their cut before ownership is transfered\n    function _beforeTokenTransfer(address from, address to, uint256 tokenId) internal override {\n        if(from != address(0) && to != address(0)){\n            if(msg.value>0){\n                _updateAccountBalances(tokenId);\n            }\n        }\n        // Resale and Renting flags updated to false at each Token Transfer\n        tokenData[tokenId].isUpForResale = false;\n        tokenData[tokenId].isUpForRenting = false;\n\n        upForResaleTokens.remove(tokenId);\n     }\n\n    // an internal function to update the balances for each monetary transaction\n    // not sure if msg.value works well with internal functions\n    function _updateAccountBalances(uint256 tokenId) internal {\n\n        // transactinCut for the author/publisher gets debited\n        // accountBalance[booksInfo[tokenData[tokenId].isbn].publisherAddress] += booksInfo[tokenData[tokenId].isbn].transactionCut*(msg.value/100);\n        (booksInfo[tokenData[tokenId].isbn].publisherAddress).transfer(booksInfo[tokenData[tokenId].isbn].transactionCut*(msg.value/100));\n\n        //the remaining money goes to the token owner\n        // accountBalance[ownerOf(tokenId)] += msg.value - (booksInfo[tokenData[tokenId].isbn].transactionCut*(msg.value/100));\n        address payable tokenOwner = payable(ownerOf(tokenId));\n        (tokenOwner).transfer(msg.value - (booksInfo[tokenData[tokenId].isbn].transactionCut*(msg.value/100)));\n        //  a better way would be to use call.value()(), but using .transfer for now\n\n    }\n\n    //function to add book details into the chain i.e. publish the book\n    function publishBook(\n        string memory _encryptedBookDataHash, //TOCHECK: bytes32 vs bytes memory\n        uint256 _isbn,\n        uint256 _price,\n        string memory _unencryptedBookDetailsCID,\n        uint256 _transactionCut)\n        public {\n        require(booksInfo[_isbn].publisherAddress==address(0), \"This book has already been published!\");\n        require(_transactionCut > 0 && _transactionCut < 80, \"Your cut can't be more than 80% of the total\");\n        booksInfo[_isbn].encryptedBookDataHash = _encryptedBookDataHash;\n        booksInfo[_isbn].publisherAddress = msg.sender;\n        booksInfo[_isbn].bookPrice = _price;\n        booksInfo[_isbn].unencryptedBookDetailsCID = _unencryptedBookDetailsCID;\n        booksInfo[_isbn].transactionCut = _transactionCut;\n        booksInfo[_isbn].bookSales = 0;\n\n        //event that serves as an advertisement\n        //last argument might be needed to change back to price\n        emit BookPublished(msg.sender, _isbn, _unencryptedBookDetailsCID, _price, _transactionCut);\n\n    }\n\n    //function to purchase books directly from the publisher.\n    //New tokens will be minted here.\n    //Could be assigned to Minter_Role in AccessControl and redirected from the helper contract\n    function directPurchase(uint256 _isbn) public payable returns (bool) {\n        //to revert back if the buyer doesn't have the price set by the author.\n        require(booksInfo[_isbn].publisherAddress != address(0),\"ISBN does not exist !\");\n        require(msg.value >= booksInfo[_isbn].bookPrice,\"Insufficient funds ! Please pay the price as set by the author.\");\n        //a new tokenId is generated, and a new token is minted with that ID.\n        uint256 tokenId = _tokenIdTracker.current();\n        _safeMint(msg.sender, tokenId);\n        _tokenIdTracker.increment();\n        //once a token's succesfully minted, update the various details.\n        booksInfo[_isbn].bookSales++;\n\n        tokenData[tokenId].isbn = _isbn;\n        tokenData[tokenId].copyNumber = booksInfo[_isbn].bookSales;\n        tokenData[tokenId].rentee = address(0);\n        tokenData[tokenId].rentedAtBlock = 0;\n\n        // the money goes to the plubisher's accountBalance.\n        // accountBalance[booksInfo[_isbn].publisherAddress] += msg.value;\n        (booksInfo[_isbn].publisherAddress).transfer(msg.value);\n        return true;\n    }\n\n    // function to put a token for sale\n    // a user can update the resalePrice by just putting it up for sale again (may not be needed)\n    function putTokenForSale(uint256 salePrice, uint256 tokenId) public {\n        require(msg.sender == ownerOf(tokenId), \"You are not this token's owner\");\n        require(tokenData[tokenId].isUpForRenting == false,\n        \"Can't put a token for sale while it's put for renting\");\n        require(salePrice >= 0, \"Price can't be negative\");\n        require(tokenData[tokenId].rentedAtBlock + rentedBlocks < block.number,\n        \"The current renting period is not over yet\");\n        tokenData[tokenId].resalePrice = salePrice;\n        tokenData[tokenId].isUpForResale = true;\n\n        // The helper contract gets approved for token transfer when someone's ready to buy\n        approve(pranaHelperAddress, tokenId);\n        upForResaleTokens.add(tokenId);\n        // event that serves as advertisement for all\n        emit TokenForSale(salePrice, tokenData[tokenId].isbn, tokenId);\n    }\n\n    // To buy a token that's been put for sale.\n    // function will always be called by pranaHelper as the approved address for tokenId\n    function buyToken(uint256 tokenId, address _tokenRecipient) public payable {\n        require(tokenData[tokenId].isUpForResale == true,\n        \"This token hasn't been put for sale by the token owner\");\n\n        require(msg.value >= tokenData[tokenId].resalePrice,\n        \"Your price is too low for this token\");\n\n\n        safeTransferFrom(ownerOf(tokenId), _tokenRecipient, tokenId);\n\n\n\n    }\n\n    // function to put a copy for renting, ownership doesn't change.\n    function putForRent(uint256 _newPrice, uint256 tokenId) public{\n        require(msg.sender == ownerOf(tokenId), \"You are not this token's owner\");\n        require(tokenData[tokenId].isUpForResale == false,\n        \"Can't put a copy up for renting if it's already on sale!\");\n        if(tokenData[tokenId].rentee != address(0)){\n                require(block.number > tokenData[tokenId].rentedAtBlock + rentedBlocks,\n                \"The renting period is not over yet to put it for renting again\");\n            }\n        tokenData[tokenId].rentingPrice = _newPrice;\n        tokenData[tokenId].isUpForRenting = true;\n        tokenData[tokenId].rentee = address(0);//No one's rented it as of now\n        emit TokenForRenting(_newPrice, tokenData[tokenId].isbn, tokenId);\n    }\n\n    //function to actually rent a copy for content consumption\n    function rentToken(uint256 tokenId) public payable {\n        require(tokenData[tokenId].isUpForRenting == true,\n        \"This copy hasn't been put for renting by the owner\");\n        require(tokenData[tokenId].rentee == address(0),\n        \"This copy has been rented by someone already\");\n        require(msg.value >= tokenData[tokenId].rentingPrice,\n        \"Your price isn't sufficient to rent this copy\");\n\n        tokenData[tokenId].rentee = msg.sender;\n        tokenData[tokenId].rentedAtBlock = block.number;\n        tokenData[tokenId].isUpForRenting = false;\n\n        _updateAccountBalances(tokenId);\n\n        emit TokenRented(tokenData[tokenId].isbn, tokenId, msg.sender);\n\n    }\n\n    //function to actually consume the content  you've bought/rented\n    function consumeContent(uint256 tokenId) public view returns(string memory){\n        require(ownerOf(tokenId) == msg.sender || tokenData[tokenId].rentee == msg.sender,\n        \"You are not authorized to view this copy!\");\n        if(ownerOf(tokenId) == msg.sender){\n            if(tokenData[tokenId].rentee != address(0)){\n                require(block.number > tokenData[tokenId].rentedAtBlock + rentedBlocks,\n                \"The renting period is not over yet for you to consume the content\");\n            }\n        }\n        else if(tokenData[tokenId].rentee == msg.sender){\n            require(block.number <= tokenData[tokenId].rentedAtBlock + rentedBlocks,\n            \"Your rental period has expired\");\n        }\n        return booksInfo[tokenData[tokenId].isbn].encryptedBookDataHash;\n    }\n\n    //function to sell to someone specific/special\n    function putForSaleForSomeoneSpecial(uint256 _tokenId, uint256 _salePrice, address buyer) public {\n        require(ownerOf(_tokenId) == msg.sender,\"You  are not the token owner\");\n        require(tokenData[_tokenId].isUpForResale == false,\"The token is already put for sale in public\");\n        tokenData[_tokenId].resalePrice = _salePrice;\n        specialBuyer[_tokenId] = buyer;\n        approve(pranaHelperAddress, _tokenId);\n    }\n\n    //function to buy token on the special channel\n    function buyTokenAsTheSpecialBuyer(uint256 _tokenId, address _tokenRecipient) public payable {\n        require(_tokenRecipient == specialBuyer[_tokenId], \"You are not authorized to buy this token\");\n        require(msg.value == tokenData[_tokenId].resalePrice,\n        \"Your price doesn't match match what the seller has asked\");\n\n        safeTransferFrom(ownerOf(_tokenId), _tokenRecipient, _tokenId);\n        specialBuyer[_tokenId] = address(0);\n    }\n\n    // function to get the balances stored in contract back into the respective owners' account\n    // this is to mainly to reduce the number of transactions and transaction cost associated with it.\n    // WARNING: Extensive testing required before this can be finalized!\n    // function withdrawBalance() public payable{\n    //     require(accountBalance[msg.sender] > 0, \"You don't have any balance to withdraw\");\n    //     (msg.sender).transfer(accountBalance[msg.sender]);\n    //     accountBalance[msg.sender] = 0;\n    // }\n\n    //function to view balance\n    // function viewBalance() public view returns(uint256){\n    //     return accountBalance[msg.sender];\n    // }\n\n    //function to get book details with the tokenId\n    //returns CID of coverpic+bookname\n    function viewTokenDetails(uint256 _tokenId) public view returns (uint256, string memory, uint256, uint256, bool) {\n        require(_exists(_tokenId), \"Token doesn't  exist\");\n        return (tokenData[_tokenId].isbn, booksInfo[tokenData[_tokenId].isbn].unencryptedBookDetailsCID,\n        tokenData[_tokenId].copyNumber, tokenData[_tokenId].resalePrice, tokenData[_tokenId].isUpForResale);\n    }\n\n    function numberofTokensForResale() public view returns(uint256){\n        return upForResaleTokens.length();\n    }\n\n    function tokenForResaleAtIndex(uint256 index) public view returns (uint256) {\n        return upForResaleTokens.at(index);\n    }\n\n    function viewBookDetails(uint256 _isbn) public view returns(string memory, address, uint256, uint256, uint256) {\n        require(booksInfo[_isbn].publisherAddress!=address(0), \"This book is not on the platform\");\n        return (booksInfo[_isbn].unencryptedBookDetailsCID, booksInfo[_isbn].publisherAddress,\n        booksInfo[_isbn].bookPrice, booksInfo[_isbn].transactionCut, booksInfo[_isbn].bookSales);\n\n    }\n\n    function viewMyBookDetails(uint256 _isbn) public view returns(string memory, string memory, address, uint256, uint256, uint256) {\n        require(booksInfo[_isbn].publisherAddress!=address(0), \"This book is not on the platform\");\n        require(msg.sender == booksInfo[_isbn].publisherAddress, \"You are not this book's author\");\n        return (booksInfo[_isbn].encryptedBookDataHash, booksInfo[_isbn].unencryptedBookDetailsCID, booksInfo[_isbn].publisherAddress,\n        booksInfo[_isbn].bookPrice, booksInfo[_isbn].transactionCut, booksInfo[_isbn].bookSales);\n    }\n}\n",
  "sourcePath": "/home/richuak/Blockchain/prana/contract/contracts/prana.sol",
  "compiler": {
    "name": "solc",
    "version": "0.6.12+commit.27d51765.Emscripten.clang"
  },
  "schemaVersion": "3.0.23",
  "updatedAt": "2020-08-06T20:46:40.059Z",
  "networkType": "ethereum",
  "devdoc": {
    "kind": "dev",
    "methods": {
      "approve(address,uint256)": {
        "details": "See {IERC721-approve}."
      },
      "balanceOf(address)": {
        "details": "See {IERC721-balanceOf}."
      },
      "baseURI()": {
        "details": "Returns the base URI set via {_setBaseURI}. This will be automatically added as a prefix in {tokenURI} to each token's URI, or to the token ID if no specific URI is set for that token ID."
      },
      "getApproved(uint256)": {
        "details": "See {IERC721-getApproved}."
      },
      "isApprovedForAll(address,address)": {
        "details": "See {IERC721-isApprovedForAll}."
      },
      "name()": {
        "details": "See {IERC721Metadata-name}."
      },
      "ownerOf(uint256)": {
        "details": "See {IERC721-ownerOf}."
      },
      "safeTransferFrom(address,address,uint256)": {
        "details": "See {IERC721-safeTransferFrom}."
      },
      "safeTransferFrom(address,address,uint256,bytes)": {
        "details": "See {IERC721-safeTransferFrom}."
      },
      "setApprovalForAll(address,bool)": {
        "details": "See {IERC721-setApprovalForAll}."
      },
      "supportsInterface(bytes4)": {
        "details": "See {IERC165-supportsInterface}. Time complexity O(1), guaranteed to always use less than 30 000 gas."
      },
      "symbol()": {
        "details": "See {IERC721Metadata-symbol}."
      },
      "tokenByIndex(uint256)": {
        "details": "See {IERC721Enumerable-tokenByIndex}."
      },
      "tokenOfOwnerByIndex(address,uint256)": {
        "details": "See {IERC721Enumerable-tokenOfOwnerByIndex}."
      },
      "tokenURI(uint256)": {
        "details": "See {IERC721Metadata-tokenURI}."
      },
      "totalSupply()": {
        "details": "See {IERC721Enumerable-totalSupply}."
      },
      "transferFrom(address,address,uint256)": {
        "details": "See {IERC721-transferFrom}."
      }
    },
    "version": 1
  },
  "userdoc": {
    "kind": "user",
    "methods": {},
    "version": 1
  }
}