{
  "contractName": "prana",
  "abi": [
    {
      "inputs": [],
      "stateMutability": "nonpayable",
      "type": "constructor"
    },
    {
      "anonymous": false,
      "inputs": [
        {
          "indexed": true,
          "internalType": "address",
          "name": "owner",
          "type": "address"
        },
        {
          "indexed": true,
          "internalType": "address",
          "name": "approved",
          "type": "address"
        },
        {
          "indexed": true,
          "internalType": "uint256",
          "name": "tokenId",
          "type": "uint256"
        }
      ],
      "name": "Approval",
      "type": "event"
    },
    {
      "anonymous": false,
      "inputs": [
        {
          "indexed": true,
          "internalType": "address",
          "name": "owner",
          "type": "address"
        },
        {
          "indexed": true,
          "internalType": "address",
          "name": "operator",
          "type": "address"
        },
        {
          "indexed": false,
          "internalType": "bool",
          "name": "approved",
          "type": "bool"
        }
      ],
      "name": "ApprovalForAll",
      "type": "event"
    },
    {
      "anonymous": false,
      "inputs": [
        {
          "indexed": true,
          "internalType": "address",
          "name": "publisher",
          "type": "address"
        },
        {
          "indexed": true,
          "internalType": "uint256",
          "name": "isbn",
          "type": "uint256"
        },
        {
          "indexed": false,
          "internalType": "string",
          "name": "bookCoverAndDetails",
          "type": "string"
        },
        {
          "indexed": true,
          "internalType": "uint256",
          "name": "price",
          "type": "uint256"
        },
        {
          "indexed": false,
          "internalType": "uint256",
          "name": "transactionCut",
          "type": "uint256"
        }
      ],
      "name": "BookPublished",
      "type": "event"
    },
    {
      "anonymous": false,
      "inputs": [
        {
          "indexed": true,
          "internalType": "uint256",
          "name": "rentingPrice",
          "type": "uint256"
        },
        {
          "indexed": true,
          "internalType": "uint256",
          "name": "isbn",
          "type": "uint256"
        },
        {
          "indexed": true,
          "internalType": "uint256",
          "name": "tokenId",
          "type": "uint256"
        }
      ],
      "name": "TokenForRenting",
      "type": "event"
    },
    {
      "anonymous": false,
      "inputs": [
        {
          "indexed": true,
          "internalType": "uint256",
          "name": "resalePrice",
          "type": "uint256"
        },
        {
          "indexed": true,
          "internalType": "uint256",
          "name": "isbn",
          "type": "uint256"
        },
        {
          "indexed": true,
          "internalType": "uint256",
          "name": "tokenId",
          "type": "uint256"
        }
      ],
      "name": "TokenForSale",
      "type": "event"
    },
    {
      "anonymous": false,
      "inputs": [
        {
          "indexed": true,
          "internalType": "uint256",
          "name": "isbn",
          "type": "uint256"
        },
        {
          "indexed": true,
          "internalType": "uint256",
          "name": "tokenId",
          "type": "uint256"
        },
        {
          "indexed": true,
          "internalType": "address",
          "name": "rentee",
          "type": "address"
        }
      ],
      "name": "TokenRented",
      "type": "event"
    },
    {
      "anonymous": false,
      "inputs": [
        {
          "indexed": true,
          "internalType": "address",
          "name": "from",
          "type": "address"
        },
        {
          "indexed": true,
          "internalType": "address",
          "name": "to",
          "type": "address"
        },
        {
          "indexed": true,
          "internalType": "uint256",
          "name": "tokenId",
          "type": "uint256"
        }
      ],
      "name": "Transfer",
      "type": "event"
    },
    {
      "inputs": [
        {
          "internalType": "address",
          "name": "to",
          "type": "address"
        },
        {
          "internalType": "uint256",
          "name": "tokenId",
          "type": "uint256"
        }
      ],
      "name": "approve",
      "outputs": [],
      "stateMutability": "nonpayable",
      "type": "function"
    },
    {
      "inputs": [
        {
          "internalType": "address",
          "name": "owner",
          "type": "address"
        }
      ],
      "name": "balanceOf",
      "outputs": [
        {
          "internalType": "uint256",
          "name": "",
          "type": "uint256"
        }
      ],
      "stateMutability": "view",
      "type": "function",
      "constant": true
    },
    {
      "inputs": [],
      "name": "baseURI",
      "outputs": [
        {
          "internalType": "string",
          "name": "",
          "type": "string"
        }
      ],
      "stateMutability": "view",
      "type": "function",
      "constant": true
    },
    {
      "inputs": [
        {
          "internalType": "uint256",
          "name": "tokenId",
          "type": "uint256"
        }
      ],
      "name": "getApproved",
      "outputs": [
        {
          "internalType": "address",
          "name": "",
          "type": "address"
        }
      ],
      "stateMutability": "view",
      "type": "function",
      "constant": true
    },
    {
      "inputs": [
        {
          "internalType": "address",
          "name": "owner",
          "type": "address"
        },
        {
          "internalType": "address",
          "name": "operator",
          "type": "address"
        }
      ],
      "name": "isApprovedForAll",
      "outputs": [
        {
          "internalType": "bool",
          "name": "",
          "type": "bool"
        }
      ],
      "stateMutability": "view",
      "type": "function",
      "constant": true
    },
    {
      "inputs": [],
      "name": "name",
      "outputs": [
        {
          "internalType": "string",
          "name": "",
          "type": "string"
        }
      ],
      "stateMutability": "view",
      "type": "function",
      "constant": true
    },
    {
      "inputs": [
        {
          "internalType": "uint256",
          "name": "tokenId",
          "type": "uint256"
        }
      ],
      "name": "ownerOf",
      "outputs": [
        {
          "internalType": "address",
          "name": "",
          "type": "address"
        }
      ],
      "stateMutability": "view",
      "type": "function",
      "constant": true
    },
    {
      "inputs": [
        {
          "internalType": "address",
          "name": "from",
          "type": "address"
        },
        {
          "internalType": "address",
          "name": "to",
          "type": "address"
        },
        {
          "internalType": "uint256",
          "name": "tokenId",
          "type": "uint256"
        }
      ],
      "name": "safeTransferFrom",
      "outputs": [],
      "stateMutability": "nonpayable",
      "type": "function"
    },
    {
      "inputs": [
        {
          "internalType": "address",
          "name": "from",
          "type": "address"
        },
        {
          "internalType": "address",
          "name": "to",
          "type": "address"
        },
        {
          "internalType": "uint256",
          "name": "tokenId",
          "type": "uint256"
        },
        {
          "internalType": "bytes",
          "name": "_data",
          "type": "bytes"
        }
      ],
      "name": "safeTransferFrom",
      "outputs": [],
      "stateMutability": "nonpayable",
      "type": "function"
    },
    {
      "inputs": [
        {
          "internalType": "address",
          "name": "operator",
          "type": "address"
        },
        {
          "internalType": "bool",
          "name": "approved",
          "type": "bool"
        }
      ],
      "name": "setApprovalForAll",
      "outputs": [],
      "stateMutability": "nonpayable",
      "type": "function"
    },
    {
      "inputs": [
        {
          "internalType": "bytes4",
          "name": "interfaceId",
          "type": "bytes4"
        }
      ],
      "name": "supportsInterface",
      "outputs": [
        {
          "internalType": "bool",
          "name": "",
          "type": "bool"
        }
      ],
      "stateMutability": "view",
      "type": "function",
      "constant": true
    },
    {
      "inputs": [],
      "name": "symbol",
      "outputs": [
        {
          "internalType": "string",
          "name": "",
          "type": "string"
        }
      ],
      "stateMutability": "view",
      "type": "function",
      "constant": true
    },
    {
      "inputs": [
        {
          "internalType": "uint256",
          "name": "index",
          "type": "uint256"
        }
      ],
      "name": "tokenByIndex",
      "outputs": [
        {
          "internalType": "uint256",
          "name": "",
          "type": "uint256"
        }
      ],
      "stateMutability": "view",
      "type": "function",
      "constant": true
    },
    {
      "inputs": [
        {
          "internalType": "address",
          "name": "owner",
          "type": "address"
        },
        {
          "internalType": "uint256",
          "name": "index",
          "type": "uint256"
        }
      ],
      "name": "tokenOfOwnerByIndex",
      "outputs": [
        {
          "internalType": "uint256",
          "name": "",
          "type": "uint256"
        }
      ],
      "stateMutability": "view",
      "type": "function",
      "constant": true
    },
    {
      "inputs": [
        {
          "internalType": "uint256",
          "name": "tokenId",
          "type": "uint256"
        }
      ],
      "name": "tokenURI",
      "outputs": [
        {
          "internalType": "string",
          "name": "",
          "type": "string"
        }
      ],
      "stateMutability": "view",
      "type": "function",
      "constant": true
    },
    {
      "inputs": [],
      "name": "totalSupply",
      "outputs": [
        {
          "internalType": "uint256",
          "name": "",
          "type": "uint256"
        }
      ],
      "stateMutability": "view",
      "type": "function",
      "constant": true
    },
    {
      "inputs": [
        {
          "internalType": "address",
          "name": "from",
          "type": "address"
        },
        {
          "internalType": "address",
          "name": "to",
          "type": "address"
        },
        {
          "internalType": "uint256",
          "name": "tokenId",
          "type": "uint256"
        }
      ],
      "name": "transferFrom",
      "outputs": [],
      "stateMutability": "nonpayable",
      "type": "function"
    },
    {
      "inputs": [
        {
          "internalType": "address",
          "name": "_pranaHelperAddress",
          "type": "address"
        }
      ],
      "name": "setPranaHelperAddress",
      "outputs": [],
      "stateMutability": "nonpayable",
      "type": "function"
    },
    {
      "inputs": [
        {
          "internalType": "string",
          "name": "_encryptedBookDataHash",
          "type": "string"
        },
        {
          "internalType": "uint256",
          "name": "_isbn",
          "type": "uint256"
        },
        {
          "internalType": "uint256",
          "name": "_price",
          "type": "uint256"
        },
        {
          "internalType": "string",
          "name": "_unencryptedBookDetailsCID",
          "type": "string"
        },
        {
          "internalType": "uint256",
          "name": "_transactionCut",
          "type": "uint256"
        }
      ],
      "name": "publishBook",
      "outputs": [],
      "stateMutability": "nonpayable",
      "type": "function"
    },
    {
      "inputs": [
        {
          "internalType": "uint256",
          "name": "_isbn",
          "type": "uint256"
        }
      ],
      "name": "directPurchase",
      "outputs": [
        {
          "internalType": "bool",
          "name": "",
          "type": "bool"
        }
      ],
      "stateMutability": "payable",
      "type": "function",
      "payable": true
    },
    {
      "inputs": [
        {
          "internalType": "uint256",
          "name": "salePrice",
          "type": "uint256"
        },
        {
          "internalType": "uint256",
          "name": "tokenId",
          "type": "uint256"
        }
      ],
      "name": "putTokenForSale",
      "outputs": [],
      "stateMutability": "nonpayable",
      "type": "function"
    },
    {
      "inputs": [
        {
          "internalType": "uint256",
          "name": "tokenId",
          "type": "uint256"
        },
        {
          "internalType": "address",
          "name": "_tokenRecipient",
          "type": "address"
        }
      ],
      "name": "buyToken",
      "outputs": [],
      "stateMutability": "payable",
      "type": "function",
      "payable": true
    },
    {
      "inputs": [
        {
          "internalType": "uint256",
          "name": "_newPrice",
          "type": "uint256"
        },
        {
          "internalType": "uint256",
          "name": "tokenId",
          "type": "uint256"
        }
      ],
      "name": "putForRent",
      "outputs": [],
      "stateMutability": "nonpayable",
      "type": "function"
    },
    {
      "inputs": [
        {
          "internalType": "uint256",
          "name": "tokenId",
          "type": "uint256"
        }
      ],
      "name": "rentToken",
      "outputs": [],
      "stateMutability": "payable",
      "type": "function",
      "payable": true
    },
    {
      "inputs": [
        {
          "internalType": "uint256",
          "name": "tokenId",
          "type": "uint256"
        },
        {
          "internalType": "string",
          "name": "_uniqueCIDfortoken",
          "type": "string"
        }
      ],
      "name": "setTokenURI",
      "outputs": [],
      "stateMutability": "nonpayable",
      "type": "function"
    },
    {
      "inputs": [
        {
          "internalType": "uint256",
          "name": "tokenId",
          "type": "uint256"
        }
      ],
      "name": "consumeContent",
      "outputs": [
        {
          "internalType": "string",
          "name": "",
          "type": "string"
        }
      ],
      "stateMutability": "view",
      "type": "function",
      "constant": true
    },
    {
      "inputs": [
        {
          "internalType": "uint256",
          "name": "_tokenId",
          "type": "uint256"
        }
      ],
      "name": "viewTokenDetails",
      "outputs": [
        {
          "internalType": "uint256",
          "name": "",
          "type": "uint256"
        },
        {
          "internalType": "string",
          "name": "",
          "type": "string"
        },
        {
          "internalType": "uint256",
          "name": "",
          "type": "uint256"
        },
        {
          "internalType": "uint256",
          "name": "",
          "type": "uint256"
        },
        {
          "internalType": "bool",
          "name": "",
          "type": "bool"
        }
      ],
      "stateMutability": "view",
      "type": "function",
      "constant": true
    },
    {
      "inputs": [
        {
          "internalType": "uint256",
          "name": "_tokenId",
          "type": "uint256"
        }
      ],
      "name": "viewRentingTokenDetails",
      "outputs": [
        {
          "internalType": "uint256",
          "name": "",
          "type": "uint256"
        },
        {
          "internalType": "string",
          "name": "",
          "type": "string"
        },
        {
          "internalType": "uint256",
          "name": "",
          "type": "uint256"
        },
        {
          "internalType": "uint256",
          "name": "",
          "type": "uint256"
        },
        {
          "internalType": "uint256",
          "name": "",
          "type": "uint256"
        },
        {
          "internalType": "bool",
          "name": "",
          "type": "bool"
        }
      ],
      "stateMutability": "view",
      "type": "function",
      "constant": true
    },
    {
      "inputs": [],
      "name": "numberofTokensForResale",
      "outputs": [
        {
          "internalType": "uint256",
          "name": "",
          "type": "uint256"
        }
      ],
      "stateMutability": "view",
      "type": "function",
      "constant": true
    },
    {
      "inputs": [
        {
          "internalType": "uint256",
          "name": "index",
          "type": "uint256"
        }
      ],
      "name": "tokenForResaleAtIndex",
      "outputs": [
        {
          "internalType": "uint256",
          "name": "",
          "type": "uint256"
        }
      ],
      "stateMutability": "view",
      "type": "function",
      "constant": true
    },
    {
      "inputs": [],
      "name": "numberofTokensForRenting",
      "outputs": [
        {
          "internalType": "uint256",
          "name": "",
          "type": "uint256"
        }
      ],
      "stateMutability": "view",
      "type": "function",
      "constant": true
    },
    {
      "inputs": [
        {
          "internalType": "uint256",
          "name": "index",
          "type": "uint256"
        }
      ],
      "name": "tokenForRentingAtIndex",
      "outputs": [
        {
          "internalType": "uint256",
          "name": "",
          "type": "uint256"
        }
      ],
      "stateMutability": "view",
      "type": "function",
      "constant": true
    },
    {
      "inputs": [
        {
          "internalType": "address",
          "name": "_rentee",
          "type": "address"
        }
      ],
      "name": "numberOfRentedTokens",
      "outputs": [
        {
          "internalType": "uint256",
          "name": "",
          "type": "uint256"
        }
      ],
      "stateMutability": "view",
      "type": "function",
      "constant": true
    },
    {
      "inputs": [
        {
          "internalType": "address",
          "name": "_rentee",
          "type": "address"
        },
        {
          "internalType": "uint256",
          "name": "index",
          "type": "uint256"
        }
      ],
      "name": "tokenOfRenteeByIndex",
      "outputs": [
        {
          "internalType": "uint256",
          "name": "",
          "type": "uint256"
        }
      ],
      "stateMutability": "view",
      "type": "function",
      "constant": true
    },
    {
      "inputs": [
        {
          "internalType": "uint256",
          "name": "_isbn",
          "type": "uint256"
        }
      ],
      "name": "viewBookDetails",
      "outputs": [
        {
          "internalType": "string",
          "name": "",
          "type": "string"
        },
        {
          "internalType": "address",
          "name": "",
          "type": "address"
        },
        {
          "internalType": "uint256",
          "name": "",
          "type": "uint256"
        },
        {
          "internalType": "uint256",
          "name": "",
          "type": "uint256"
        },
        {
          "internalType": "uint256",
          "name": "",
          "type": "uint256"
        }
      ],
      "stateMutability": "view",
      "type": "function",
      "constant": true
    },
    {
      "inputs": [
        {
          "internalType": "uint256",
          "name": "_isbn",
          "type": "uint256"
        }
      ],
      "name": "viewMyBookDetails",
      "outputs": [
        {
          "internalType": "string",
          "name": "",
          "type": "string"
        },
        {
          "internalType": "string",
          "name": "",
          "type": "string"
        },
        {
          "internalType": "address",
          "name": "",
          "type": "address"
        },
        {
          "internalType": "uint256",
          "name": "",
          "type": "uint256"
        },
        {
          "internalType": "uint256",
          "name": "",
          "type": "uint256"
        },
        {
          "internalType": "uint256",
          "name": "",
          "type": "uint256"
        }
      ],
      "stateMutability": "view",
      "type": "function",
      "constant": true
    }
  ],
  "bytecode": "0x60806040523480156200001157600080fd5b506040518060400160405280600a81526020017f5072616e61426f6f6b73000000000000000000000000000000000000000000008152506040518060400160405280600381526020017f5042540000000000000000000000000000000000000000000000000000000000815250620000966301ffc9a760e01b6200016160201b60201c565b8160069080519060200190620000ae9291906200026a565b508060079080519060200190620000c79291906200026a565b50620000e06380ac58cd60e01b6200016160201b60201c565b620000f8635b5e139f60e01b6200016160201b60201c565b6200011063780e9d6360e01b6200016160201b60201c565b505033600b60006101000a81548173ffffffffffffffffffffffffffffffffffffffff021916908373ffffffffffffffffffffffffffffffffffffffff1602179055506064600c8190555062000310565b63ffffffff60e01b817bffffffffffffffffffffffffffffffffffffffffffffffffffffffff19161415620001fe576040517f08c379a000000000000000000000000000000000000000000000000000000000815260040180806020018281038252601c8152602001807f4552433136353a20696e76616c696420696e746572666163652069640000000081525060200191505060405180910390fd5b6001600080837bffffffffffffffffffffffffffffffffffffffffffffffffffffffff19167bffffffffffffffffffffffffffffffffffffffffffffffffffffffff1916815260200190815260200160002060006101000a81548160ff02191690831515021790555050565b828054600181600116156101000203166002900490600052602060002090601f016020900481019282601f10620002ad57805160ff1916838001178555620002de565b82800160010185558215620002de579182015b82811115620002dd578251825591602001919060010190620002c0565b5b509050620002ed9190620002f1565b5090565b5b808211156200030c576000816000905550600101620002f2565b5090565b615d4480620003206000396000f3fe60806040526004361061020f5760003560e01c806375bc852811610118578063b88d4fde116100a0578063df2581b81161006f578063df2581b81461127b578063e985e9c51461132f578063eb4880f4146113b6578063ee88248914611407578063f01a48991461144c5761020f565b8063b88d4fde1461105c578063c29174db1461116e578063c87b56dd14611199578063d1e306931461124d5761020f565b80639d5c7c6c116100e75780639d5c7c6c14610d43578063a22cb46514610e1c578063a27091fd14610e79578063a78dbf8814610ea4578063b28dbb4214610f8a5761020f565b806375bc852814610bc75780639134709e14610c1657806393f22e4914610c6457806395d89b4114610cb35761020f565b8063343ea6261161019b57806352664d4e1161016a57806352664d4e146109b95780636352211e14610a285780636c0360eb14610a8d5780636e8f036314610b1d57806370a0823114610b625761020f565b8063343ea6261461062057806342842e0e1461079d5780634ae010d8146108185780634f6ccce71461096a5761020f565b8063095ea7b3116101e2578063095ea7b3146103de578063162094c41461043957806318160ddd1461050b57806323b872dd146105365780632f745c59146105b15761020f565b806301ffc9a71461021457806303981aff1461028457806306fdde03146102e9578063081812fc14610379575b600080fd5b34801561022057600080fd5b5061026c6004803603602081101561023757600080fd5b8101908080357bffffffffffffffffffffffffffffffffffffffffffffffffffffffff19169060200190929190505050611490565b60405180821515815260200191505060405180910390f35b34801561029057600080fd5b506102d3600480360360208110156102a757600080fd5b81019080803573ffffffffffffffffffffffffffffffffffffffff1690602001909291905050506114f7565b6040518082815260200191505060405180910390f35b3480156102f557600080fd5b506102fe6115e9565b6040518080602001828103825283818151815260200191508051906020019080838360005b8381101561033e578082015181840152602081019050610323565b50505050905090810190601f16801561036b5780820380516001836020036101000a031916815260200191505b509250505060405180910390f35b34801561038557600080fd5b506103b26004803603602081101561039c57600080fd5b810190808035906020019092919050505061168b565b604051808273ffffffffffffffffffffffffffffffffffffffff16815260200191505060405180910390f35b3480156103ea57600080fd5b506104376004803603604081101561040157600080fd5b81019080803573ffffffffffffffffffffffffffffffffffffffff16906020019092919080359060200190929190505050611726565b005b34801561044557600080fd5b506105096004803603604081101561045c57600080fd5b81019080803590602001909291908035906020019064010000000081111561048357600080fd5b82018360208201111561049557600080fd5b803590602001918460018302840111640100000000831117156104b757600080fd5b91908080601f016020809104026020016040519081016040528093929190818152602001838380828437600081840152601f19601f82011690508083019250505050505050919291929050505061186a565b005b34801561051757600080fd5b50610520611921565b6040518082815260200191505060405180910390f35b34801561054257600080fd5b506105af6004803603606081101561055957600080fd5b81019080803573ffffffffffffffffffffffffffffffffffffffff169060200190929190803573ffffffffffffffffffffffffffffffffffffffff16906020019092919080359060200190929190505050611932565b005b3480156105bd57600080fd5b5061060a600480360360408110156105d457600080fd5b81019080803573ffffffffffffffffffffffffffffffffffffffff169060200190929190803590602001909291905050506119a8565b6040518082815260200191505060405180910390f35b34801561062c57600080fd5b5061079b600480360360a081101561064357600080fd5b810190808035906020019064010000000081111561066057600080fd5b82018360208201111561067257600080fd5b8035906020019184600183028401116401000000008311171561069457600080fd5b91908080601f016020809104026020016040519081016040528093929190818152602001838380828437600081840152601f19601f82011690508083019250505050505050919291929080359060200190929190803590602001909291908035906020019064010000000081111561070b57600080fd5b82018360208201111561071d57600080fd5b8035906020019184600183028401116401000000008311171561073f57600080fd5b91908080601f016020809104026020016040519081016040528093929190818152602001838380828437600081840152601f19601f82011690508083019250505050505050919291929080359060200190929190505050611a03565b005b3480156107a957600080fd5b50610816600480360360608110156107c057600080fd5b81019080803573ffffffffffffffffffffffffffffffffffffffff169060200190929190803573ffffffffffffffffffffffffffffffffffffffff16906020019092919080359060200190929190505050611ce4565b005b34801561082457600080fd5b506108516004803603602081101561083b57600080fd5b8101908080359060200190929190505050611d04565b6040518080602001806020018773ffffffffffffffffffffffffffffffffffffffff168152602001868152602001858152602001848152602001838103835289818151815260200191508051906020019080838360005b838110156108c35780820151818401526020810190506108a8565b50505050905090810190601f1680156108f05780820380516001836020036101000a031916815260200191505b50838103825288818151815260200191508051906020019080838360005b8381101561092957808201518184015260208101905061090e565b50505050905090810190601f1680156109565780820380516001836020036101000a031916815260200191505b509850505050505050505060405180910390f35b34801561097657600080fd5b506109a36004803603602081101561098d57600080fd5b81019080803590602001909291905050506120b2565b6040518082815260200191505060405180910390f35b3480156109c557600080fd5b50610a12600480360360408110156109dc57600080fd5b81019080803573ffffffffffffffffffffffffffffffffffffffff169060200190929190803590602001909291905050506120d5565b6040518082815260200191505060405180910390f35b348015610a3457600080fd5b50610a6160048036036020811015610a4b57600080fd5b81019080803590602001909291905050506121d2565b604051808273ffffffffffffffffffffffffffffffffffffffff16815260200191505060405180910390f35b348015610a9957600080fd5b50610aa2612209565b6040518080602001828103825283818151815260200191508051906020019080838360005b83811015610ae2578082015181840152602081019050610ac7565b50505050905090810190601f168015610b0f5780820380516001836020036101000a031916815260200191505b509250505060405180910390f35b348015610b2957600080fd5b50610b6060048036036040811015610b4057600080fd5b8101908080359060200190929190803590602001909291905050506122ab565b005b348015610b6e57600080fd5b50610bb160048036036020811015610b8557600080fd5b81019080803573ffffffffffffffffffffffffffffffffffffffff1690602001909291905050506125af565b6040518082815260200191505060405180910390f35b348015610bd357600080fd5b50610c0060048036036020811015610bea57600080fd5b8101908080359060200190929190505050612684565b6040518082815260200191505060405180910390f35b610c6260048036036040811015610c2c57600080fd5b8101908080359060200190929190803573ffffffffffffffffffffffffffffffffffffffff1690602001909291905050506126a1565b005b348015610c7057600080fd5b50610c9d60048036036020811015610c8757600080fd5b81019080803590602001909291905050506127a7565b6040518082815260200191505060405180910390f35b348015610cbf57600080fd5b50610cc86127c4565b6040518080602001828103825283818151815260200191508051906020019080838360005b83811015610d08578082015181840152602081019050610ced565b50505050905090810190601f168015610d355780820380516001836020036101000a031916815260200191505b509250505060405180910390f35b348015610d4f57600080fd5b50610d7c60048036036020811015610d6657600080fd5b8101908080359060200190929190505050612866565b60405180878152602001806020018681526020018581526020018481526020018315158152602001828103825287818151815260200191508051906020019080838360005b83811015610ddc578082015181840152602081019050610dc1565b50505050905090810190601f168015610e095780820380516001836020036101000a031916815260200191505b5097505050505050505060405180910390f35b348015610e2857600080fd5b50610e7760048036036040811015610e3f57600080fd5b81019080803573ffffffffffffffffffffffffffffffffffffffff169060200190929190803515159060200190929190505050612a48565b005b348015610e8557600080fd5b50610e8e612bfe565b6040518082815260200191505060405180910390f35b348015610eb057600080fd5b50610edd60048036036020811015610ec757600080fd5b8101908080359060200190929190505050612c0f565b60405180806020018673ffffffffffffffffffffffffffffffffffffffff168152602001858152602001848152602001838152602001828103825287818151815260200191508051906020019080838360005b83811015610f4b578082015181840152602081019050610f30565b50505050905090810190601f168015610f785780820380516001836020036101000a031916815260200191505b50965050505050505060405180910390f35b348015610f9657600080fd5b50610fc360048036036020811015610fad57600080fd5b8101908080359060200190929190505050612e31565b60405180868152602001806020018581526020018481526020018315158152602001828103825286818151815260200191508051906020019080838360005b8381101561101d578082015181840152602081019050611002565b50505050905090810190601f16801561104a5780820380516001836020036101000a031916815260200191505b50965050505050505060405180910390f35b34801561106857600080fd5b5061116c6004803603608081101561107f57600080fd5b81019080803573ffffffffffffffffffffffffffffffffffffffff169060200190929190803573ffffffffffffffffffffffffffffffffffffffff16906020019092919080359060200190929190803590602001906401000000008111156110e657600080fd5b8201836020820111156110f857600080fd5b8035906020019184600183028401116401000000008311171561111a57600080fd5b91908080601f016020809104026020016040519081016040528093929190818152602001838380828437600081840152601f19601f820116905080830192505050505050509192919290505050612ff9565b005b34801561117a57600080fd5b50611183613071565b6040518082815260200191505060405180910390f35b3480156111a557600080fd5b506111d2600480360360208110156111bc57600080fd5b8101908080359060200190929190505050613082565b6040518080602001828103825283818151815260200191508051906020019080838360005b838110156112125780820151818401526020810190506111f7565b50505050905090810190601f16801561123f5780820380516001836020036101000a031916815260200191505b509250505060405180910390f35b6112796004803603602081101561126357600080fd5b810190808035906020019092919050505061336b565b005b34801561128757600080fd5b506112b46004803603602081101561129e57600080fd5b8101908080359060200190929190505050613682565b6040518080602001828103825283818151815260200191508051906020019080838360005b838110156112f45780820151818401526020810190506112d9565b50505050905090810190601f1680156113215780820380516001836020036101000a031916815260200191505b509250505060405180910390f35b34801561133b57600080fd5b5061139e6004803603604081101561135257600080fd5b81019080803573ffffffffffffffffffffffffffffffffffffffff169060200190929190803573ffffffffffffffffffffffffffffffffffffffff169060200190929190505050613a62565b60405180821515815260200191505060405180910390f35b3480156113c257600080fd5b50611405600480360360208110156113d957600080fd5b81019080803573ffffffffffffffffffffffffffffffffffffffff169060200190929190505050613af6565b005b34801561141357600080fd5b5061144a6004803603604081101561142a57600080fd5b810190808035906020019092919080359060200190929190505050613be0565b005b6114786004803603602081101561146257600080fd5b8101908080359060200190929190505050613ec6565b60405180821515815260200191505060405180910390f35b6000806000837bffffffffffffffffffffffffffffffffffffffffffffffffffffffff19167bffffffffffffffffffffffffffffffffffffffffffffffffffffffff1916815260200190815260200160002060009054906101000a900460ff169050919050565b60008073ffffffffffffffffffffffffffffffffffffffff168273ffffffffffffffffffffffffffffffffffffffff16141561159b576040517f08c379a000000000000000000000000000000000000000000000000000000000815260040180806020018281038252601c8152602001807f5a65726f20416464726573732c2063616e2774206c6f6f6b2075702e0000000081525060200191505060405180910390fd5b6115e2601460008473ffffffffffffffffffffffffffffffffffffffff1673ffffffffffffffffffffffffffffffffffffffff16815260200190815260200160002061419c565b9050919050565b606060068054600181600116156101000203166002900480601f0160208091040260200160405190810160405280929190818152602001828054600181600116156101000203166002900480156116815780601f1061165657610100808354040283529160200191611681565b820191906000526020600020905b81548152906001019060200180831161166457829003601f168201915b5050505050905090565b6000611696826141b1565b6116eb576040517f08c379a000000000000000000000000000000000000000000000000000000000815260040180806020018281038252602c815260200180615b6e602c913960400191505060405180910390fd5b6004600083815260200190815260200160002060009054906101000a900473ffffffffffffffffffffffffffffffffffffffff169050919050565b6000611731826121d2565b90508073ffffffffffffffffffffffffffffffffffffffff168373ffffffffffffffffffffffffffffffffffffffff1614156117b8576040517f08c379a0000000000000000000000000000000000000000000000000000000008152600401808060200182810382526021815260200180615c5c6021913960400191505060405180910390fd5b8073ffffffffffffffffffffffffffffffffffffffff166117d76141ce565b73ffffffffffffffffffffffffffffffffffffffff1614806118065750611805816118006141ce565b613a62565b5b61185b576040517f08c379a0000000000000000000000000000000000000000000000000000000008152600401808060200182810382526038815260200180615a536038913960400191505060405180910390fd5b61186583836141d6565b505050565b3373ffffffffffffffffffffffffffffffffffffffff1661188a836121d2565b73ffffffffffffffffffffffffffffffffffffffff1614611913576040517f08c379a000000000000000000000000000000000000000000000000000000000815260040180806020018281038252601b8152602001807f596f7520617265206e6f742074686520746f6b656e206f776e6572000000000081525060200191505060405180910390fd5b61191d828261428f565b5050565b600061192d6002614319565b905090565b61194361193d6141ce565b8261432e565b611998576040517f08c379a0000000000000000000000000000000000000000000000000000000008152600401808060200182810382526031815260200180615c7d6031913960400191505060405180910390fd5b6119a3838383614422565b505050565b60006119fb82600160008673ffffffffffffffffffffffffffffffffffffffff1673ffffffffffffffffffffffffffffffffffffffff16815260200190815260200160002061466590919063ffffffff16565b905092915050565b600073ffffffffffffffffffffffffffffffffffffffff166012600086815260200190815260200160002060020160009054906101000a900473ffffffffffffffffffffffffffffffffffffffff1673ffffffffffffffffffffffffffffffffffffffff1614611abe576040517f08c379a000000000000000000000000000000000000000000000000000000000815260040180806020018281038252602581526020018061593e6025913960400191505060405180910390fd5b600081118015611ace5750605081105b611b23576040517f08c379a000000000000000000000000000000000000000000000000000000000815260040180806020018281038252602c815260200180615cae602c913960400191505060405180910390fd5b84601260008681526020019081526020016000206000019080519060200190611b4d929190615735565b50336012600086815260200190815260200160002060020160006101000a81548173ffffffffffffffffffffffffffffffffffffffff021916908373ffffffffffffffffffffffffffffffffffffffff16021790555082601260008681526020019081526020016000206003018190555081601260008681526020019081526020016000206001019080519060200190611be8929190615735565b508060126000868152602001908152602001600020600401819055506000601260008681526020019081526020016000206005018190555082843373ffffffffffffffffffffffffffffffffffffffff167f464bf690f3d3e19892f2be39fb8ad47b2ed271a55dd628889035458a52e3d97985856040518080602001838152602001828103825284818151815260200191508051906020019080838360005b83811015611ca2578082015181840152602081019050611c87565b50505050905090810190601f168015611ccf5780820380516001836020036101000a031916815260200191505b50935050505060405180910390a45050505050565b611cff83838360405180602001604052806000815250612ff9565b505050565b606080600080600080600073ffffffffffffffffffffffffffffffffffffffff166012600089815260200190815260200160002060020160009054906101000a900473ffffffffffffffffffffffffffffffffffffffff1673ffffffffffffffffffffffffffffffffffffffff161415611de6576040517f08c379a00000000000000000000000000000000000000000000000000000000081526004018080602001828103825260208152602001807f5468697320626f6f6b206973206e6f74206f6e2074686520706c6174666f726d81525060200191505060405180910390fd5b6012600088815260200190815260200160002060020160009054906101000a900473ffffffffffffffffffffffffffffffffffffffff1673ffffffffffffffffffffffffffffffffffffffff163373ffffffffffffffffffffffffffffffffffffffff1614611ebd576040517f08c379a000000000000000000000000000000000000000000000000000000000815260040180806020018281038252601e8152602001807f596f7520617265206e6f74207468697320626f6f6b277320617574686f72000081525060200191505060405180910390fd5b6012600088815260200190815260200160002060000160126000898152602001908152602001600020600101601260008a815260200190815260200160002060020160009054906101000a900473ffffffffffffffffffffffffffffffffffffffff16601260008b815260200190815260200160002060030154601260008c815260200190815260200160002060040154601260008d815260200190815260200160002060050154858054600181600116156101000203166002900480601f016020809104026020016040519081016040528092919081815260200182805460018160011615610100020316600290048015611ffa5780601f10611fcf57610100808354040283529160200191611ffa565b820191906000526020600020905b815481529060010190602001808311611fdd57829003601f168201915b50505050509550848054600181600116156101000203166002900480601f0160208091040260200160405190810160405280929190818152602001828054600181600116156101000203166002900480156120965780601f1061206b57610100808354040283529160200191612096565b820191906000526020600020905b81548152906001019060200180831161207957829003601f168201915b5050505050945095509550955095509550955091939550919395565b6000806120c983600261467f90919063ffffffff16565b50905080915050919050565b60008073ffffffffffffffffffffffffffffffffffffffff168373ffffffffffffffffffffffffffffffffffffffff161415612179576040517f08c379a000000000000000000000000000000000000000000000000000000000815260040180806020018281038252601c8152602001807f5a65726f20416464726573732c2063616e2774206c6f6f6b2075702e0000000081525060200191505060405180910390fd5b6121ca82601460008673ffffffffffffffffffffffffffffffffffffffff1673ffffffffffffffffffffffffffffffffffffffff16815260200190815260200160002061466590919063ffffffff16565b905092915050565b600061220282604051806060016040528060298152602001615ae26029913960026146ab9092919063ffffffff16565b9050919050565b606060098054600181600116156101000203166002900480601f0160208091040260200160405190810160405280929190818152602001828054600181600116156101000203166002900480156122a15780601f10612276576101008083540402835291602001916122a1565b820191906000526020600020905b81548152906001019060200180831161228457829003601f168201915b5050505050905090565b6122b4816121d2565b73ffffffffffffffffffffffffffffffffffffffff163373ffffffffffffffffffffffffffffffffffffffff1614612354576040517f08c379a000000000000000000000000000000000000000000000000000000000815260040180806020018281038252601e8152602001807f596f7520617265206e6f74207468697320746f6b656e2773206f776e6572000081525060200191505060405180910390fd5b600015156013600083815260200190815260200160002060030160009054906101000a900460ff161515146123d4576040517f08c379a00000000000000000000000000000000000000000000000000000000081526004018080602001828103825260388152602001806159636038913960400191505060405180910390fd5b600073ffffffffffffffffffffffffffffffffffffffff166013600083815260200190815260200160002060050160019054906101000a900473ffffffffffffffffffffffffffffffffffffffff1673ffffffffffffffffffffffffffffffffffffffff16146124b157600c5460136000838152602001908152602001600020600601540143116124b0576040517f08c379a000000000000000000000000000000000000000000000000000000000815260040180806020018281038252603e815260200180615c1e603e913960400191505060405180910390fd5b5b81601360008381526020019081526020016000206004018190555060016013600083815260200190815260200160002060050160006101000a81548160ff02191690831515021790555060006013600083815260200190815260200160002060050160016101000a81548173ffffffffffffffffffffffffffffffffffffffff021916908373ffffffffffffffffffffffffffffffffffffffff1602179055506125658160106146ca90919063ffffffff16565b50806013600083815260200190815260200160002060000154837fe90ddca2005d74ee3e3ada587c65dfcab2f807f66782aa2b197f196ebc05217460405160405180910390a45050565b60008073ffffffffffffffffffffffffffffffffffffffff168273ffffffffffffffffffffffffffffffffffffffff161415612636576040517f08c379a000000000000000000000000000000000000000000000000000000000815260040180806020018281038252602a815260200180615ab8602a913960400191505060405180910390fd5b61267d600160008473ffffffffffffffffffffffffffffffffffffffff1673ffffffffffffffffffffffffffffffffffffffff16815260200190815260200160002061419c565b9050919050565b600061269a82600e61466590919063ffffffff16565b9050919050565b600115156013600084815260200190815260200160002060030160009054906101000a900460ff16151514612721576040517f08c379a00000000000000000000000000000000000000000000000000000000081526004018080602001828103825260368152602001806158276036913960400191505060405180910390fd5b6013600083815260200190815260200160002060020154341015612790576040517f08c379a00000000000000000000000000000000000000000000000000000000081526004018080602001828103825260248152602001806159f06024913960400191505060405180910390fd5b6127a361279c836121d2565b8284611ce4565b5050565b60006127bd82601061466590919063ffffffff16565b9050919050565b606060078054600181600116156101000203166002900480601f01602080910402602001604051908101604052809291908181526020018280546001816001161561010002031660029004801561285c5780601f106128315761010080835404028352916020019161285c565b820191906000526020600020905b81548152906001019060200180831161283f57829003601f168201915b5050505050905090565b60006060600080600080612879876141b1565b6128eb576040517f08c379a00000000000000000000000000000000000000000000000000000000081526004018080602001828103825260148152602001807f546f6b656e20646f65736e27742020657869737400000000000000000000000081525060200191505060405180910390fd5b601360008881526020019081526020016000206000015460126000601360008b8152602001908152602001600020600001548152602001908152602001600020600101601360008a815260200190815260200160002060010154601360008b815260200190815260200160002060060154601360008c815260200190815260200160002060040154601360008d815260200190815260200160002060050160009054906101000a900460ff16848054600181600116156101000203166002900480601f016020809104026020016040519081016040528092919081815260200182805460018160011615610100020316600290048015612a2c5780601f10612a0157610100808354040283529160200191612a2c565b820191906000526020600020905b815481529060010190602001808311612a0f57829003601f168201915b5050505050945095509550955095509550955091939550919395565b612a506141ce565b73ffffffffffffffffffffffffffffffffffffffff168273ffffffffffffffffffffffffffffffffffffffff161415612af1576040517f08c379a00000000000000000000000000000000000000000000000000000000081526004018080602001828103825260198152602001807f4552433732313a20617070726f766520746f2063616c6c65720000000000000081525060200191505060405180910390fd5b8060056000612afe6141ce565b73ffffffffffffffffffffffffffffffffffffffff1673ffffffffffffffffffffffffffffffffffffffff16815260200190815260200160002060008473ffffffffffffffffffffffffffffffffffffffff1673ffffffffffffffffffffffffffffffffffffffff16815260200190815260200160002060006101000a81548160ff0219169083151502179055508173ffffffffffffffffffffffffffffffffffffffff16612bab6141ce565b73ffffffffffffffffffffffffffffffffffffffff167f17307eab39ab6107e8899845ad3d59bd9653f200f220920489ca2b5937696c318360405180821515815260200191505060405180910390a35050565b6000612c0a600e61419c565b905090565b6060600080600080600073ffffffffffffffffffffffffffffffffffffffff166012600088815260200190815260200160002060020160009054906101000a900473ffffffffffffffffffffffffffffffffffffffff1673ffffffffffffffffffffffffffffffffffffffff161415612cf0576040517f08c379a00000000000000000000000000000000000000000000000000000000081526004018080602001828103825260208152602001807f5468697320626f6f6b206973206e6f74206f6e2074686520706c6174666f726d81525060200191505060405180910390fd5b601260008781526020019081526020016000206001016012600088815260200190815260200160002060020160009054906101000a900473ffffffffffffffffffffffffffffffffffffffff166012600089815260200190815260200160002060030154601260008a815260200190815260200160002060040154601260008b815260200190815260200160002060050154848054600181600116156101000203166002900480601f016020809104026020016040519081016040528092919081815260200182805460018160011615610100020316600290048015612e175780601f10612dec57610100808354040283529160200191612e17565b820191906000526020600020905b815481529060010190602001808311612dfa57829003601f168201915b505050505094509450945094509450945091939590929450565b600060606000806000612e43866141b1565b612eb5576040517f08c379a00000000000000000000000000000000000000000000000000000000081526004018080602001828103825260148152602001807f546f6b656e20646f65736e27742020657869737400000000000000000000000081525060200191505060405180910390fd5b601360008781526020019081526020016000206000015460126000601360008a81526020019081526020016000206000015481526020019081526020016000206001016013600089815260200190815260200160002060010154601360008a815260200190815260200160002060020154601360008b815260200190815260200160002060030160009054906101000a900460ff16838054600181600116156101000203166002900480601f016020809104026020016040519081016040528092919081815260200182805460018160011615610100020316600290048015612fdf5780601f10612fb457610100808354040283529160200191612fdf565b820191906000526020600020905b815481529060010190602001808311612fc257829003601f168201915b505050505093509450945094509450945091939590929450565b61300a6130046141ce565b8361432e565b61305f576040517f08c379a0000000000000000000000000000000000000000000000000000000008152600401808060200182810382526031815260200180615c7d6031913960400191505060405180910390fd5b61306b848484846146e4565b50505050565b600061307d601061419c565b905090565b606061308d826141b1565b6130e2576040517f08c379a000000000000000000000000000000000000000000000000000000000815260040180806020018281038252602f815260200180615bef602f913960400191505060405180910390fd5b6060600860008481526020019081526020016000208054600181600116156101000203166002900480601f01602080910402602001604051908101604052809291908181526020018280546001816001161561010002031660029004801561318b5780601f106131605761010080835404028352916020019161318b565b820191906000526020600020905b81548152906001019060200180831161316e57829003601f168201915b505050505090506000600980546001816001161561010002031660029004905014156131ba5780915050613366565b6000815111156132935760098160405160200180838054600181600116156101000203166002900480156132255780601f10613203576101008083540402835291820191613225565b820191906000526020600020905b815481529060010190602001808311613211575b505082805190602001908083835b602083106132565780518252602082019150602081019050602083039250613233565b6001836020036101000a03801982511681845116808217855250505050505090500192505050604051602081830303815290604052915050613366565b600961329e84614756565b60405160200180838054600181600116156101000203166002900480156132fc5780601f106132da5761010080835404028352918201916132fc565b820191906000526020600020905b8154815290600101906020018083116132e8575b505082805190602001908083835b6020831061332d578051825260208201915060208101905060208303925061330a565b6001836020036101000a038019825116818451168082178552505050505050905001925050506040516020818303038152906040529150505b919050565b600115156013600083815260200190815260200160002060050160009054906101000a900460ff161515146133eb576040517f08c379a00000000000000000000000000000000000000000000000000000000081526004018080602001828103825260328152602001806157d36032913960400191505060405180910390fd5b600073ffffffffffffffffffffffffffffffffffffffff166013600083815260200190815260200160002060050160019054906101000a900473ffffffffffffffffffffffffffffffffffffffff1673ffffffffffffffffffffffffffffffffffffffff16146134a6576040517f08c379a000000000000000000000000000000000000000000000000000000000815260040180806020018281038252602c8152602001806158b9602c913960400191505060405180910390fd5b6013600082815260200190815260200160002060040154341015613515576040517f08c379a000000000000000000000000000000000000000000000000000000000815260040180806020018281038252602d815260200180615a8b602d913960400191505060405180910390fd5b336013600083815260200190815260200160002060050160016101000a81548173ffffffffffffffffffffffffffffffffffffffff021916908373ffffffffffffffffffffffffffffffffffffffff16021790555043601360008381526020019081526020016000206006018190555060006013600083815260200190815260200160002060050160006101000a81548160ff0219169083151502179055506135bd8161489d565b6135d18160106149fa90919063ffffffff16565b5061362381601460003373ffffffffffffffffffffffffffffffffffffffff1673ffffffffffffffffffffffffffffffffffffffff1681526020019081526020016000206146ca90919063ffffffff16565b503373ffffffffffffffffffffffffffffffffffffffff168160136000848152602001908152602001600020600001547f5faac23f0b6536f9cabd35fe9faf70af0b2adf251378e0b858966f80bebb024260405160405180910390a450565b60603373ffffffffffffffffffffffffffffffffffffffff166136a4836121d2565b73ffffffffffffffffffffffffffffffffffffffff16148061372757503373ffffffffffffffffffffffffffffffffffffffff166013600084815260200190815260200160002060050160019054906101000a900473ffffffffffffffffffffffffffffffffffffffff1673ffffffffffffffffffffffffffffffffffffffff16145b61377c576040517f08c379a00000000000000000000000000000000000000000000000000000000081526004018080602001828103825260298152602001806159c76029913960400191505060405180910390fd5b3373ffffffffffffffffffffffffffffffffffffffff1661379c836121d2565b73ffffffffffffffffffffffffffffffffffffffff16141561389a57600073ffffffffffffffffffffffffffffffffffffffff166013600084815260200190815260200160002060050160019054906101000a900473ffffffffffffffffffffffffffffffffffffffff1673ffffffffffffffffffffffffffffffffffffffff161461389557600c546013600084815260200190815260200160002060060154014311613894576040517f08c379a0000000000000000000000000000000000000000000000000000000008152600401808060200182810382526041815260200180615b0b6041913960600191505060405180910390fd5b5b613996565b3373ffffffffffffffffffffffffffffffffffffffff166013600084815260200190815260200160002060050160019054906101000a900473ffffffffffffffffffffffffffffffffffffffff1673ffffffffffffffffffffffffffffffffffffffff16141561399557600c54601360008481526020019081526020016000206006015401431115613994576040517f08c379a000000000000000000000000000000000000000000000000000000000815260040180806020018281038252601e8152602001807f596f75722072656e74616c20706572696f64206861732065787069726564000081525060200191505060405180910390fd5b5b5b60126000601360008581526020019081526020016000206000015481526020019081526020016000206000018054600181600116156101000203166002900480601f016020809104026020016040519081016040528092919081815260200182805460018160011615610100020316600290048015613a565780601f10613a2b57610100808354040283529160200191613a56565b820191906000526020600020905b815481529060010190602001808311613a3957829003601f168201915b50505050509050919050565b6000600560008473ffffffffffffffffffffffffffffffffffffffff1673ffffffffffffffffffffffffffffffffffffffff16815260200190815260200160002060008373ffffffffffffffffffffffffffffffffffffffff1673ffffffffffffffffffffffffffffffffffffffff16815260200190815260200160002060009054906101000a900460ff16905092915050565b600b60009054906101000a900473ffffffffffffffffffffffffffffffffffffffff1673ffffffffffffffffffffffffffffffffffffffff163373ffffffffffffffffffffffffffffffffffffffff1614613b9c576040517f08c379a00000000000000000000000000000000000000000000000000000000081526004018080602001828103825260358152602001806158e56035913960400191505060405180910390fd5b80600d60006101000a81548173ffffffffffffffffffffffffffffffffffffffff021916908373ffffffffffffffffffffffffffffffffffffffff16021790555050565b613be9816121d2565b73ffffffffffffffffffffffffffffffffffffffff163373ffffffffffffffffffffffffffffffffffffffff1614613c89576040517f08c379a000000000000000000000000000000000000000000000000000000000815260040180806020018281038252601e8152602001807f596f7520617265206e6f74207468697320746f6b656e2773206f776e6572000081525060200191505060405180910390fd5b600015156013600083815260200190815260200160002060050160009054906101000a900460ff16151514613d09576040517f08c379a0000000000000000000000000000000000000000000000000000000008152600401808060200182810382526035815260200180615cda6035913960400191505060405180910390fd5b6000821015613d80576040517f08c379a00000000000000000000000000000000000000000000000000000000081526004018080602001828103825260178152602001807f50726963652063616e2774206265206e6567617469766500000000000000000081525060200191505060405180910390fd5b43600c5460136000848152602001908152602001600020600601540110613df2576040517f08c379a000000000000000000000000000000000000000000000000000000000815260040180806020018281038252602a81526020018061585d602a913960400191505060405180910390fd5b81601360008381526020019081526020016000206002018190555060016013600083815260200190815260200160002060030160006101000a81548160ff021916908315150217905550613e68600d60009054906101000a900473ffffffffffffffffffffffffffffffffffffffff1682611726565b613e7c81600e6146ca90919063ffffffff16565b50806013600083815260200190815260200160002060000154837f9c8f609c71aa14f0f8cf09f1c3e8fbbbe92010d555840a9bb980359ee03c896360405160405180910390a45050565b60008073ffffffffffffffffffffffffffffffffffffffff166012600084815260200190815260200160002060020160009054906101000a900473ffffffffffffffffffffffffffffffffffffffff1673ffffffffffffffffffffffffffffffffffffffff161415613fa0576040517f08c379a00000000000000000000000000000000000000000000000000000000081526004018080602001828103825260158152602001807f4953424e20646f6573206e6f742065786973742021000000000000000000000081525060200191505060405180910390fd5b601260008381526020019081526020016000206003015434101561400f576040517f08c379a000000000000000000000000000000000000000000000000000000000815260040180806020018281038252603f815260200180615a14603f913960400191505060405180910390fd5b600061401b600a614a14565b90506140273382614a22565b614031600a614a40565b60126000848152602001908152602001600020600501600081548092919060010191905055508260136000838152602001908152602001600020600001819055506012600084815260200190815260200160002060050154601360008381526020019081526020016000206001018190555060006013600083815260200190815260200160002060050160016101000a81548173ffffffffffffffffffffffffffffffffffffffff021916908373ffffffffffffffffffffffffffffffffffffffff160217905550600060136000838152602001908152602001600020600601819055506012600084815260200190815260200160002060020160009054906101000a900473ffffffffffffffffffffffffffffffffffffffff1673ffffffffffffffffffffffffffffffffffffffff166108fc349081150290604051600060405180830381858888f19350505050158015614191573d6000803e3d6000fd5b506001915050919050565b60006141aa82600001614a56565b9050919050565b60006141c7826002614a6790919063ffffffff16565b9050919050565b600033905090565b816004600083815260200190815260200160002060006101000a81548173ffffffffffffffffffffffffffffffffffffffff021916908373ffffffffffffffffffffffffffffffffffffffff160217905550808273ffffffffffffffffffffffffffffffffffffffff16614249836121d2565b73ffffffffffffffffffffffffffffffffffffffff167f8c5be1e5ebec7d5bd14f71427d1e84f3dd0314c0f7b2291e5b200ac8c7c3b92560405160405180910390a45050565b614298826141b1565b6142ed576040517f08c379a000000000000000000000000000000000000000000000000000000000815260040180806020018281038252602c815260200180615b9a602c913960400191505060405180910390fd5b80600860008481526020019081526020016000209080519060200190614314929190615735565b505050565b600061432782600001614a81565b9050919050565b6000614339826141b1565b61438e576040517f08c379a000000000000000000000000000000000000000000000000000000000815260040180806020018281038252602c81526020018061599b602c913960400191505060405180910390fd5b6000614399836121d2565b90508073ffffffffffffffffffffffffffffffffffffffff168473ffffffffffffffffffffffffffffffffffffffff16148061440857508373ffffffffffffffffffffffffffffffffffffffff166143f08461168b565b73ffffffffffffffffffffffffffffffffffffffff16145b8061441957506144188185613a62565b5b91505092915050565b8273ffffffffffffffffffffffffffffffffffffffff16614442826121d2565b73ffffffffffffffffffffffffffffffffffffffff16146144ae576040517f08c379a0000000000000000000000000000000000000000000000000000000008152600401808060200182810382526029815260200180615bc66029913960400191505060405180910390fd5b600073ffffffffffffffffffffffffffffffffffffffff168273ffffffffffffffffffffffffffffffffffffffff161415614534576040517f08c379a000000000000000000000000000000000000000000000000000000000815260040180806020018281038252602481526020018061591a6024913960400191505060405180910390fd5b61453f838383614a92565b61454a6000826141d6565b61459b81600160008673ffffffffffffffffffffffffffffffffffffffff1673ffffffffffffffffffffffffffffffffffffffff1681526020019081526020016000206149fa90919063ffffffff16565b506145ed81600160008573ffffffffffffffffffffffffffffffffffffffff1673ffffffffffffffffffffffffffffffffffffffff1681526020019081526020016000206146ca90919063ffffffff16565b5061460481836002614b8d9092919063ffffffff16565b50808273ffffffffffffffffffffffffffffffffffffffff168473ffffffffffffffffffffffffffffffffffffffff167fddf252ad1be2c89b69c2b068fc378daa952ba7f163c4a11628f55a4df523b3ef60405160405180910390a4505050565b60006146748360000183614bc2565b60001c905092915050565b6000806000806146928660000186614c45565b915091508160001c8160001c9350935050509250929050565b60006146be846000018460001b84614cde565b60001c90509392505050565b60006146dc836000018360001b614dd4565b905092915050565b6146ef848484614422565b6146fb84848484614e44565b614750576040517f08c379a00000000000000000000000000000000000000000000000000000000081526004018080602001828103825260328152602001806158876032913960400191505060405180910390fd5b50505050565b6060600082141561479e576040518060400160405280600181526020017f30000000000000000000000000000000000000000000000000000000000000008152509050614898565b600082905060005b600082146147c8578080600101915050600a82816147c057fe5b0491506147a6565b60608167ffffffffffffffff811180156147e157600080fd5b506040519080825280601f01601f1916602001820160405280156148145781602001600182028036833780820191505090505b50905060006001830390508593505b6000841461489057600a848161483557fe5b0660300160f81b8282806001900393508151811061484f57fe5b60200101907effffffffffffffffffffffffffffffffffffffffffffffffffffffffffffff1916908160001a905350600a848161488857fe5b049350614823565b819450505050505b919050565b601260006013600084815260200190815260200160002060000154815260200190815260200160002060020160009054906101000a900473ffffffffffffffffffffffffffffffffffffffff1673ffffffffffffffffffffffffffffffffffffffff166108fc6064348161490d57fe5b04601260006013600087815260200190815260200160002060000154815260200190815260200160002060040154029081150290604051600060405180830381858888f19350505050158015614967573d6000803e3d6000fd5b506000614973826121d2565b90508073ffffffffffffffffffffffffffffffffffffffff166108fc6064348161499957fe5b046012600060136000888152602001908152602001600020600001548152602001908152602001600020600401540234039081150290604051600060405180830381858888f193505050501580156149f5573d6000803e3d6000fd5b505050565b6000614a0c836000018360001b61505d565b905092915050565b600081600001549050919050565b614a3c828260405180602001604052806000815250615145565b5050565b6001816000016000828254019250508190555050565b600081600001805490509050919050565b6000614a79836000018360001b6151b6565b905092915050565b600081600001805490509050919050565b600073ffffffffffffffffffffffffffffffffffffffff168373ffffffffffffffffffffffffffffffffffffffff1614158015614afc5750600073ffffffffffffffffffffffffffffffffffffffff168273ffffffffffffffffffffffffffffffffffffffff1614155b15614b15576000341115614b1457614b138161489d565b5b5b60006013600083815260200190815260200160002060030160006101000a81548160ff02191690831515021790555060006013600083815260200190815260200160002060050160006101000a81548160ff021916908315150217905550614b8781600e6149fa90919063ffffffff16565b50505050565b6000614bb9846000018460001b8473ffffffffffffffffffffffffffffffffffffffff1660001b6151d9565b90509392505050565b600081836000018054905011614c23576040517f08c379a00000000000000000000000000000000000000000000000000000000081526004018080602001828103825260228152602001806158056022913960400191505060405180910390fd5b826000018281548110614c3257fe5b9060005260206000200154905092915050565b60008082846000018054905011614ca7576040517f08c379a0000000000000000000000000000000000000000000000000000000008152600401808060200182810382526022815260200180615b4c6022913960400191505060405180910390fd5b6000846000018481548110614cb857fe5b906000526020600020906002020190508060000154816001015492509250509250929050565b60008084600101600085815260200190815260200160002054905060008114158390614da5576040517f08c379a00000000000000000000000000000000000000000000000000000000081526004018080602001828103825283818151815260200191508051906020019080838360005b83811015614d6a578082015181840152602081019050614d4f565b50505050905090810190601f168015614d975780820380516001836020036101000a031916815260200191505b509250505060405180910390fd5b50846000016001820381548110614db857fe5b9060005260206000209060020201600101549150509392505050565b6000614de083836152b5565b614e39578260000182908060018154018082558091505060019003906000526020600020016000909190919091505582600001805490508360010160008481526020019081526020016000208190555060019050614e3e565b600090505b92915050565b6000614e658473ffffffffffffffffffffffffffffffffffffffff166152d8565b614e725760019050615055565b6060614fdc63150b7a0260e01b614e876141ce565b888787604051602401808573ffffffffffffffffffffffffffffffffffffffff1681526020018473ffffffffffffffffffffffffffffffffffffffff16815260200183815260200180602001828103825283818151815260200191508051906020019080838360005b83811015614f0b578082015181840152602081019050614ef0565b50505050905090810190601f168015614f385780820380516001836020036101000a031916815260200191505b5095505050505050604051602081830303815290604052907bffffffffffffffffffffffffffffffffffffffffffffffffffffffff19166020820180517bffffffffffffffffffffffffffffffffffffffffffffffffffffffff8381831617835250505050604051806060016040528060328152602001615887603291398773ffffffffffffffffffffffffffffffffffffffff166153239092919063ffffffff16565b90506000818060200190516020811015614ff557600080fd5b8101908080519060200190929190505050905063150b7a0260e01b7bffffffffffffffffffffffffffffffffffffffffffffffffffffffff1916817bffffffffffffffffffffffffffffffffffffffffffffffffffffffff191614925050505b949350505050565b6000808360010160008481526020019081526020016000205490506000811461513957600060018203905060006001866000018054905003905060008660000182815481106150a857fe5b90600052602060002001549050808760000184815481106150c557fe5b90600052602060002001819055506001830187600101600083815260200190815260200160002081905550866000018054806150fd57fe5b6001900381819060005260206000200160009055905586600101600087815260200190815260200160002060009055600194505050505061513f565b60009150505b92915050565b61514f838361533b565b61515c6000848484614e44565b6151b1576040517f08c379a00000000000000000000000000000000000000000000000000000000081526004018080602001828103825260328152602001806158876032913960400191505060405180910390fd5b505050565b600080836001016000848152602001908152602001600020541415905092915050565b6000808460010160008581526020019081526020016000205490506000811415615280578460000160405180604001604052808681526020018581525090806001815401808255809150506001900390600052602060002090600202016000909190919091506000820151816000015560208201518160010155505084600001805490508560010160008681526020019081526020016000208190555060019150506152ae565b8285600001600183038154811061529357fe5b90600052602060002090600202016001018190555060009150505b9392505050565b600080836001016000848152602001908152602001600020541415905092915050565b60008060007fc5d2460186f7233c927e7db2dcc703c0e500b653ca82273b7bfad8045d85a47060001b9050833f915080821415801561531a57506000801b8214155b92505050919050565b6060615332848460008561552f565b90509392505050565b600073ffffffffffffffffffffffffffffffffffffffff168273ffffffffffffffffffffffffffffffffffffffff1614156153de576040517f08c379a00000000000000000000000000000000000000000000000000000000081526004018080602001828103825260208152602001807f4552433732313a206d696e7420746f20746865207a65726f206164647265737381525060200191505060405180910390fd5b6153e7816141b1565b1561545a576040517f08c379a000000000000000000000000000000000000000000000000000000000815260040180806020018281038252601c8152602001807f4552433732313a20746f6b656e20616c7265616479206d696e7465640000000081525060200191505060405180910390fd5b61546660008383614a92565b6154b781600160008573ffffffffffffffffffffffffffffffffffffffff1673ffffffffffffffffffffffffffffffffffffffff1681526020019081526020016000206146ca90919063ffffffff16565b506154ce81836002614b8d9092919063ffffffff16565b50808273ffffffffffffffffffffffffffffffffffffffff16600073ffffffffffffffffffffffffffffffffffffffff167fddf252ad1be2c89b69c2b068fc378daa952ba7f163c4a11628f55a4df523b3ef60405160405180910390a45050565b606061553a856152d8565b6155ac576040517f08c379a000000000000000000000000000000000000000000000000000000000815260040180806020018281038252601d8152602001807f416464726573733a2063616c6c20746f206e6f6e2d636f6e747261637400000081525060200191505060405180910390fd5b600060608673ffffffffffffffffffffffffffffffffffffffff1685876040518082805190602001908083835b602083106155fc57805182526020820191506020810190506020830392506155d9565b6001836020036101000a03801982511681845116808217855250505050505090500191505060006040518083038185875af1925050503d806000811461565e576040519150601f19603f3d011682016040523d82523d6000602084013e615663565b606091505b5091509150811561567857809250505061572d565b60008151111561568b5780518082602001fd5b836040517f08c379a00000000000000000000000000000000000000000000000000000000081526004018080602001828103825283818151815260200191508051906020019080838360005b838110156156f25780820151818401526020810190506156d7565b50505050905090810190601f16801561571f5780820380516001836020036101000a031916815260200191505b509250505060405180910390fd5b949350505050565b828054600181600116156101000203166002900490600052602060002090601f016020900481019282601f1061577657805160ff19168380011785556157a4565b828001600101855582156157a4579182015b828111156157a3578251825591602001919060010190615788565b5b5090506157b191906157b5565b5090565b5b808211156157ce5760008160009055506001016157b6565b509056fe5468697320636f7079206861736e2774206265656e2070757420666f722072656e74696e6720627920746865206f776e6572456e756d657261626c655365743a20696e646578206f7574206f6620626f756e64735468697320746f6b656e206861736e2774206265656e2070757420666f722073616c652062792074686520746f6b656e206f776e65725468652063757272656e742072656e74696e6720706572696f64206973206e6f74206f766572207965744552433732313a207472616e7366657220746f206e6f6e20455243373231526563656976657220696d706c656d656e7465725468697320636f707920686173206265656e2072656e74656420627920736f6d656f6e6520616c7265616479596f7520617265206e6f742074686520636f6e7472616374206f776e657220746f2063616c6c20746869732066756e6374696f6e214552433732313a207472616e7366657220746f20746865207a65726f20616464726573735468697320626f6f6b2068617320616c7265616479206265656e207075626c69736865642143616e277420707574206120636f707920757020666f722072656e74696e67206966206974277320616c7265616479206f6e2073616c65214552433732313a206f70657261746f7220717565727920666f72206e6f6e6578697374656e7420746f6b656e596f7520617265206e6f7420617574686f72697a656420746f2076696577207468697320636f707921596f757220707269636520697320746f6f206c6f7720666f72207468697320746f6b656e496e73756666696369656e742066756e6473202120506c656173652070617920746865207072696365206173207365742062792074686520617574686f722e4552433732313a20617070726f76652063616c6c6572206973206e6f74206f776e6572206e6f7220617070726f76656420666f7220616c6c596f75722070726963652069736e27742073756666696369656e7420746f2072656e74207468697320636f70794552433732313a2062616c616e636520717565727920666f7220746865207a65726f20616464726573734552433732313a206f776e657220717565727920666f72206e6f6e6578697374656e7420746f6b656e5468652072656e74696e6720706572696f64206973206e6f74206f7665722079657420666f7220796f7520746f20636f6e73756d652074686520636f6e74656e74456e756d657261626c654d61703a20696e646578206f7574206f6620626f756e64734552433732313a20617070726f76656420717565727920666f72206e6f6e6578697374656e7420746f6b656e4552433732314d657461646174613a2055524920736574206f66206e6f6e6578697374656e7420746f6b656e4552433732313a207472616e73666572206f6620746f6b656e2074686174206973206e6f74206f776e4552433732314d657461646174613a2055524920717565727920666f72206e6f6e6578697374656e7420746f6b656e5468652072656e74696e6720706572696f64206973206e6f74206f7665722079657420746f2070757420697420666f722072656e74696e6720616761696e4552433732313a20617070726f76616c20746f2063757272656e74206f776e65724552433732313a207472616e736665722063616c6c6572206973206e6f74206f776e6572206e6f7220617070726f766564596f7572206375742063616e2774206265206d6f7265207468616e20383025206f662074686520746f74616c43616e277420707574206120746f6b656e20666f722073616c65207768696c6520697427732070757420666f722072656e74696e67a264697066735822122016ba684d119358a477abd245b6190ed2d361c627cb2cf6de180738a5f11c827f64736f6c634300060c0033",
  "immutableReferences": {},
  "source": "// SPDX-License-Identifier: MIT\n\npragma solidity >=0.4.16 <0.8.0;\n\nimport \"../../node_modules/@openzeppelin/contracts/utils/Counters.sol\";\nimport \"../../node_modules/@openzeppelin/contracts/token/ERC721/ERC721.sol\";\n\n\n//prana main contract.\n\n\ncontract prana is ERC721 {\n\n    using Counters for Counters.Counter;\n\n    //to automate tokenId generation\n    Counters.Counter private _tokenIdTracker;\n\n    //AccessControl and Ownable can be added instead of owner if time permits\n    constructor() ERC721(\"PranaBooks\", \"PBT\") public {\n        owner = msg.sender;\n        // edit rentedBlocks to appropriate time/number of blocks before final version\n        // for a two-week rental period, the rentedBlocks would be 100800 blocks.\n        // assuming the block time is 12 seconds on average.\n        rentedBlocks = 100;\n    }\n\n    //address of the contract deployer\n    address owner;\n\n    //rented number of blocks, to count time\n    uint256 rentedBlocks;\n\n    //address of the helper contract\n    address pranaHelperAddress;\n\n    EnumerableSet.UintSet upForResaleTokens;\n\n    EnumerableSet.UintSet upForRentingTokens;\n\n    //Modifier for onlyOwner functions\n    //this could be figured out with AccessControl if there's enough time\n    modifier onlyOwner {\n       require(msg.sender == owner, 'You are not the contract owner to call this function!');\n       _;\n    }\n\n    // A nonce to ensure unique id for each new token.\n    //deprecated in favor of _tokenIdTracker\n    // uint256 public nonce;  // might need more work\n\n    // struct to store book details. For each new title.\n    // bytes32(encryptedBookDataHash) - the actual content of the book\n    // bytes32(unencryptedBookDetailsCID) - cid to pull book cover and other details to show the world\n    // This is where the linkage of the contract with storage mechanisms happen\n    // address(publisherAddress) -  address of the content creator/publisher\n    // uint256(bookPrice) - price of the book that the creator asks for direct purchase\n    // uint256(transactionCut) - cut of further transactions on copies\n    // that the creator lay claim to. Stored as a percentage.\n    struct BookInfo{\n        string encryptedBookDataHash;\n        string unencryptedBookDetailsCID;\n        address payable publisherAddress;\n        uint256 bookPrice;\n        uint256 transactionCut;\n        uint256 bookSales;\n    }\n\n    // mapping for all books\n    // ISBN is the key, its corresponding details is the value\n    mapping(uint256 => BookInfo) internal booksInfo;\n\n    // struct for token details and transactions\n    // uint256(isbn) binds the token to the book it points to\n    // uint256(copyNumber) to count which copy of the book the token is\n    // so that people can brag about owning the 1st copy, 100th copy etc,\n    // add sell them at a premium\n    // uint256(resalePrice) is the price that tokenOwner asks to sell the token\n    // bool(isUpForResale) is to advertise that the token is for sale\n    // uint(rentingPrice) is the price for renting that the tokenOwner sets\n    // bool (isUpForRenting) is to advertise that the token is for renting\n    // address(rentee) so that the tokenOwner doesn't change and the token comes back after a while\n    struct TokenDetails{\n        uint256 isbn;\n        uint256 copyNumber;\n        // resale aspects\n        uint256 resalePrice;\n        bool isUpForResale;\n        //Renting aspects (gonna be hard to properly figure out renting)\n        uint256 rentingPrice;\n        bool isUpForRenting;\n        address rentee;\n        uint256 rentedAtBlock;\n    }\n\n\n    // tokenId to TokenDetails mapping\n    mapping (uint256 => TokenDetails) internal tokenData;\n\n    // account balances, for everyone involved.\n    // mapping (address => uint256) internal accountBalance;\n\n\n    // Mapping from holder address to their (enumerable) set of rented tokens\n    mapping (address => EnumerableSet.UintSet) private _renteeRentedTokens;\n\n    //Event to emit when a new book is published with its ISBN and publisher address\n    event BookPublished(address indexed publisher, uint256 indexed isbn,\n    string bookCoverAndDetails, uint256 indexed price, uint256 transactionCut);\n\n    //Event to emit when a tokenOwner puts out a token for sale\n    event TokenForSale(uint256 indexed resalePrice, uint256 indexed isbn, uint256 indexed tokenId);\n\n    //Event to emit when the tokenOwner puts out a token for renting\n    event TokenForRenting(uint256 indexed rentingPrice, uint256 indexed isbn, uint256 indexed tokenId);\n\n    //Event to emit when a token is rented\n    event TokenRented(uint256 indexed isbn, uint256 indexed tokenId, address indexed rentee);\n\n    // function to pass in the adddresses of each of the contract\n    // so that they may refer to each other. Crude version\n    function setPranaHelperAddress(address _pranaHelperAddress) public onlyOwner{\n        pranaHelperAddress = _pranaHelperAddress;\n    }\n\n    // overriding _beforeTokenTransfer()\n    // this ensure good behavior whenever a token transfer happens with money involved.\n    // various actors get their cut before ownership is transfered\n    function _beforeTokenTransfer(address from, address to, uint256 tokenId) internal override {\n        if(from != address(0) && to != address(0)){\n            if(msg.value>0){\n                _updateAccountBalances(tokenId);\n            }\n        }\n        // Resale and Renting flags updated to false at each Token Transfer\n        tokenData[tokenId].isUpForResale = false;\n        tokenData[tokenId].isUpForRenting = false;\n\n        upForResaleTokens.remove(tokenId);\n     }\n\n    // an internal function to update the balances for each monetary transaction\n    // not sure if msg.value works well with internal functions\n    function _updateAccountBalances(uint256 tokenId) internal {\n\n        // transactinCut for the author/publisher gets debited\n        // accountBalance[booksInfo[tokenData[tokenId].isbn].publisherAddress] += booksInfo[tokenData[tokenId].isbn].transactionCut*(msg.value/100);\n        (booksInfo[tokenData[tokenId].isbn].publisherAddress).transfer(booksInfo[tokenData[tokenId].isbn].transactionCut*(msg.value/100));\n\n        //the remaining money goes to the token owner\n        // accountBalance[ownerOf(tokenId)] += msg.value - (booksInfo[tokenData[tokenId].isbn].transactionCut*(msg.value/100));\n        address payable tokenOwner = payable(ownerOf(tokenId));\n        (tokenOwner).transfer(msg.value - (booksInfo[tokenData[tokenId].isbn].transactionCut*(msg.value/100)));\n        //  a better way would be to use call.value()(), but using .transfer for now\n\n    }\n\n    //function to add book details into the chain i.e. publish the book\n    function publishBook(\n        string memory _encryptedBookDataHash, //TOCHECK: bytes32 vs bytes memory\n        uint256 _isbn,\n        uint256 _price,\n        string memory _unencryptedBookDetailsCID,\n        uint256 _transactionCut)\n        public {\n        require(booksInfo[_isbn].publisherAddress==address(0), \"This book has already been published!\");\n        require(_transactionCut > 0 && _transactionCut < 80, \"Your cut can't be more than 80% of the total\");\n        booksInfo[_isbn].encryptedBookDataHash = _encryptedBookDataHash;\n        booksInfo[_isbn].publisherAddress = msg.sender;\n        booksInfo[_isbn].bookPrice = _price;\n        booksInfo[_isbn].unencryptedBookDetailsCID = _unencryptedBookDetailsCID;\n        booksInfo[_isbn].transactionCut = _transactionCut;\n        booksInfo[_isbn].bookSales = 0;\n\n        //event that serves as an advertisement\n        //last argument might be needed to change back to price\n        emit BookPublished(msg.sender, _isbn, _unencryptedBookDetailsCID, _price, _transactionCut);\n\n    }\n\n    //function to purchase books directly from the publisher.\n    //New tokens will be minted here.\n    //Could be assigned to Minter_Role in AccessControl and redirected from the helper contract\n    function directPurchase(uint256 _isbn) public payable returns (bool) {\n        //to revert back if the buyer doesn't have the price set by the author.\n        require(booksInfo[_isbn].publisherAddress != address(0),\"ISBN does not exist !\");\n        require(msg.value >= booksInfo[_isbn].bookPrice,\"Insufficient funds ! Please pay the price as set by the author.\");\n        //a new tokenId is generated, and a new token is minted with that ID.\n        uint256 tokenId = _tokenIdTracker.current();\n        _safeMint(msg.sender, tokenId);\n        _tokenIdTracker.increment();\n        //once a token's succesfully minted, update the various details.\n        booksInfo[_isbn].bookSales++;\n\n        tokenData[tokenId].isbn = _isbn;\n        tokenData[tokenId].copyNumber = booksInfo[_isbn].bookSales;\n        tokenData[tokenId].rentee = address(0);\n        tokenData[tokenId].rentedAtBlock = 0;\n\n        // the money goes to the plubisher's accountBalance.\n        // accountBalance[booksInfo[_isbn].publisherAddress] += msg.value;\n        (booksInfo[_isbn].publisherAddress).transfer(msg.value);\n        return true;\n    }\n\n    // function to put a token for sale\n    // a user can update the resalePrice by just putting it up for sale again (may not be needed)\n    function putTokenForSale(uint256 salePrice, uint256 tokenId) public {\n        require(msg.sender == ownerOf(tokenId), \"You are not this token's owner\");\n        require(tokenData[tokenId].isUpForRenting == false,\n        \"Can't put a token for sale while it's put for renting\");\n        require(salePrice >= 0, \"Price can't be negative\");\n        require(tokenData[tokenId].rentedAtBlock + rentedBlocks < block.number,\n        \"The current renting period is not over yet\");\n        tokenData[tokenId].resalePrice = salePrice;\n        tokenData[tokenId].isUpForResale = true;\n\n        // The helper contract gets approved for token transfer when someone's ready to buy\n        approve(pranaHelperAddress, tokenId);\n        upForResaleTokens.add(tokenId);\n        // event that serves as advertisement for all\n        emit TokenForSale(salePrice, tokenData[tokenId].isbn, tokenId);\n    }\n\n    // To buy a token that's been put for sale.\n    // function will always be called by pranaHelper as the approved address for tokenId\n    function buyToken(uint256 tokenId, address _tokenRecipient) public payable {\n        require(tokenData[tokenId].isUpForResale == true,\n        \"This token hasn't been put for sale by the token owner\");\n\n        require(msg.value >= tokenData[tokenId].resalePrice,\n        \"Your price is too low for this token\");\n\n\n        safeTransferFrom(ownerOf(tokenId), _tokenRecipient, tokenId);\n\n\n\n    }\n\n    // function to put a copy for renting, ownership doesn't change.\n    function putForRent(uint256 _newPrice, uint256 tokenId) public{\n        require(msg.sender == ownerOf(tokenId), \"You are not this token's owner\");\n        require(tokenData[tokenId].isUpForResale == false,\n        \"Can't put a copy up for renting if it's already on sale!\");\n        if(tokenData[tokenId].rentee != address(0)){\n                require(block.number > tokenData[tokenId].rentedAtBlock + rentedBlocks,\n                \"The renting period is not over yet to put it for renting again\");\n            }\n        tokenData[tokenId].rentingPrice = _newPrice;\n        tokenData[tokenId].isUpForRenting = true;\n        tokenData[tokenId].rentee = address(0);//No one's rented it as of now\n        upForRentingTokens.add(tokenId);\n        emit TokenForRenting(_newPrice, tokenData[tokenId].isbn, tokenId);\n    }\n\n    //function to actually rent a copy for content consumption\n    function rentToken(uint256 tokenId) public payable {\n        require(tokenData[tokenId].isUpForRenting == true,\n        \"This copy hasn't been put for renting by the owner\");\n        require(tokenData[tokenId].rentee == address(0),\n        \"This copy has been rented by someone already\");\n        require(msg.value >= tokenData[tokenId].rentingPrice,\n        \"Your price isn't sufficient to rent this copy\");\n\n        tokenData[tokenId].rentee = msg.sender;\n        tokenData[tokenId].rentedAtBlock = block.number;\n        tokenData[tokenId].isUpForRenting = false;\n\n        _updateAccountBalances(tokenId);\n\n        upForRentingTokens.remove(tokenId);\n        \n        // The token gets added to the personal collection of the rentee here.\n        // TODO: figuring out where _renteeRentedTokens[msg.sender].remove(tokenId) goes.\n        _renteeRentedTokens[msg.sender].add(tokenId);\n\n        emit TokenRented(tokenData[tokenId].isbn, tokenId, msg.sender);\n\n    }\n\n    // To set tokenURI, by the token owner.\n    // _uniqueCIDfortoken is a CID of a JSON object with all the extradetails like a personal note\n    function setTokenURI(uint256 tokenId, string memory _uniqueCIDfortoken) public {\n        require(ownerOf(tokenId)==msg.sender, \"You are not the token owner\");\n        _setTokenURI(tokenId, _uniqueCIDfortoken);\n    }\n\n    //function to actually consume the content  you've bought/rented\n    function consumeContent(uint256 tokenId) public view returns(string memory){\n        require(ownerOf(tokenId) == msg.sender || tokenData[tokenId].rentee == msg.sender,\n        \"You are not authorized to view this copy!\");\n        if(ownerOf(tokenId) == msg.sender){\n            if(tokenData[tokenId].rentee != address(0)){\n                require(block.number > tokenData[tokenId].rentedAtBlock + rentedBlocks,\n                \"The renting period is not over yet for you to consume the content\");\n            }\n        }\n        else if(tokenData[tokenId].rentee == msg.sender){\n            require(block.number <= tokenData[tokenId].rentedAtBlock + rentedBlocks,\n            \"Your rental period has expired\");\n        }\n        return booksInfo[tokenData[tokenId].isbn].encryptedBookDataHash;\n    }\n\n    // function to get the balances stored in contract back into the respective owners' account\n    // this is to mainly to reduce the number of transactions and transaction cost associated with it.\n    // WARNING: Extensive testing required before this can be finalized!\n    // function withdrawBalance() public payable{\n    //     require(accountBalance[msg.sender] > 0, \"You don't have any balance to withdraw\");\n    //     (msg.sender).transfer(accountBalance[msg.sender]);\n    //     accountBalance[msg.sender] = 0;\n    // }\n\n    //function to view balance\n    // function viewBalance() public view returns(uint256){\n    //     return accountBalance[msg.sender];\n    // }\n\n    //function to get book details with the tokenId\n    //returns CID of coverpic+bookname\n    function viewTokenDetails(uint256 _tokenId) public view returns (uint256, string memory, uint256, uint256, bool) {\n        require(_exists(_tokenId), \"Token doesn't  exist\");\n        return (tokenData[_tokenId].isbn, booksInfo[tokenData[_tokenId].isbn].unencryptedBookDetailsCID,\n        tokenData[_tokenId].copyNumber, tokenData[_tokenId].resalePrice, tokenData[_tokenId].isUpForResale);\n    }\n    \n    //split up from viewTokenDetails, specifically for renting. To avoid Stack Too Deep Error\n    function viewRentingTokenDetails(uint256 _tokenId) public view returns(uint256, string memory, uint256, uint256, uint256, bool) {\n        require(_exists(_tokenId), \"Token doesn't  exist\");\n        return(tokenData[_tokenId].isbn, booksInfo[tokenData[_tokenId].isbn].unencryptedBookDetailsCID, tokenData[_tokenId].copyNumber,\n        tokenData[_tokenId].rentedAtBlock, tokenData[_tokenId].rentingPrice, tokenData[_tokenId].isUpForRenting);\n    }\n\n    function numberofTokensForResale() public view returns(uint256){\n        return upForResaleTokens.length();\n    }\n\n    function tokenForResaleAtIndex(uint256 index) public view returns (uint256) {\n        return upForResaleTokens.at(index);\n    }\n\n    function numberofTokensForRenting() public view returns(uint256){\n        return upForRentingTokens.length();\n    }\n\n    function tokenForRentingAtIndex(uint256 index) public view returns (uint256) {\n        return upForRentingTokens.at(index);\n    }\n\n    // rented token balance\n    function numberOfRentedTokens(address _rentee) public view returns (uint256) {\n        require(_rentee != address(0), \"Zero Address, can't look up.\");\n\n        return _renteeRentedTokens[_rentee].length();\n    }\n\n    // rented token at a specific index\n    function tokenOfRenteeByIndex(address _rentee, uint256 index) public view returns (uint256) {\n        require(_rentee != address(0), \"Zero Address, can't look up.\");\n        return _renteeRentedTokens[_rentee].at(index);\n    }\n\n    function viewBookDetails(uint256 _isbn) public view returns(string memory, address, uint256, uint256, uint256) {\n        require(booksInfo[_isbn].publisherAddress!=address(0), \"This book is not on the platform\");\n        return (booksInfo[_isbn].unencryptedBookDetailsCID, booksInfo[_isbn].publisherAddress,\n        booksInfo[_isbn].bookPrice, booksInfo[_isbn].transactionCut, booksInfo[_isbn].bookSales);\n\n    }\n\n    function viewMyBookDetails(uint256 _isbn) public view returns(string memory, string memory, address, uint256, uint256, uint256) {\n        require(booksInfo[_isbn].publisherAddress!=address(0), \"This book is not on the platform\");\n        require(msg.sender == booksInfo[_isbn].publisherAddress, \"You are not this book's author\");\n        return (booksInfo[_isbn].encryptedBookDataHash, booksInfo[_isbn].unencryptedBookDetailsCID, booksInfo[_isbn].publisherAddress,\n        booksInfo[_isbn].bookPrice, booksInfo[_isbn].transactionCut, booksInfo[_isbn].bookSales);\n    }\n}\n",
  "sourcePath": "/home/mansoor/Desktop/newest prana/prana/contract/contracts/prana.sol",
  "compiler": {
    "name": "solc",
    "version": "0.6.12+commit.27d51765.Emscripten.clang"
  },
  "schemaVersion": "3.2.3",
  "updatedAt": "2020-09-18T09:03:13.834Z",
  "networkType": "ethereum",
  "devdoc": {
    "kind": "dev",
    "methods": {
      "approve(address,uint256)": {
        "details": "See {IERC721-approve}."
      },
      "balanceOf(address)": {
        "details": "See {IERC721-balanceOf}."
      },
      "baseURI()": {
        "details": "Returns the base URI set via {_setBaseURI}. This will be automatically added as a prefix in {tokenURI} to each token's URI, or to the token ID if no specific URI is set for that token ID."
      },
      "getApproved(uint256)": {
        "details": "See {IERC721-getApproved}."
      },
      "isApprovedForAll(address,address)": {
        "details": "See {IERC721-isApprovedForAll}."
      },
      "name()": {
        "details": "See {IERC721Metadata-name}."
      },
      "ownerOf(uint256)": {
        "details": "See {IERC721-ownerOf}."
      },
      "safeTransferFrom(address,address,uint256)": {
        "details": "See {IERC721-safeTransferFrom}."
      },
      "safeTransferFrom(address,address,uint256,bytes)": {
        "details": "See {IERC721-safeTransferFrom}."
      },
      "setApprovalForAll(address,bool)": {
        "details": "See {IERC721-setApprovalForAll}."
      },
      "supportsInterface(bytes4)": {
        "details": "See {IERC165-supportsInterface}. Time complexity O(1), guaranteed to always use less than 30 000 gas."
      },
      "symbol()": {
        "details": "See {IERC721Metadata-symbol}."
      },
      "tokenByIndex(uint256)": {
        "details": "See {IERC721Enumerable-tokenByIndex}."
      },
      "tokenOfOwnerByIndex(address,uint256)": {
        "details": "See {IERC721Enumerable-tokenOfOwnerByIndex}."
      },
      "tokenURI(uint256)": {
        "details": "See {IERC721Metadata-tokenURI}."
      },
      "totalSupply()": {
        "details": "See {IERC721Enumerable-totalSupply}."
      },
      "transferFrom(address,address,uint256)": {
        "details": "See {IERC721-transferFrom}."
      }
    },
    "version": 1
  },
  "userdoc": {
    "kind": "user",
    "methods": {},
    "version": 1
  }
}