{
  "contractName": "pranaHelper",
  "abi": [
    {
      "inputs": [],
      "stateMutability": "nonpayable",
      "type": "constructor"
    },
    {
      "inputs": [
        {
          "internalType": "address",
          "name": "_pranaAddress",
          "type": "address"
        }
      ],
      "name": "setPranaAddress",
      "outputs": [],
      "stateMutability": "nonpayable",
      "type": "function"
    },
    {
      "inputs": [
        {
          "internalType": "uint256",
          "name": "tokenId",
          "type": "uint256"
        }
      ],
      "name": "buyTokenFromPrana",
      "outputs": [],
      "stateMutability": "payable",
      "type": "function",
      "payable": true
    },
    {
      "inputs": [
        {
          "internalType": "uint256",
          "name": "_tokenId",
          "type": "uint256"
        }
      ],
      "name": "buyTokenFromPranaAsSpecialBuyer",
      "outputs": [],
      "stateMutability": "payable",
      "type": "function",
      "payable": true
    }
  ],
  "bytecode": "0x608060405234801561001057600080fd5b50336000806101000a81548173ffffffffffffffffffffffffffffffffffffffff021916908373ffffffffffffffffffffffffffffffffffffffff1602179055506103a3806100606000396000f3fe6080604052600436106100345760003560e01c80633eec277814610039578063a9fbf5c414610067578063f60d0104146100b8575b600080fd5b6100656004803603602081101561004f57600080fd5b81019080803590602001909291905050506100e6565b005b34801561007357600080fd5b506100b66004803603602081101561008a57600080fd5b81019080803573ffffffffffffffffffffffffffffffffffffffff16906020019092919050505061019b565b005b6100e4600480360360208110156100ce57600080fd5b8101908080359060200190929190505050610283565b005b6000600160009054906101000a900473ffffffffffffffffffffffffffffffffffffffff1690508073ffffffffffffffffffffffffffffffffffffffff16635437c7fa3484336040518463ffffffff1660e01b8152600401808381526020018273ffffffffffffffffffffffffffffffffffffffff168152602001925050506000604051808303818588803b15801561017e57600080fd5b505af1158015610192573d6000803e3d6000fd5b50505050505050565b60008054906101000a900473ffffffffffffffffffffffffffffffffffffffff1673ffffffffffffffffffffffffffffffffffffffff163373ffffffffffffffffffffffffffffffffffffffff161461023f576040517f08c379a00000000000000000000000000000000000000000000000000000000081526004018080602001828103825260358152602001806103396035913960400191505060405180910390fd5b80600160006101000a81548173ffffffffffffffffffffffffffffffffffffffff021916908373ffffffffffffffffffffffffffffffffffffffff16021790555050565b6000600160009054906101000a900473ffffffffffffffffffffffffffffffffffffffff1690508073ffffffffffffffffffffffffffffffffffffffff16639134709e3484336040518463ffffffff1660e01b8152600401808381526020018273ffffffffffffffffffffffffffffffffffffffff168152602001925050506000604051808303818588803b15801561031b57600080fd5b505af115801561032f573d6000803e3d6000fd5b5050505050505056fe596f7520617265206e6f742074686520636f6e7472616374206f776e657220746f2063616c6c20746869732066756e6374696f6e21a26469706673582212204eda532be964766264ff4a85a92328eced104986d753c9821885417cfdb27a9c64736f6c634300060c0033",
  "immutableReferences": {},
  "source": "// SPDX-License-Identifier: ISC\n\npragma solidity ^0.6.0;\n\n\ncontract PranaInterface{\n    function buyToken(uint256 tokenid, address _tokenRecipient) public payable{}\n    function  buyTokenAsTheSpecialBuyer(uint256 tokenid, address _tokenRecipient) public payable{}\n}\n\ncontract pranaHelper {\n\n\n    constructor () public {\n        owner = msg.sender;\n    }\n\n    //address of the contract deployer.\n    address owner;\n\n    //address of the prana contract\n    address pranaAddress;\n\n    //Modifier for onlyOwner functions\n    modifier onlyOwner {\n       require(msg.sender == owner, 'You are not the contract owner to call this function!');\n       _;\n    }\n\n    function setPranaAddress(address _pranaAddress) public onlyOwner{\n        pranaAddress = _pranaAddress;\n    }\n\n    function buyTokenFromPrana(uint256 tokenId) public payable{\n        PranaInterface P = PranaInterface(pranaAddress);\n        P.buyToken{value:msg.value}(tokenId, msg.sender);\n    }\n\n    function buyTokenFromPranaAsSpecialBuyer(uint256 _tokenId) public payable{\n        PranaInterface P = PranaInterface(pranaAddress);\n        P.buyTokenAsTheSpecialBuyer{value:msg.value}(_tokenId, msg.sender);\n    }\n\n}",
  "sourcePath": "/Users/user/Desktop/prana/contract/contracts/pranaHelper.sol",
  "compiler": {
    "name": "solc",
    "version": "0.6.12+commit.27d51765.Emscripten.clang"
  },
  "schemaVersion": "3.2.0",
  "updatedAt": "2020-08-02T12:08:12.093Z",
  "networkType": "ethereum",
  "devdoc": {
    "kind": "dev",
    "methods": {},
    "version": 1
  },
  "userdoc": {
    "kind": "user",
    "methods": {},
    "version": 1
  }
}