{
  "contractName": "PranaInterface",
  "abi": [
    {
      "inputs": [
        {
          "internalType": "uint256",
          "name": "tokenid",
          "type": "uint256"
        },
        {
          "internalType": "address",
          "name": "_tokenRecipient",
          "type": "address"
        }
      ],
      "name": "buyToken",
      "outputs": [],
      "stateMutability": "payable",
      "type": "function"
    },
    {
      "inputs": [
        {
          "internalType": "uint256",
          "name": "tokenid",
          "type": "uint256"
        },
        {
          "internalType": "address",
          "name": "_tokenRecipient",
          "type": "address"
        }
      ],
      "name": "buyTokenAsTheSpecialBuyer",
      "outputs": [],
      "stateMutability": "payable",
      "type": "function"
    }
  ],
  "bytecode": "0x608060405234801561001057600080fd5b5060ff8061001f6000396000f3fe60806040526004361060265760003560e01c80635437c7fa14602b5780639134709e146076575b600080fd5b607460048036036040811015603f57600080fd5b8101908080359060200190929190803573ffffffffffffffffffffffffffffffffffffffff16906020019092919050505060c1565b005b60bf60048036036040811015608a57600080fd5b8101908080359060200190929190803573ffffffffffffffffffffffffffffffffffffffff16906020019092919050505060c5565b005b5050565b505056fea2646970667358221220807a04f32064c1bee631b6feec1952f731bb336e930bc583609833242210a05064736f6c634300060c0033",
  "source": "// SPDX-License-Identifier: MIT\n\npragma solidity >=0.4.16 <0.8.0;\n\n\ncontract PranaInterface{\n    function buyToken(uint256 tokenid, address _tokenRecipient) public payable{}\n    function  buyTokenAsTheSpecialBuyer(uint256 tokenid, address _tokenRecipient) public payable{}\n}\n\ncontract pranaHelper {\n\n\n    constructor () public {\n        owner = msg.sender;\n    }\n\n    //address of the contract deployer.\n    address owner;\n\n    //address of the prana contract\n    address pranaAddress;\n\n    //Modifier for onlyOwner functions\n    modifier onlyOwner {\n       require(msg.sender == owner, 'You are not the contract owner to call this function!');\n       _;\n    }\n\n    function setPranaAddress(address _pranaAddress) public onlyOwner{\n        pranaAddress = _pranaAddress;\n    }\n\n    function buyTokenFromPrana(uint256 tokenId) public payable{\n        PranaInterface P = PranaInterface(pranaAddress);\n        P.buyToken{value:msg.value}(tokenId, msg.sender);\n    }\n\n    function buyTokenFromPranaAsSpecialBuyer(uint256 _tokenId) public payable{\n        PranaInterface P = PranaInterface(pranaAddress);\n        P.buyTokenAsTheSpecialBuyer{value:msg.value}(_tokenId, msg.sender);\n    }\n\n}",
  "sourcePath": "/home/richuak/Blockchain/prana/contract/contracts/pranaHelper.sol",
  "compiler": {
    "name": "solc",
    "version": "0.6.12+commit.27d51765.Emscripten.clang"
  },
  "schemaVersion": "3.0.23",
  "updatedAt": "2020-09-23T05:44:06.581Z",
  "devdoc": {
    "kind": "dev",
    "methods": {},
    "version": 1
  },
  "userdoc": {
    "kind": "user",
    "methods": {},
    "version": 1
  }
}