{
  "contractName": "prana",
  "abi": [
    {
      "inputs": [],
      "stateMutability": "nonpayable",
      "type": "constructor"
    },
    {
      "anonymous": false,
      "inputs": [
        {
          "indexed": true,
          "internalType": "address",
          "name": "owner",
          "type": "address"
        },
        {
          "indexed": true,
          "internalType": "address",
          "name": "approved",
          "type": "address"
        },
        {
          "indexed": true,
          "internalType": "uint256",
          "name": "tokenId",
          "type": "uint256"
        }
      ],
      "name": "Approval",
      "type": "event"
    },
    {
      "anonymous": false,
      "inputs": [
        {
          "indexed": true,
          "internalType": "address",
          "name": "owner",
          "type": "address"
        },
        {
          "indexed": true,
          "internalType": "address",
          "name": "operator",
          "type": "address"
        },
        {
          "indexed": false,
          "internalType": "bool",
          "name": "approved",
          "type": "bool"
        }
      ],
      "name": "ApprovalForAll",
      "type": "event"
    },
    {
      "anonymous": false,
      "inputs": [
        {
          "indexed": true,
          "internalType": "address",
          "name": "publisher",
          "type": "address"
        },
        {
          "indexed": true,
          "internalType": "uint256",
          "name": "isbn",
          "type": "uint256"
        },
        {
          "indexed": false,
          "internalType": "string",
          "name": "bookCoverAndDetails",
          "type": "string"
        },
        {
          "indexed": true,
          "internalType": "uint256",
          "name": "price",
          "type": "uint256"
        },
        {
          "indexed": false,
          "internalType": "uint256",
          "name": "transactionCut",
          "type": "uint256"
        }
      ],
      "name": "BookPublished",
      "type": "event"
    },
    {
      "anonymous": false,
      "inputs": [
        {
          "indexed": true,
          "internalType": "uint256",
          "name": "rentingPrice",
          "type": "uint256"
        },
        {
          "indexed": true,
          "internalType": "uint256",
          "name": "isbn",
          "type": "uint256"
        },
        {
          "indexed": true,
          "internalType": "uint256",
          "name": "tokenId",
          "type": "uint256"
        }
      ],
      "name": "TokenForRenting",
      "type": "event"
    },
    {
      "anonymous": false,
      "inputs": [
        {
          "indexed": true,
          "internalType": "uint256",
          "name": "resalePrice",
          "type": "uint256"
        },
        {
          "indexed": true,
          "internalType": "uint256",
          "name": "isbn",
          "type": "uint256"
        },
        {
          "indexed": true,
          "internalType": "uint256",
          "name": "tokenId",
          "type": "uint256"
        }
      ],
      "name": "TokenForSale",
      "type": "event"
    },
    {
      "anonymous": false,
      "inputs": [
        {
          "indexed": true,
          "internalType": "uint256",
          "name": "isbn",
          "type": "uint256"
        },
        {
          "indexed": true,
          "internalType": "uint256",
          "name": "tokenId",
          "type": "uint256"
        },
        {
          "indexed": true,
          "internalType": "address",
          "name": "rentee",
          "type": "address"
        }
      ],
      "name": "TokenRented",
      "type": "event"
    },
    {
      "anonymous": false,
      "inputs": [
        {
          "indexed": true,
          "internalType": "address",
          "name": "from",
          "type": "address"
        },
        {
          "indexed": true,
          "internalType": "address",
          "name": "to",
          "type": "address"
        },
        {
          "indexed": true,
          "internalType": "uint256",
          "name": "tokenId",
          "type": "uint256"
        }
      ],
      "name": "Transfer",
      "type": "event"
    },
    {
      "inputs": [
        {
          "internalType": "address",
          "name": "to",
          "type": "address"
        },
        {
          "internalType": "uint256",
          "name": "tokenId",
          "type": "uint256"
        }
      ],
      "name": "approve",
      "outputs": [],
      "stateMutability": "nonpayable",
      "type": "function"
    },
    {
      "inputs": [
        {
          "internalType": "address",
          "name": "owner",
          "type": "address"
        }
      ],
      "name": "balanceOf",
      "outputs": [
        {
          "internalType": "uint256",
          "name": "",
          "type": "uint256"
        }
      ],
      "stateMutability": "view",
      "type": "function",
      "constant": true
    },
    {
      "inputs": [],
      "name": "baseURI",
      "outputs": [
        {
          "internalType": "string",
          "name": "",
          "type": "string"
        }
      ],
      "stateMutability": "view",
      "type": "function",
      "constant": true
    },
    {
      "inputs": [
        {
          "internalType": "uint256",
          "name": "tokenId",
          "type": "uint256"
        }
      ],
      "name": "getApproved",
      "outputs": [
        {
          "internalType": "address",
          "name": "",
          "type": "address"
        }
      ],
      "stateMutability": "view",
      "type": "function",
      "constant": true
    },
    {
      "inputs": [
        {
          "internalType": "address",
          "name": "owner",
          "type": "address"
        },
        {
          "internalType": "address",
          "name": "operator",
          "type": "address"
        }
      ],
      "name": "isApprovedForAll",
      "outputs": [
        {
          "internalType": "bool",
          "name": "",
          "type": "bool"
        }
      ],
      "stateMutability": "view",
      "type": "function",
      "constant": true
    },
    {
      "inputs": [],
      "name": "name",
      "outputs": [
        {
          "internalType": "string",
          "name": "",
          "type": "string"
        }
      ],
      "stateMutability": "view",
      "type": "function",
      "constant": true
    },
    {
      "inputs": [
        {
          "internalType": "uint256",
          "name": "tokenId",
          "type": "uint256"
        }
      ],
      "name": "ownerOf",
      "outputs": [
        {
          "internalType": "address",
          "name": "",
          "type": "address"
        }
      ],
      "stateMutability": "view",
      "type": "function",
      "constant": true
    },
    {
      "inputs": [
        {
          "internalType": "address",
          "name": "from",
          "type": "address"
        },
        {
          "internalType": "address",
          "name": "to",
          "type": "address"
        },
        {
          "internalType": "uint256",
          "name": "tokenId",
          "type": "uint256"
        }
      ],
      "name": "safeTransferFrom",
      "outputs": [],
      "stateMutability": "nonpayable",
      "type": "function"
    },
    {
      "inputs": [
        {
          "internalType": "address",
          "name": "from",
          "type": "address"
        },
        {
          "internalType": "address",
          "name": "to",
          "type": "address"
        },
        {
          "internalType": "uint256",
          "name": "tokenId",
          "type": "uint256"
        },
        {
          "internalType": "bytes",
          "name": "_data",
          "type": "bytes"
        }
      ],
      "name": "safeTransferFrom",
      "outputs": [],
      "stateMutability": "nonpayable",
      "type": "function"
    },
    {
      "inputs": [
        {
          "internalType": "address",
          "name": "operator",
          "type": "address"
        },
        {
          "internalType": "bool",
          "name": "approved",
          "type": "bool"
        }
      ],
      "name": "setApprovalForAll",
      "outputs": [],
      "stateMutability": "nonpayable",
      "type": "function"
    },
    {
      "inputs": [
        {
          "internalType": "bytes4",
          "name": "interfaceId",
          "type": "bytes4"
        }
      ],
      "name": "supportsInterface",
      "outputs": [
        {
          "internalType": "bool",
          "name": "",
          "type": "bool"
        }
      ],
      "stateMutability": "view",
      "type": "function",
      "constant": true
    },
    {
      "inputs": [],
      "name": "symbol",
      "outputs": [
        {
          "internalType": "string",
          "name": "",
          "type": "string"
        }
      ],
      "stateMutability": "view",
      "type": "function",
      "constant": true
    },
    {
      "inputs": [
        {
          "internalType": "uint256",
          "name": "index",
          "type": "uint256"
        }
      ],
      "name": "tokenByIndex",
      "outputs": [
        {
          "internalType": "uint256",
          "name": "",
          "type": "uint256"
        }
      ],
      "stateMutability": "view",
      "type": "function",
      "constant": true
    },
    {
      "inputs": [
        {
          "internalType": "address",
          "name": "owner",
          "type": "address"
        },
        {
          "internalType": "uint256",
          "name": "index",
          "type": "uint256"
        }
      ],
      "name": "tokenOfOwnerByIndex",
      "outputs": [
        {
          "internalType": "uint256",
          "name": "",
          "type": "uint256"
        }
      ],
      "stateMutability": "view",
      "type": "function",
      "constant": true
    },
    {
      "inputs": [
        {
          "internalType": "uint256",
          "name": "tokenId",
          "type": "uint256"
        }
      ],
      "name": "tokenURI",
      "outputs": [
        {
          "internalType": "string",
          "name": "",
          "type": "string"
        }
      ],
      "stateMutability": "view",
      "type": "function",
      "constant": true
    },
    {
      "inputs": [],
      "name": "totalSupply",
      "outputs": [
        {
          "internalType": "uint256",
          "name": "",
          "type": "uint256"
        }
      ],
      "stateMutability": "view",
      "type": "function",
      "constant": true
    },
    {
      "inputs": [
        {
          "internalType": "address",
          "name": "from",
          "type": "address"
        },
        {
          "internalType": "address",
          "name": "to",
          "type": "address"
        },
        {
          "internalType": "uint256",
          "name": "tokenId",
          "type": "uint256"
        }
      ],
      "name": "transferFrom",
      "outputs": [],
      "stateMutability": "nonpayable",
      "type": "function"
    },
    {
      "inputs": [
        {
          "internalType": "address",
          "name": "_pranaHelperAddress",
          "type": "address"
        }
      ],
      "name": "setPranaHelperAddress",
      "outputs": [],
      "stateMutability": "nonpayable",
      "type": "function"
    },
    {
      "inputs": [
        {
          "internalType": "string",
          "name": "_encryptedBookDataHash",
          "type": "string"
        },
        {
          "internalType": "uint256",
          "name": "_isbn",
          "type": "uint256"
        },
        {
          "internalType": "uint256",
          "name": "_price",
          "type": "uint256"
        },
        {
          "internalType": "string",
          "name": "_unencryptedBookDetailsCID",
          "type": "string"
        },
        {
          "internalType": "uint256",
          "name": "_transactionCut",
          "type": "uint256"
        }
      ],
      "name": "publishBook",
      "outputs": [],
      "stateMutability": "nonpayable",
      "type": "function"
    },
    {
      "inputs": [
        {
          "internalType": "uint256",
          "name": "_isbn",
          "type": "uint256"
        }
      ],
      "name": "directPurchase",
      "outputs": [
        {
          "internalType": "bool",
          "name": "",
          "type": "bool"
        }
      ],
      "stateMutability": "payable",
      "type": "function",
      "payable": true
    },
    {
      "inputs": [
        {
          "internalType": "uint256",
          "name": "salePrice",
          "type": "uint256"
        },
        {
          "internalType": "uint256",
          "name": "tokenId",
          "type": "uint256"
        }
      ],
      "name": "putTokenForSale",
      "outputs": [],
      "stateMutability": "nonpayable",
      "type": "function"
    },
    {
      "inputs": [
        {
          "internalType": "uint256",
          "name": "tokenId",
          "type": "uint256"
        },
        {
          "internalType": "address",
          "name": "_tokenRecipient",
          "type": "address"
        }
      ],
      "name": "buyToken",
      "outputs": [],
      "stateMutability": "payable",
      "type": "function",
      "payable": true
    },
    {
      "inputs": [
        {
          "internalType": "uint256",
          "name": "_newPrice",
          "type": "uint256"
        },
        {
          "internalType": "uint256",
          "name": "tokenId",
          "type": "uint256"
        }
      ],
      "name": "putForRent",
      "outputs": [],
      "stateMutability": "nonpayable",
      "type": "function"
    },
    {
      "inputs": [
        {
          "internalType": "uint256",
          "name": "tokenId",
          "type": "uint256"
        }
      ],
      "name": "rentToken",
      "outputs": [],
      "stateMutability": "payable",
      "type": "function",
      "payable": true
    },
    {
      "inputs": [
        {
          "internalType": "uint256",
          "name": "tokenId",
          "type": "uint256"
        }
      ],
      "name": "consumeContent",
      "outputs": [
        {
          "internalType": "string",
          "name": "",
          "type": "string"
        }
      ],
      "stateMutability": "view",
      "type": "function",
      "constant": true
    },
    {
      "inputs": [
        {
          "internalType": "uint256",
          "name": "_tokenId",
          "type": "uint256"
        },
        {
          "internalType": "uint256",
          "name": "_salePrice",
          "type": "uint256"
        },
        {
          "internalType": "address",
          "name": "buyer",
          "type": "address"
        }
      ],
      "name": "putForSaleForSomeoneSpecial",
      "outputs": [],
      "stateMutability": "nonpayable",
      "type": "function"
    },
    {
      "inputs": [
        {
          "internalType": "uint256",
          "name": "_tokenId",
          "type": "uint256"
        },
        {
          "internalType": "address",
          "name": "_tokenRecipient",
          "type": "address"
        }
      ],
      "name": "buyTokenAsTheSpecialBuyer",
      "outputs": [],
      "stateMutability": "payable",
      "type": "function",
      "payable": true
    },
    {
      "inputs": [
        {
          "internalType": "uint256",
          "name": "_tokenId",
          "type": "uint256"
        }
      ],
      "name": "viewTokenDetails",
      "outputs": [
        {
          "internalType": "uint256",
          "name": "",
          "type": "uint256"
        },
        {
          "internalType": "string",
          "name": "",
          "type": "string"
        },
        {
          "internalType": "uint256",
          "name": "",
          "type": "uint256"
        },
        {
          "internalType": "uint256",
          "name": "",
          "type": "uint256"
        },
        {
          "internalType": "bool",
          "name": "",
          "type": "bool"
        }
      ],
      "stateMutability": "view",
      "type": "function",
      "constant": true
    },
    {
      "inputs": [],
      "name": "numberofTokensForResale",
      "outputs": [
        {
          "internalType": "uint256",
          "name": "",
          "type": "uint256"
        }
      ],
      "stateMutability": "view",
      "type": "function",
      "constant": true
    },
    {
      "inputs": [
        {
          "internalType": "uint256",
          "name": "index",
          "type": "uint256"
        }
      ],
      "name": "tokenForResaleAtIndex",
      "outputs": [
        {
          "internalType": "uint256",
          "name": "",
          "type": "uint256"
        }
      ],
      "stateMutability": "view",
      "type": "function",
      "constant": true
    },
    {
      "inputs": [
        {
          "internalType": "uint256",
          "name": "_isbn",
          "type": "uint256"
        }
      ],
      "name": "viewBookDetails",
      "outputs": [
        {
          "internalType": "string",
          "name": "",
          "type": "string"
        },
        {
          "internalType": "address",
          "name": "",
          "type": "address"
        },
        {
          "internalType": "uint256",
          "name": "",
          "type": "uint256"
        },
        {
          "internalType": "uint256",
          "name": "",
          "type": "uint256"
        },
        {
          "internalType": "uint256",
          "name": "",
          "type": "uint256"
        }
      ],
      "stateMutability": "view",
      "type": "function",
      "constant": true
    }
  ],
  "bytecode": "0x60806040523480156200001157600080fd5b506040518060400160405280600a81526020017f5072616e61426f6f6b73000000000000000000000000000000000000000000008152506040518060400160405280600381526020017f5042540000000000000000000000000000000000000000000000000000000000815250620000966301ffc9a760e01b6200016160201b60201c565b8160069080519060200190620000ae9291906200026a565b508060079080519060200190620000c79291906200026a565b50620000e06380ac58cd60e01b6200016160201b60201c565b620000f8635b5e139f60e01b6200016160201b60201c565b6200011063780e9d6360e01b6200016160201b60201c565b505033600b60006101000a81548173ffffffffffffffffffffffffffffffffffffffff021916908373ffffffffffffffffffffffffffffffffffffffff160217905550600a600c8190555062000310565b63ffffffff60e01b817bffffffffffffffffffffffffffffffffffffffffffffffffffffffff19161415620001fe576040517f08c379a000000000000000000000000000000000000000000000000000000000815260040180806020018281038252601c8152602001807f4552433136353a20696e76616c696420696e746572666163652069640000000081525060200191505060405180910390fd5b6001600080837bffffffffffffffffffffffffffffffffffffffffffffffffffffffff19167bffffffffffffffffffffffffffffffffffffffffffffffffffffffff1916815260200190815260200160002060006101000a81548160ff02191690831515021790555050565b828054600181600116156101000203166002900490600052602060002090601f016020900481019282601f10620002ad57805160ff1916838001178555620002de565b82800160010185558215620002de579182015b82811115620002dd578251825591602001919060010190620002c0565b5b509050620002ed9190620002f1565b5090565b5b808211156200030c576000816000905550600101620002f2565b5090565b61534980620003206000396000f3fe6080604052600436106101d85760003560e01c806370a0823111610102578063b88d4fde11610095578063e985e9c511610064578063e985e9c514610f60578063eb4880f414610fe7578063ee88248914611038578063f01a48991461107d576101d8565b8063b88d4fde14610cb8578063c87b56dd14610dca578063d1e3069314610e7e578063df2581b814610eac576101d8565b8063a22cb465116100d1578063a22cb46514610a78578063a27091fd14610ad5578063a78dbf8814610b00578063b28dbb4214610be6576101d8565b806370a08231146108e657806375bc85281461094b5780639134709e1461099a57806395d89b41146109e8576101d8565b8063343ea6261161017a5780636352211e116101495780636352211e146107475780636a5b6431146107ac5780636c0360eb146108115780636e8f0363146108a1576101d8565b8063343ea626146104b257806342842e0e1461062f5780634f6ccce7146106aa5780635437c7fa146106f9576101d8565b8063095ea7b3116101b6578063095ea7b31461034257806318160ddd1461039d57806323b872dd146103c85780632f745c5914610443576101d8565b806301ffc9a7146101dd57806306fdde031461024d578063081812fc146102dd575b600080fd5b3480156101e957600080fd5b506102356004803603602081101561020057600080fd5b8101908080357bffffffffffffffffffffffffffffffffffffffffffffffffffffffff191690602001909291905050506110c1565b60405180821515815260200191505060405180910390f35b34801561025957600080fd5b50610262611128565b6040518080602001828103825283818151815260200191508051906020019080838360005b838110156102a2578082015181840152602081019050610287565b50505050905090810190601f1680156102cf5780820380516001836020036101000a031916815260200191505b509250505060405180910390f35b3480156102e957600080fd5b506103166004803603602081101561030057600080fd5b81019080803590602001909291905050506111ca565b604051808273ffffffffffffffffffffffffffffffffffffffff16815260200191505060405180910390f35b34801561034e57600080fd5b5061039b6004803603604081101561036557600080fd5b81019080803573ffffffffffffffffffffffffffffffffffffffff16906020019092919080359060200190929190505050611265565b005b3480156103a957600080fd5b506103b26113a9565b6040518082815260200191505060405180910390f35b3480156103d457600080fd5b50610441600480360360608110156103eb57600080fd5b81019080803573ffffffffffffffffffffffffffffffffffffffff169060200190929190803573ffffffffffffffffffffffffffffffffffffffff169060200190929190803590602001909291905050506113ba565b005b34801561044f57600080fd5b5061049c6004803603604081101561046657600080fd5b81019080803573ffffffffffffffffffffffffffffffffffffffff16906020019092919080359060200190929190505050611430565b6040518082815260200191505060405180910390f35b3480156104be57600080fd5b5061062d600480360360a08110156104d557600080fd5b81019080803590602001906401000000008111156104f257600080fd5b82018360208201111561050457600080fd5b8035906020019184600183028401116401000000008311171561052657600080fd5b91908080601f016020809104026020016040519081016040528093929190818152602001838380828437600081840152601f19601f82011690508083019250505050505050919291929080359060200190929190803590602001909291908035906020019064010000000081111561059d57600080fd5b8201836020820111156105af57600080fd5b803590602001918460018302840111640100000000831117156105d157600080fd5b91908080601f016020809104026020016040519081016040528093929190818152602001838380828437600081840152601f19601f8201169050808301925050505050505091929192908035906020019092919050505061148b565b005b34801561063b57600080fd5b506106a86004803603606081101561065257600080fd5b81019080803573ffffffffffffffffffffffffffffffffffffffff169060200190929190803573ffffffffffffffffffffffffffffffffffffffff1690602001909291908035906020019092919050505061176c565b005b3480156106b657600080fd5b506106e3600480360360208110156106cd57600080fd5b810190808035906020019092919050505061178c565b6040518082815260200191505060405180910390f35b6107456004803603604081101561070f57600080fd5b8101908080359060200190929190803573ffffffffffffffffffffffffffffffffffffffff1690602001909291905050506117af565b005b34801561075357600080fd5b506107806004803603602081101561076a57600080fd5b810190808035906020019092919050505061193e565b604051808273ffffffffffffffffffffffffffffffffffffffff16815260200191505060405180910390f35b3480156107b857600080fd5b5061080f600480360360608110156107cf57600080fd5b810190808035906020019092919080359060200190929190803573ffffffffffffffffffffffffffffffffffffffff169060200190929190505050611975565b005b34801561081d57600080fd5b50610826611b3c565b6040518080602001828103825283818151815260200191508051906020019080838360005b8381101561086657808201518184015260208101905061084b565b50505050905090810190601f1680156108935780820380516001836020036101000a031916815260200191505b509250505060405180910390f35b3480156108ad57600080fd5b506108e4600480360360408110156108c457600080fd5b810190808035906020019092919080359060200190929190505050611bde565b005b3480156108f257600080fd5b506109356004803603602081101561090957600080fd5b81019080803573ffffffffffffffffffffffffffffffffffffffff169060200190929190505050611ecd565b6040518082815260200191505060405180910390f35b34801561095757600080fd5b506109846004803603602081101561096e57600080fd5b8101908080359060200190929190505050611fa2565b6040518082815260200191505060405180910390f35b6109e6600480360360408110156109b057600080fd5b8101908080359060200190929190803573ffffffffffffffffffffffffffffffffffffffff169060200190929190505050611fbf565b005b3480156109f457600080fd5b506109fd6120c5565b6040518080602001828103825283818151815260200191508051906020019080838360005b83811015610a3d578082015181840152602081019050610a22565b50505050905090810190601f168015610a6a5780820380516001836020036101000a031916815260200191505b509250505060405180910390f35b348015610a8457600080fd5b50610ad360048036036040811015610a9b57600080fd5b81019080803573ffffffffffffffffffffffffffffffffffffffff169060200190929190803515159060200190929190505050612167565b005b348015610ae157600080fd5b50610aea61231d565b6040518082815260200191505060405180910390f35b348015610b0c57600080fd5b50610b3960048036036020811015610b2357600080fd5b810190808035906020019092919050505061232e565b60405180806020018673ffffffffffffffffffffffffffffffffffffffff168152602001858152602001848152602001838152602001828103825287818151815260200191508051906020019080838360005b83811015610ba7578082015181840152602081019050610b8c565b50505050905090810190601f168015610bd45780820380516001836020036101000a031916815260200191505b50965050505050505060405180910390f35b348015610bf257600080fd5b50610c1f60048036036020811015610c0957600080fd5b8101908080359060200190929190505050612550565b60405180868152602001806020018581526020018481526020018315158152602001828103825286818151815260200191508051906020019080838360005b83811015610c79578082015181840152602081019050610c5e565b50505050905090810190601f168015610ca65780820380516001836020036101000a031916815260200191505b50965050505050505060405180910390f35b348015610cc457600080fd5b50610dc860048036036080811015610cdb57600080fd5b81019080803573ffffffffffffffffffffffffffffffffffffffff169060200190929190803573ffffffffffffffffffffffffffffffffffffffff1690602001909291908035906020019092919080359060200190640100000000811115610d4257600080fd5b820183602082011115610d5457600080fd5b80359060200191846001830284011164010000000083111715610d7657600080fd5b91908080601f016020809104026020016040519081016040528093929190818152602001838380828437600081840152601f19601f820116905080830192505050505050509192919290505050612718565b005b348015610dd657600080fd5b50610e0360048036036020811015610ded57600080fd5b8101908080359060200190929190505050612790565b6040518080602001828103825283818151815260200191508051906020019080838360005b83811015610e43578082015181840152602081019050610e28565b50505050905090810190601f168015610e705780820380516001836020036101000a031916815260200191505b509250505060405180910390f35b610eaa60048036036020811015610e9457600080fd5b8101908080359060200190929190505050612a79565b005b348015610eb857600080fd5b50610ee560048036036020811015610ecf57600080fd5b8101908080359060200190929190505050612d29565b6040518080602001828103825283818151815260200191508051906020019080838360005b83811015610f25578082015181840152602081019050610f0a565b50505050905090810190601f168015610f525780820380516001836020036101000a031916815260200191505b509250505060405180910390f35b348015610f6c57600080fd5b50610fcf60048036036040811015610f8357600080fd5b81019080803573ffffffffffffffffffffffffffffffffffffffff169060200190929190803573ffffffffffffffffffffffffffffffffffffffff169060200190929190505050613109565b60405180821515815260200191505060405180910390f35b348015610ff357600080fd5b506110366004803603602081101561100a57600080fd5b81019080803573ffffffffffffffffffffffffffffffffffffffff16906020019092919050505061319d565b005b34801561104457600080fd5b5061107b6004803603604081101561105b57600080fd5b810190808035906020019092919080359060200190929190505050613287565b005b6110a96004803603602081101561109357600080fd5b81019080803590602001909291905050506134f6565b60405180821515815260200191505060405180910390f35b6000806000837bffffffffffffffffffffffffffffffffffffffffffffffffffffffff19167bffffffffffffffffffffffffffffffffffffffffffffffffffffffff1916815260200190815260200160002060009054906101000a900460ff169050919050565b606060068054600181600116156101000203166002900480601f0160208091040260200160405190810160405280929190818152602001828054600181600116156101000203166002900480156111c05780601f10611195576101008083540402835291602001916111c0565b820191906000526020600020905b8154815290600101906020018083116111a357829003601f168201915b5050505050905090565b60006111d5826137cc565b61122a576040517f08c379a000000000000000000000000000000000000000000000000000000000815260040180806020018281038252602c815260200180615174602c913960400191505060405180910390fd5b6004600083815260200190815260200160002060009054906101000a900473ffffffffffffffffffffffffffffffffffffffff169050919050565b60006112708261193e565b90508073ffffffffffffffffffffffffffffffffffffffff168373ffffffffffffffffffffffffffffffffffffffff1614156112f7576040517f08c379a00000000000000000000000000000000000000000000000000000000081526004018080602001828103825260218152602001806152366021913960400191505060405180910390fd5b8073ffffffffffffffffffffffffffffffffffffffff166113166137e9565b73ffffffffffffffffffffffffffffffffffffffff16148061134557506113448161133f6137e9565b613109565b5b61139a576040517f08c379a00000000000000000000000000000000000000000000000000000000081526004018080602001828103825260388152602001806150316038913960400191505060405180910390fd5b6113a483836137f1565b505050565b60006113b560026138aa565b905090565b6113cb6113c56137e9565b826138bf565b611420576040517f08c379a00000000000000000000000000000000000000000000000000000000081526004018080602001828103825260318152602001806152826031913960400191505060405180910390fd5b61142b8383836139b3565b505050565b600061148382600160008673ffffffffffffffffffffffffffffffffffffffff1673ffffffffffffffffffffffffffffffffffffffff168152602001908152602001600020613bf690919063ffffffff16565b905092915050565b600073ffffffffffffffffffffffffffffffffffffffff166010600086815260200190815260200160002060020160009054906101000a900473ffffffffffffffffffffffffffffffffffffffff1673ffffffffffffffffffffffffffffffffffffffff1614611546576040517f08c379a0000000000000000000000000000000000000000000000000000000008152600401808060200182810382526025815260200180614f1c6025913960400191505060405180910390fd5b6000811180156115565750605081105b6115ab576040517f08c379a000000000000000000000000000000000000000000000000000000000815260040180806020018281038252602c8152602001806152b3602c913960400191505060405180910390fd5b846010600086815260200190815260200160002060000190805190602001906115d5929190614cdb565b50336010600086815260200190815260200160002060020160006101000a81548173ffffffffffffffffffffffffffffffffffffffff021916908373ffffffffffffffffffffffffffffffffffffffff16021790555082601060008681526020019081526020016000206003018190555081601060008681526020019081526020016000206001019080519060200190611670929190614cdb565b508060106000868152602001908152602001600020600401819055506000601060008681526020019081526020016000206005018190555082843373ffffffffffffffffffffffffffffffffffffffff167f464bf690f3d3e19892f2be39fb8ad47b2ed271a55dd628889035458a52e3d97985856040518080602001838152602001828103825284818151815260200191508051906020019080838360005b8381101561172a57808201518184015260208101905061170f565b50505050905090810190601f1680156117575780820380516001836020036101000a031916815260200191505b50935050505060405180910390a45050505050565b61178783838360405180602001604052806000815250612718565b505050565b6000806117a3836002613c1090919063ffffffff16565b50905080915050919050565b6012600083815260200190815260200160002060009054906101000a900473ffffffffffffffffffffffffffffffffffffffff1673ffffffffffffffffffffffffffffffffffffffff168173ffffffffffffffffffffffffffffffffffffffff1614611866576040517f08c379a000000000000000000000000000000000000000000000000000000000815260040180806020018281038252602881526020018061514c6028913960400191505060405180910390fd5b601160008381526020019081526020016000206002015434146118d4576040517f08c379a0000000000000000000000000000000000000000000000000000000008152600401808060200182810382526038815260200180614ee46038913960400191505060405180910390fd5b6118e76118e08361193e565b828461176c565b60006012600084815260200190815260200160002060006101000a81548173ffffffffffffffffffffffffffffffffffffffff021916908373ffffffffffffffffffffffffffffffffffffffff1602179055505050565b600061196e826040518060600160405280602981526020016150c0602991396002613c3c9092919063ffffffff16565b9050919050565b3373ffffffffffffffffffffffffffffffffffffffff166119958461193e565b73ffffffffffffffffffffffffffffffffffffffff1614611a1e576040517f08c379a000000000000000000000000000000000000000000000000000000000815260040180806020018281038252601c8152602001807f596f752020617265206e6f742074686520746f6b656e206f776e65720000000081525060200191505060405180910390fd5b600015156011600085815260200190815260200160002060030160009054906101000a900460ff16151514611a9e576040517f08c379a000000000000000000000000000000000000000000000000000000000815260040180806020018281038252602b815260200180615257602b913960400191505060405180910390fd5b816011600085815260200190815260200160002060020181905550806012600085815260200190815260200160002060006101000a81548173ffffffffffffffffffffffffffffffffffffffff021916908373ffffffffffffffffffffffffffffffffffffffff160217905550611b37600d60009054906101000a900473ffffffffffffffffffffffffffffffffffffffff1684611265565b505050565b606060098054600181600116156101000203166002900480601f016020809104026020016040519081016040528092919081815260200182805460018160011615610100020316600290048015611bd45780601f10611ba957610100808354040283529160200191611bd4565b820191906000526020600020905b815481529060010190602001808311611bb757829003601f168201915b5050505050905090565b611be78161193e565b73ffffffffffffffffffffffffffffffffffffffff163373ffffffffffffffffffffffffffffffffffffffff1614611c87576040517f08c379a000000000000000000000000000000000000000000000000000000000815260040180806020018281038252601e8152602001807f596f7520617265206e6f74207468697320746f6b656e2773206f776e6572000081525060200191505060405180910390fd5b600015156011600083815260200190815260200160002060030160009054906101000a900460ff16151514611d07576040517f08c379a0000000000000000000000000000000000000000000000000000000008152600401808060200182810382526038815260200180614f416038913960400191505060405180910390fd5b600073ffffffffffffffffffffffffffffffffffffffff166011600083815260200190815260200160002060050160019054906101000a900473ffffffffffffffffffffffffffffffffffffffff1673ffffffffffffffffffffffffffffffffffffffff1614611de457600c546011600083815260200190815260200160002060060154014311611de3576040517f08c379a000000000000000000000000000000000000000000000000000000000815260040180806020018281038252603e8152602001806151f8603e913960400191505060405180910390fd5b5b81601160008381526020019081526020016000206004018190555060016011600083815260200190815260200160002060050160006101000a81548160ff02191690831515021790555060006011600083815260200190815260200160002060050160016101000a81548173ffffffffffffffffffffffffffffffffffffffff021916908373ffffffffffffffffffffffffffffffffffffffff160217905550806011600083815260200190815260200160002060000154837fe90ddca2005d74ee3e3ada587c65dfcab2f807f66782aa2b197f196ebc05217460405160405180910390a45050565b60008073ffffffffffffffffffffffffffffffffffffffff168273ffffffffffffffffffffffffffffffffffffffff161415611f54576040517f08c379a000000000000000000000000000000000000000000000000000000000815260040180806020018281038252602a815260200180615096602a913960400191505060405180910390fd5b611f9b600160008473ffffffffffffffffffffffffffffffffffffffff1673ffffffffffffffffffffffffffffffffffffffff168152602001908152602001600020613c5b565b9050919050565b6000611fb882600e613bf690919063ffffffff16565b9050919050565b600115156011600084815260200190815260200160002060030160009054906101000a900460ff1615151461203f576040517f08c379a0000000000000000000000000000000000000000000000000000000008152600401808060200182810382526036815260200180614dcd6036913960400191505060405180910390fd5b60116000838152602001908152602001600020600201543410156120ae576040517f08c379a0000000000000000000000000000000000000000000000000000000008152600401808060200182810382526024815260200180614fce6024913960400191505060405180910390fd5b6120c16120ba8361193e565b828461176c565b5050565b606060078054600181600116156101000203166002900480601f01602080910402602001604051908101604052809291908181526020018280546001816001161561010002031660029004801561215d5780601f106121325761010080835404028352916020019161215d565b820191906000526020600020905b81548152906001019060200180831161214057829003601f168201915b5050505050905090565b61216f6137e9565b73ffffffffffffffffffffffffffffffffffffffff168273ffffffffffffffffffffffffffffffffffffffff161415612210576040517f08c379a00000000000000000000000000000000000000000000000000000000081526004018080602001828103825260198152602001807f4552433732313a20617070726f766520746f2063616c6c65720000000000000081525060200191505060405180910390fd5b806005600061221d6137e9565b73ffffffffffffffffffffffffffffffffffffffff1673ffffffffffffffffffffffffffffffffffffffff16815260200190815260200160002060008473ffffffffffffffffffffffffffffffffffffffff1673ffffffffffffffffffffffffffffffffffffffff16815260200190815260200160002060006101000a81548160ff0219169083151502179055508173ffffffffffffffffffffffffffffffffffffffff166122ca6137e9565b73ffffffffffffffffffffffffffffffffffffffff167f17307eab39ab6107e8899845ad3d59bd9653f200f220920489ca2b5937696c318360405180821515815260200191505060405180910390a35050565b6000612329600e613c5b565b905090565b6060600080600080600073ffffffffffffffffffffffffffffffffffffffff166010600088815260200190815260200160002060020160009054906101000a900473ffffffffffffffffffffffffffffffffffffffff1673ffffffffffffffffffffffffffffffffffffffff16141561240f576040517f08c379a00000000000000000000000000000000000000000000000000000000081526004018080602001828103825260208152602001807f5468697320626f6f6b206973206e6f74206f6e2074686520706c6174666f726d81525060200191505060405180910390fd5b601060008781526020019081526020016000206001016010600088815260200190815260200160002060020160009054906101000a900473ffffffffffffffffffffffffffffffffffffffff166010600089815260200190815260200160002060030154601060008a815260200190815260200160002060040154601060008b815260200190815260200160002060050154848054600181600116156101000203166002900480601f0160208091040260200160405190810160405280929190818152602001828054600181600116156101000203166002900480156125365780601f1061250b57610100808354040283529160200191612536565b820191906000526020600020905b81548152906001019060200180831161251957829003601f168201915b505050505094509450945094509450945091939590929450565b600060606000806000612562866137cc565b6125d4576040517f08c379a00000000000000000000000000000000000000000000000000000000081526004018080602001828103825260148152602001807f546f6b656e20646f65736e27742020657869737400000000000000000000000081525060200191505060405180910390fd5b601160008781526020019081526020016000206000015460106000601160008a81526020019081526020016000206000015481526020019081526020016000206001016011600089815260200190815260200160002060010154601160008a815260200190815260200160002060020154601160008b815260200190815260200160002060030160009054906101000a900460ff16838054600181600116156101000203166002900480601f0160208091040260200160405190810160405280929190818152602001828054600181600116156101000203166002900480156126fe5780601f106126d3576101008083540402835291602001916126fe565b820191906000526020600020905b8154815290600101906020018083116126e157829003601f168201915b505050505093509450945094509450945091939590929450565b6127296127236137e9565b836138bf565b61277e576040517f08c379a00000000000000000000000000000000000000000000000000000000081526004018080602001828103825260318152602001806152826031913960400191505060405180910390fd5b61278a84848484613c70565b50505050565b606061279b826137cc565b6127f0576040517f08c379a000000000000000000000000000000000000000000000000000000000815260040180806020018281038252602f8152602001806151c9602f913960400191505060405180910390fd5b6060600860008481526020019081526020016000208054600181600116156101000203166002900480601f0160208091040260200160405190810160405280929190818152602001828054600181600116156101000203166002900480156128995780601f1061286e57610100808354040283529160200191612899565b820191906000526020600020905b81548152906001019060200180831161287c57829003601f168201915b505050505090506000600980546001816001161561010002031660029004905014156128c85780915050612a74565b6000815111156129a15760098160405160200180838054600181600116156101000203166002900480156129335780601f10612911576101008083540402835291820191612933565b820191906000526020600020905b81548152906001019060200180831161291f575b505082805190602001908083835b602083106129645780518252602082019150602081019050602083039250612941565b6001836020036101000a03801982511681845116808217855250505050505090500192505050604051602081830303815290604052915050612a74565b60096129ac84613ce2565b6040516020018083805460018160011615610100020316600290048015612a0a5780601f106129e8576101008083540402835291820191612a0a565b820191906000526020600020905b8154815290600101906020018083116129f6575b505082805190602001908083835b60208310612a3b5780518252602082019150602081019050602083039250612a18565b6001836020036101000a038019825116818451168082178552505050505050905001925050506040516020818303038152906040529150505b919050565b600115156011600083815260200190815260200160002060050160009054906101000a900460ff16151514612af9576040517f08c379a0000000000000000000000000000000000000000000000000000000008152600401808060200182810382526032815260200180614d796032913960400191505060405180910390fd5b600073ffffffffffffffffffffffffffffffffffffffff166011600083815260200190815260200160002060050160019054906101000a900473ffffffffffffffffffffffffffffffffffffffff1673ffffffffffffffffffffffffffffffffffffffff1614612bb4576040517f08c379a000000000000000000000000000000000000000000000000000000000815260040180806020018281038252602c815260200180614e5f602c913960400191505060405180910390fd5b6011600082815260200190815260200160002060040154341015612c23576040517f08c379a000000000000000000000000000000000000000000000000000000000815260040180806020018281038252602d815260200180615069602d913960400191505060405180910390fd5b336011600083815260200190815260200160002060050160016101000a81548173ffffffffffffffffffffffffffffffffffffffff021916908373ffffffffffffffffffffffffffffffffffffffff16021790555043601160008381526020019081526020016000206006018190555060006011600083815260200190815260200160002060050160006101000a81548160ff021916908315150217905550612ccb81613e29565b3373ffffffffffffffffffffffffffffffffffffffff168160116000848152602001908152602001600020600001547f5faac23f0b6536f9cabd35fe9faf70af0b2adf251378e0b858966f80bebb024260405160405180910390a450565b60603373ffffffffffffffffffffffffffffffffffffffff16612d4b8361193e565b73ffffffffffffffffffffffffffffffffffffffff161480612dce57503373ffffffffffffffffffffffffffffffffffffffff166011600084815260200190815260200160002060050160019054906101000a900473ffffffffffffffffffffffffffffffffffffffff1673ffffffffffffffffffffffffffffffffffffffff16145b612e23576040517f08c379a0000000000000000000000000000000000000000000000000000000008152600401808060200182810382526029815260200180614fa56029913960400191505060405180910390fd5b3373ffffffffffffffffffffffffffffffffffffffff16612e438361193e565b73ffffffffffffffffffffffffffffffffffffffff161415612f4157600073ffffffffffffffffffffffffffffffffffffffff166011600084815260200190815260200160002060050160019054906101000a900473ffffffffffffffffffffffffffffffffffffffff1673ffffffffffffffffffffffffffffffffffffffff1614612f3c57600c546011600084815260200190815260200160002060060154014311612f3b576040517f08c379a00000000000000000000000000000000000000000000000000000000081526004018080602001828103825260418152602001806150e96041913960600191505060405180910390fd5b5b61303d565b3373ffffffffffffffffffffffffffffffffffffffff166011600084815260200190815260200160002060050160019054906101000a900473ffffffffffffffffffffffffffffffffffffffff1673ffffffffffffffffffffffffffffffffffffffff16141561303c57600c5460116000848152602001908152602001600020600601540143111561303b576040517f08c379a000000000000000000000000000000000000000000000000000000000815260040180806020018281038252601e8152602001807f596f75722072656e74616c20706572696f64206861732065787069726564000081525060200191505060405180910390fd5b5b5b60106000601160008581526020019081526020016000206000015481526020019081526020016000206000018054600181600116156101000203166002900480601f0160208091040260200160405190810160405280929190818152602001828054600181600116156101000203166002900480156130fd5780601f106130d2576101008083540402835291602001916130fd565b820191906000526020600020905b8154815290600101906020018083116130e057829003601f168201915b50505050509050919050565b6000600560008473ffffffffffffffffffffffffffffffffffffffff1673ffffffffffffffffffffffffffffffffffffffff16815260200190815260200160002060008373ffffffffffffffffffffffffffffffffffffffff1673ffffffffffffffffffffffffffffffffffffffff16815260200190815260200160002060009054906101000a900460ff16905092915050565b600b60009054906101000a900473ffffffffffffffffffffffffffffffffffffffff1673ffffffffffffffffffffffffffffffffffffffff163373ffffffffffffffffffffffffffffffffffffffff1614613243576040517f08c379a0000000000000000000000000000000000000000000000000000000008152600401808060200182810382526035815260200180614e8b6035913960400191505060405180910390fd5b80600d60006101000a81548173ffffffffffffffffffffffffffffffffffffffff021916908373ffffffffffffffffffffffffffffffffffffffff16021790555050565b6132908161193e565b73ffffffffffffffffffffffffffffffffffffffff163373ffffffffffffffffffffffffffffffffffffffff1614613330576040517f08c379a000000000000000000000000000000000000000000000000000000000815260040180806020018281038252601e8152602001807f596f7520617265206e6f74207468697320746f6b656e2773206f776e6572000081525060200191505060405180910390fd5b600015156011600083815260200190815260200160002060050160009054906101000a900460ff161515146133b0576040517f08c379a00000000000000000000000000000000000000000000000000000000081526004018080602001828103825260358152602001806152df6035913960400191505060405180910390fd5b43600c5460116000848152602001908152602001600020600601540110613422576040517f08c379a000000000000000000000000000000000000000000000000000000000815260040180806020018281038252602a815260200180614e03602a913960400191505060405180910390fd5b81601160008381526020019081526020016000206002018190555060016011600083815260200190815260200160002060030160006101000a81548160ff021916908315150217905550613498600d60009054906101000a900473ffffffffffffffffffffffffffffffffffffffff1682611265565b6134ac81600e613f8690919063ffffffff16565b50806011600083815260200190815260200160002060000154837f9c8f609c71aa14f0f8cf09f1c3e8fbbbe92010d555840a9bb980359ee03c896360405160405180910390a45050565b60008073ffffffffffffffffffffffffffffffffffffffff166010600084815260200190815260200160002060020160009054906101000a900473ffffffffffffffffffffffffffffffffffffffff1673ffffffffffffffffffffffffffffffffffffffff1614156135d0576040517f08c379a00000000000000000000000000000000000000000000000000000000081526004018080602001828103825260158152602001807f4953424e20646f6573206e6f742065786973742021000000000000000000000081525060200191505060405180910390fd5b601060008381526020019081526020016000206003015434101561363f576040517f08c379a000000000000000000000000000000000000000000000000000000000815260040180806020018281038252603f815260200180614ff2603f913960400191505060405180910390fd5b600061364b600a613fa0565b90506136573382613fae565b613661600a613fcc565b60106000848152602001908152602001600020600501600081548092919060010191905055508260116000838152602001908152602001600020600001819055506010600084815260200190815260200160002060050154601160008381526020019081526020016000206001018190555060006011600083815260200190815260200160002060050160016101000a81548173ffffffffffffffffffffffffffffffffffffffff021916908373ffffffffffffffffffffffffffffffffffffffff160217905550600060116000838152602001908152602001600020600601819055506010600084815260200190815260200160002060020160009054906101000a900473ffffffffffffffffffffffffffffffffffffffff1673ffffffffffffffffffffffffffffffffffffffff166108fc349081150290604051600060405180830381858888f193505050501580156137c1573d6000803e3d6000fd5b506001915050919050565b60006137e2826002613fe290919063ffffffff16565b9050919050565b600033905090565b816004600083815260200190815260200160002060006101000a81548173ffffffffffffffffffffffffffffffffffffffff021916908373ffffffffffffffffffffffffffffffffffffffff160217905550808273ffffffffffffffffffffffffffffffffffffffff166138648361193e565b73ffffffffffffffffffffffffffffffffffffffff167f8c5be1e5ebec7d5bd14f71427d1e84f3dd0314c0f7b2291e5b200ac8c7c3b92560405160405180910390a45050565b60006138b882600001613ffc565b9050919050565b60006138ca826137cc565b61391f576040517f08c379a000000000000000000000000000000000000000000000000000000000815260040180806020018281038252602c815260200180614f79602c913960400191505060405180910390fd5b600061392a8361193e565b90508073ffffffffffffffffffffffffffffffffffffffff168473ffffffffffffffffffffffffffffffffffffffff16148061399957508373ffffffffffffffffffffffffffffffffffffffff16613981846111ca565b73ffffffffffffffffffffffffffffffffffffffff16145b806139aa57506139a98185613109565b5b91505092915050565b8273ffffffffffffffffffffffffffffffffffffffff166139d38261193e565b73ffffffffffffffffffffffffffffffffffffffff1614613a3f576040517f08c379a00000000000000000000000000000000000000000000000000000000081526004018080602001828103825260298152602001806151a06029913960400191505060405180910390fd5b600073ffffffffffffffffffffffffffffffffffffffff168273ffffffffffffffffffffffffffffffffffffffff161415613ac5576040517f08c379a0000000000000000000000000000000000000000000000000000000008152600401808060200182810382526024815260200180614ec06024913960400191505060405180910390fd5b613ad083838361400d565b613adb6000826137f1565b613b2c81600160008673ffffffffffffffffffffffffffffffffffffffff1673ffffffffffffffffffffffffffffffffffffffff16815260200190815260200160002061410890919063ffffffff16565b50613b7e81600160008573ffffffffffffffffffffffffffffffffffffffff1673ffffffffffffffffffffffffffffffffffffffff168152602001908152602001600020613f8690919063ffffffff16565b50613b95818360026141229092919063ffffffff16565b50808273ffffffffffffffffffffffffffffffffffffffff168473ffffffffffffffffffffffffffffffffffffffff167fddf252ad1be2c89b69c2b068fc378daa952ba7f163c4a11628f55a4df523b3ef60405160405180910390a4505050565b6000613c058360000183614157565b60001c905092915050565b600080600080613c2386600001866141da565b915091508160001c8160001c9350935050509250929050565b6000613c4f846000018460001b84614273565b60001c90509392505050565b6000613c6982600001614369565b9050919050565b613c7b8484846139b3565b613c878484848461437a565b613cdc576040517f08c379a0000000000000000000000000000000000000000000000000000000008152600401808060200182810382526032815260200180614e2d6032913960400191505060405180910390fd5b50505050565b60606000821415613d2a576040518060400160405280600181526020017f30000000000000000000000000000000000000000000000000000000000000008152509050613e24565b600082905060005b60008214613d54578080600101915050600a8281613d4c57fe5b049150613d32565b60608167ffffffffffffffff81118015613d6d57600080fd5b506040519080825280601f01601f191660200182016040528015613da05781602001600182028036833780820191505090505b50905060006001830390508593505b60008414613e1c57600a8481613dc157fe5b0660300160f81b82828060019003935081518110613ddb57fe5b60200101907effffffffffffffffffffffffffffffffffffffffffffffffffffffffffffff1916908160001a905350600a8481613e1457fe5b049350613daf565b819450505050505b919050565b601060006011600084815260200190815260200160002060000154815260200190815260200160002060020160009054906101000a900473ffffffffffffffffffffffffffffffffffffffff1673ffffffffffffffffffffffffffffffffffffffff166108fc60643481613e9957fe5b04601060006011600087815260200190815260200160002060000154815260200190815260200160002060040154029081150290604051600060405180830381858888f19350505050158015613ef3573d6000803e3d6000fd5b506000613eff8261193e565b90508073ffffffffffffffffffffffffffffffffffffffff166108fc60643481613f2557fe5b046010600060116000888152602001908152602001600020600001548152602001908152602001600020600401540234039081150290604051600060405180830381858888f19350505050158015613f81573d6000803e3d6000fd5b505050565b6000613f98836000018360001b614593565b905092915050565b600081600001549050919050565b613fc8828260405180602001604052806000815250614603565b5050565b6001816000016000828254019250508190555050565b6000613ff4836000018360001b614674565b905092915050565b600081600001805490509050919050565b600073ffffffffffffffffffffffffffffffffffffffff168373ffffffffffffffffffffffffffffffffffffffff16141580156140775750600073ffffffffffffffffffffffffffffffffffffffff168273ffffffffffffffffffffffffffffffffffffffff1614155b1561409057600034111561408f5761408e81613e29565b5b5b60006011600083815260200190815260200160002060030160006101000a81548160ff02191690831515021790555060006011600083815260200190815260200160002060050160006101000a81548160ff02191690831515021790555061410281600e61410890919063ffffffff16565b50505050565b600061411a836000018360001b614697565b905092915050565b600061414e846000018460001b8473ffffffffffffffffffffffffffffffffffffffff1660001b61477f565b90509392505050565b6000818360000180549050116141b8576040517f08c379a0000000000000000000000000000000000000000000000000000000008152600401808060200182810382526022815260200180614dab6022913960400191505060405180910390fd5b8260000182815481106141c757fe5b9060005260206000200154905092915050565b6000808284600001805490501161423c576040517f08c379a000000000000000000000000000000000000000000000000000000000815260040180806020018281038252602281526020018061512a6022913960400191505060405180910390fd5b600084600001848154811061424d57fe5b906000526020600020906002020190508060000154816001015492509250509250929050565b6000808460010160008581526020019081526020016000205490506000811415839061433a576040517f08c379a00000000000000000000000000000000000000000000000000000000081526004018080602001828103825283818151815260200191508051906020019080838360005b838110156142ff5780820151818401526020810190506142e4565b50505050905090810190601f16801561432c5780820380516001836020036101000a031916815260200191505b509250505060405180910390fd5b5084600001600182038154811061434d57fe5b9060005260206000209060020201600101549150509392505050565b600081600001805490509050919050565b600061439b8473ffffffffffffffffffffffffffffffffffffffff1661485b565b6143a8576001905061458b565b606061451263150b7a0260e01b6143bd6137e9565b888787604051602401808573ffffffffffffffffffffffffffffffffffffffff1681526020018473ffffffffffffffffffffffffffffffffffffffff16815260200183815260200180602001828103825283818151815260200191508051906020019080838360005b83811015614441578082015181840152602081019050614426565b50505050905090810190601f16801561446e5780820380516001836020036101000a031916815260200191505b5095505050505050604051602081830303815290604052907bffffffffffffffffffffffffffffffffffffffffffffffffffffffff19166020820180517bffffffffffffffffffffffffffffffffffffffffffffffffffffffff8381831617835250505050604051806060016040528060328152602001614e2d603291398773ffffffffffffffffffffffffffffffffffffffff166148a69092919063ffffffff16565b9050600081806020019051602081101561452b57600080fd5b8101908080519060200190929190505050905063150b7a0260e01b7bffffffffffffffffffffffffffffffffffffffffffffffffffffffff1916817bffffffffffffffffffffffffffffffffffffffffffffffffffffffff191614925050505b949350505050565b600061459f83836148be565b6145f85782600001829080600181540180825580915050600190039060005260206000200160009091909190915055826000018054905083600101600084815260200190815260200160002081905550600190506145fd565b600090505b92915050565b61460d83836148e1565b61461a600084848461437a565b61466f576040517f08c379a0000000000000000000000000000000000000000000000000000000008152600401808060200182810382526032815260200180614e2d6032913960400191505060405180910390fd5b505050565b600080836001016000848152602001908152602001600020541415905092915050565b6000808360010160008481526020019081526020016000205490506000811461477357600060018203905060006001866000018054905003905060008660000182815481106146e257fe5b90600052602060002001549050808760000184815481106146ff57fe5b906000526020600020018190555060018301876001016000838152602001908152602001600020819055508660000180548061473757fe5b60019003818190600052602060002001600090559055866001016000878152602001908152602001600020600090556001945050505050614779565b60009150505b92915050565b600080846001016000858152602001908152602001600020549050600081141561482657846000016040518060400160405280868152602001858152509080600181540180825580915050600190039060005260206000209060020201600090919091909150600082015181600001556020820151816001015550508460000180549050856001016000868152602001908152602001600020819055506001915050614854565b8285600001600183038154811061483957fe5b90600052602060002090600202016001018190555060009150505b9392505050565b60008060007fc5d2460186f7233c927e7db2dcc703c0e500b653ca82273b7bfad8045d85a47060001b9050833f915080821415801561489d57506000801b8214155b92505050919050565b60606148b58484600085614ad5565b90509392505050565b600080836001016000848152602001908152602001600020541415905092915050565b600073ffffffffffffffffffffffffffffffffffffffff168273ffffffffffffffffffffffffffffffffffffffff161415614984576040517f08c379a00000000000000000000000000000000000000000000000000000000081526004018080602001828103825260208152602001807f4552433732313a206d696e7420746f20746865207a65726f206164647265737381525060200191505060405180910390fd5b61498d816137cc565b15614a00576040517f08c379a000000000000000000000000000000000000000000000000000000000815260040180806020018281038252601c8152602001807f4552433732313a20746f6b656e20616c7265616479206d696e7465640000000081525060200191505060405180910390fd5b614a0c6000838361400d565b614a5d81600160008573ffffffffffffffffffffffffffffffffffffffff1673ffffffffffffffffffffffffffffffffffffffff168152602001908152602001600020613f8690919063ffffffff16565b50614a74818360026141229092919063ffffffff16565b50808273ffffffffffffffffffffffffffffffffffffffff16600073ffffffffffffffffffffffffffffffffffffffff167fddf252ad1be2c89b69c2b068fc378daa952ba7f163c4a11628f55a4df523b3ef60405160405180910390a45050565b6060614ae08561485b565b614b52576040517f08c379a000000000000000000000000000000000000000000000000000000000815260040180806020018281038252601d8152602001807f416464726573733a2063616c6c20746f206e6f6e2d636f6e747261637400000081525060200191505060405180910390fd5b600060608673ffffffffffffffffffffffffffffffffffffffff1685876040518082805190602001908083835b60208310614ba25780518252602082019150602081019050602083039250614b7f565b6001836020036101000a03801982511681845116808217855250505050505090500191505060006040518083038185875af1925050503d8060008114614c04576040519150601f19603f3d011682016040523d82523d6000602084013e614c09565b606091505b50915091508115614c1e578092505050614cd3565b600081511115614c315780518082602001fd5b836040517f08c379a00000000000000000000000000000000000000000000000000000000081526004018080602001828103825283818151815260200191508051906020019080838360005b83811015614c98578082015181840152602081019050614c7d565b50505050905090810190601f168015614cc55780820380516001836020036101000a031916815260200191505b509250505060405180910390fd5b949350505050565b828054600181600116156101000203166002900490600052602060002090601f016020900481019282601f10614d1c57805160ff1916838001178555614d4a565b82800160010185558215614d4a579182015b82811115614d49578251825591602001919060010190614d2e565b5b509050614d579190614d5b565b5090565b5b80821115614d74576000816000905550600101614d5c565b509056fe5468697320636f7079206861736e2774206265656e2070757420666f722072656e74696e6720627920746865206f776e6572456e756d657261626c655365743a20696e646578206f7574206f6620626f756e64735468697320746f6b656e206861736e2774206265656e2070757420666f722073616c652062792074686520746f6b656e206f776e65725468652063757272656e742072656e74696e6720706572696f64206973206e6f74206f766572207965744552433732313a207472616e7366657220746f206e6f6e20455243373231526563656976657220696d706c656d656e7465725468697320636f707920686173206265656e2072656e74656420627920736f6d656f6e6520616c7265616479596f7520617265206e6f742074686520636f6e7472616374206f776e657220746f2063616c6c20746869732066756e6374696f6e214552433732313a207472616e7366657220746f20746865207a65726f2061646472657373596f757220707269636520646f65736e2774206d61746368206d617463682077686174207468652073656c6c6572206861732061736b65645468697320626f6f6b2068617320616c7265616479206265656e207075626c69736865642143616e277420707574206120636f707920757020666f722072656e74696e67206966206974277320616c7265616479206f6e2073616c65214552433732313a206f70657261746f7220717565727920666f72206e6f6e6578697374656e7420746f6b656e596f7520617265206e6f7420617574686f72697a656420746f2076696577207468697320636f707921596f757220707269636520697320746f6f206c6f7720666f72207468697320746f6b656e496e73756666696369656e742066756e6473202120506c656173652070617920746865207072696365206173207365742062792074686520617574686f722e4552433732313a20617070726f76652063616c6c6572206973206e6f74206f776e6572206e6f7220617070726f76656420666f7220616c6c596f75722070726963652069736e27742073756666696369656e7420746f2072656e74207468697320636f70794552433732313a2062616c616e636520717565727920666f7220746865207a65726f20616464726573734552433732313a206f776e657220717565727920666f72206e6f6e6578697374656e7420746f6b656e5468652072656e74696e6720706572696f64206973206e6f74206f7665722079657420666f7220796f7520746f20636f6e73756d652074686520636f6e74656e74456e756d657261626c654d61703a20696e646578206f7574206f6620626f756e6473596f7520617265206e6f7420617574686f72697a656420746f20627579207468697320746f6b656e4552433732313a20617070726f76656420717565727920666f72206e6f6e6578697374656e7420746f6b656e4552433732313a207472616e73666572206f6620746f6b656e2074686174206973206e6f74206f776e4552433732314d657461646174613a2055524920717565727920666f72206e6f6e6578697374656e7420746f6b656e5468652072656e74696e6720706572696f64206973206e6f74206f7665722079657420746f2070757420697420666f722072656e74696e6720616761696e4552433732313a20617070726f76616c20746f2063757272656e74206f776e657254686520746f6b656e20697320616c72656164792070757420666f722073616c6520696e207075626c69634552433732313a207472616e736665722063616c6c6572206973206e6f74206f776e6572206e6f7220617070726f766564596f7572206375742063616e2774206265206d6f7265207468616e20383025206f662074686520746f74616c43616e277420707574206120746f6b656e20666f722073616c65207768696c6520697427732070757420666f722072656e74696e67a264697066735822122066f95526baf422dd54cf9a7e741ae037903b385f3abeefdc31bdafb746beaf8464736f6c634300060c0033",
  "immutableReferences": {},
  "source": "// SPDX-License-Identifier: ISC\n\npragma solidity ^0.6.0;\n\nimport \"../../node_modules/@openzeppelin/contracts/utils/Counters.sol\";\nimport \"../../node_modules/@openzeppelin/contracts/token/ERC721/ERC721.sol\";\n\n\n//prana main contract.\n\n\ncontract prana is ERC721 {\n\n    using Counters for Counters.Counter;\n\n    //to automate tokenId generation\n    Counters.Counter private _tokenIdTracker;\n\n    //AccessControl and Ownable can be added instead of owner if time permits\n    constructor() ERC721(\"PranaBooks\", \"PBT\") public {\n        owner = msg.sender;\n        // edit rentedBlocks to appropriate time/number of blocks before final version\n        // for a two-week rental period, the rentedBlocks would be 100800 blocks.\n        // assuming the block time is 12 seconds on average.\n        rentedBlocks = 10;\n    }\n\n    //address of the contract deployer\n    address owner;\n\n    //rented number of blocks, to count time\n    uint256 rentedBlocks;\n\n    //address of the helper contract\n    address pranaHelperAddress;\n\n    EnumerableSet.UintSet upForResaleTokens;\n\n    //Modifier for onlyOwner functions\n    //this could be figured out with AccessControl if there's enough time\n    modifier onlyOwner {\n       require(msg.sender == owner, 'You are not the contract owner to call this function!');\n       _;\n    }\n\n    // A nonce to ensure unique id for each new token.\n    //deprecated in favor of _tokenIdTracker\n    // uint256 public nonce;  // might need more work\n\n    // struct to store book details. For each new title.\n    // bytes32(encryptedBookDataHash) - the actual content of the book\n    // bytes32(unencryptedBookDetailsCID) - cid to pull book cover and other details to show the world\n    // This is where the linkage of the contract with storage mechanisms happen\n    // address(publisherAddress) -  address of the content creator/publisher\n    // uint256(bookPrice) - price of the book that the creator asks for direct purchase\n    // uint256(transactionCut) - cut of further transactions on copies\n    // that the creator lay claim to. Stored as a percentage.\n    struct BookInfo{\n        string encryptedBookDataHash;\n        string unencryptedBookDetailsCID;\n        address payable publisherAddress;\n        uint256 bookPrice;\n        uint256 transactionCut;\n        uint256 bookSales;\n    }\n\n    // mapping for all books\n    // ISBN is the key, its corresponding details is the value\n    mapping(uint256 => BookInfo) internal booksInfo;\n\n    // struct for token details and transactions\n    // uint256(isbn) binds the token to the book it points to\n    // uint256(copyNumber) to count which copy of the book the token is\n    // so that people can brag about owning the 1st copy, 100th copy etc,\n    // add sell them at a premium\n    // uint256(resalePrice) is the price that tokenOwner asks to sell the token\n    // bool(isUpForResale) is to advertise that the token is for sale\n    // uint(rentingPrice) is the price for renting that the tokenOwner sets\n    // bool (isUpForRenting) is to advertise that the token is for renting\n    // address(rentee) so that the tokenOwner doesn't change and the token comes back after a while\n    struct TokenDetails{\n        uint256 isbn;\n        uint256 copyNumber;\n        // resale aspects\n        uint256 resalePrice;\n        bool isUpForResale;\n        //Renting aspects (gonna be hard to properly figure out renting)\n        uint256 rentingPrice;\n        bool isUpForRenting;\n        address rentee;\n        uint256 rentedAtBlock;\n    }\n\n\n    // tokenId to TokenDetails mapping\n    mapping (uint256 => TokenDetails) internal tokenData;\n\n    // account balances, for everyone involved.\n    // mapping (address => uint256) internal accountBalance;\n\n    // mapping for special buyer for a tokenId\n    mapping (uint256 => address) internal specialBuyer;\n\n\n    //Event to emit when a new book is published with its ISBN and publisher address\n    event BookPublished(address indexed publisher, uint256 indexed isbn,\n    string bookCoverAndDetails, uint256 indexed price, uint256 transactionCut);\n\n    //Event to emit when a tokenOwner puts out a token for sale\n    event TokenForSale(uint256 indexed resalePrice, uint256 indexed isbn, uint256 indexed tokenId);\n\n    //Event to emit when the tokenOwner puts out a token for renting\n    event TokenForRenting(uint256 indexed rentingPrice, uint256 indexed isbn, uint256 indexed tokenId);\n\n    //Event to emit when a token is rented\n    event TokenRented(uint256 indexed isbn, uint256 indexed tokenId, address indexed rentee);\n\n    // function to pass in the adddresses of each of the contract\n    // so that they may refer to each other. Crude version\n    function setPranaHelperAddress(address _pranaHelperAddress) public onlyOwner{\n        pranaHelperAddress = _pranaHelperAddress;\n    }\n\n    // overriding _beforeTokenTransfer()\n    // this ensure good behavior whenever a token transfer happens with money involved.\n    // various actors get their cut before ownership is transfered\n    function _beforeTokenTransfer(address from, address to, uint256 tokenId) internal override {\n        if(from != address(0) && to != address(0)){\n            if(msg.value>0){\n                _updateAccountBalances(tokenId);\n            }\n        }\n        // Resale and Renting flags updated to false at each Token Transfer\n        tokenData[tokenId].isUpForResale = false;\n        tokenData[tokenId].isUpForRenting = false;\n\n        upForResaleTokens.remove(tokenId);\n     }\n\n    // an internal function to update the balances for each monetary transaction\n    // not sure if msg.value works well with internal functions\n    function _updateAccountBalances(uint256 tokenId) internal {\n\n        // transactinCut for the author/publisher gets debited\n        // accountBalance[booksInfo[tokenData[tokenId].isbn].publisherAddress] += booksInfo[tokenData[tokenId].isbn].transactionCut*(msg.value/100);\n        (booksInfo[tokenData[tokenId].isbn].publisherAddress).transfer(booksInfo[tokenData[tokenId].isbn].transactionCut*(msg.value/100));\n\n        //the remaining money goes to the token owner\n        // accountBalance[ownerOf(tokenId)] += msg.value - (booksInfo[tokenData[tokenId].isbn].transactionCut*(msg.value/100));\n        address payable tokenOwner = payable(ownerOf(tokenId));\n        (tokenOwner).transfer(msg.value - (booksInfo[tokenData[tokenId].isbn].transactionCut*(msg.value/100)));\n        //  a better way would be to use call.value()(), but using .transfer for now\n\n    }\n\n    //function to add book details into the chain i.e. publish the book\n    function publishBook(\n        string memory _encryptedBookDataHash, //TOCHECK: bytes32 vs bytes memory\n        uint256 _isbn,\n        uint256 _price,\n        string memory _unencryptedBookDetailsCID,\n        uint256 _transactionCut)\n        public {\n        require(booksInfo[_isbn].publisherAddress==address(0), \"This book has already been published!\");\n        require(_transactionCut > 0 && _transactionCut < 80, \"Your cut can't be more than 80% of the total\");\n        booksInfo[_isbn].encryptedBookDataHash = _encryptedBookDataHash;\n        booksInfo[_isbn].publisherAddress = msg.sender;\n        booksInfo[_isbn].bookPrice = _price;\n        booksInfo[_isbn].unencryptedBookDetailsCID = _unencryptedBookDetailsCID;\n        booksInfo[_isbn].transactionCut = _transactionCut;\n        booksInfo[_isbn].bookSales = 0;\n\n        //event that serves as an advertisement\n        //last argument might be needed to change back to price\n        emit BookPublished(msg.sender, _isbn, _unencryptedBookDetailsCID, _price, _transactionCut);\n\n    }\n\n    //function to purchase books directly from the publisher.\n    //New tokens will be minted here.\n    //Could be assigned to Minter_Role in AccessControl and redirected from the helper contract\n    function directPurchase(uint256 _isbn) public payable returns (bool) {\n        //to revert back if the buyer doesn't have the price set by the author.\n        require(booksInfo[_isbn].publisherAddress != address(0),\"ISBN does not exist !\");\n        require(msg.value >= booksInfo[_isbn].bookPrice,\"Insufficient funds ! Please pay the price as set by the author.\");\n        //a new tokenId is generated, and a new token is minted with that ID.\n        uint256 tokenId = _tokenIdTracker.current();\n        _safeMint(msg.sender, tokenId);\n        _tokenIdTracker.increment();\n        //once a token's succesfully minted, update the various details.\n        booksInfo[_isbn].bookSales++;\n\n        tokenData[tokenId].isbn = _isbn;\n        tokenData[tokenId].copyNumber = booksInfo[_isbn].bookSales;\n        tokenData[tokenId].rentee = address(0);\n        tokenData[tokenId].rentedAtBlock = 0;\n\n        // the money goes to the plubisher's accountBalance.\n        // accountBalance[booksInfo[_isbn].publisherAddress] += msg.value;\n        (booksInfo[_isbn].publisherAddress).transfer(msg.value);\n        return true;\n    }\n\n    // function to put a token for sale\n    // a user can update the resalePrice by just putting it up for sale again (may not be needed)\n    function putTokenForSale(uint256 salePrice, uint256 tokenId) public {\n        require(msg.sender == ownerOf(tokenId), \"You are not this token's owner\");\n        require(tokenData[tokenId].isUpForRenting == false,\n        \"Can't put a token for sale while it's put for renting\");\n        require(tokenData[tokenId].rentedAtBlock + rentedBlocks < block.number,\n        \"The current renting period is not over yet\");\n        tokenData[tokenId].resalePrice = salePrice;\n        tokenData[tokenId].isUpForResale = true;\n\n        // The helper contract gets approved for token transfer when someone's ready to buy\n        approve(pranaHelperAddress, tokenId);\n        upForResaleTokens.add(tokenId);\n        // event that serves as advertisement for all\n        emit TokenForSale(salePrice, tokenData[tokenId].isbn, tokenId);\n    }\n\n    // To buy a token that's been put for sale.\n    // function will always be called by pranaHelper as the approved address for tokenId\n    function buyToken(uint256 tokenId, address _tokenRecipient) public payable {\n        require(tokenData[tokenId].isUpForResale == true,\n        \"This token hasn't been put for sale by the token owner\");\n\n        require(msg.value >= tokenData[tokenId].resalePrice,\n        \"Your price is too low for this token\");\n\n\n        safeTransferFrom(ownerOf(tokenId), _tokenRecipient, tokenId);\n\n\n\n    }\n\n    // function to put a copy for renting, ownership doesn't change.\n    function putForRent(uint256 _newPrice, uint256 tokenId) public{\n        require(msg.sender == ownerOf(tokenId), \"You are not this token's owner\");\n        require(tokenData[tokenId].isUpForResale == false,\n        \"Can't put a copy up for renting if it's already on sale!\");\n        if(tokenData[tokenId].rentee != address(0)){\n                require(block.number > tokenData[tokenId].rentedAtBlock + rentedBlocks,\n                \"The renting period is not over yet to put it for renting again\");\n            }\n        tokenData[tokenId].rentingPrice = _newPrice;\n        tokenData[tokenId].isUpForRenting = true;\n        tokenData[tokenId].rentee = address(0);//No one's rented it as of now\n        emit TokenForRenting(_newPrice, tokenData[tokenId].isbn, tokenId);\n    }\n\n    //function to actually rent a copy for content consumption\n    function rentToken(uint256 tokenId) public payable {\n        require(tokenData[tokenId].isUpForRenting == true,\n        \"This copy hasn't been put for renting by the owner\");\n        require(tokenData[tokenId].rentee == address(0),\n        \"This copy has been rented by someone already\");\n        require(msg.value >= tokenData[tokenId].rentingPrice,\n        \"Your price isn't sufficient to rent this copy\");\n\n        tokenData[tokenId].rentee = msg.sender;\n        tokenData[tokenId].rentedAtBlock = block.number;\n        tokenData[tokenId].isUpForRenting = false;\n\n        _updateAccountBalances(tokenId);\n\n        emit TokenRented(tokenData[tokenId].isbn, tokenId, msg.sender);\n\n    }\n\n    //function to actually consume the content  you've bought/rented\n    function consumeContent(uint256 tokenId) public view returns(string memory){\n        require(ownerOf(tokenId) == msg.sender || tokenData[tokenId].rentee == msg.sender,\n        \"You are not authorized to view this copy!\");\n        if(ownerOf(tokenId) == msg.sender){\n            if(tokenData[tokenId].rentee != address(0)){\n                require(block.number > tokenData[tokenId].rentedAtBlock + rentedBlocks,\n                \"The renting period is not over yet for you to consume the content\");\n            }\n        }\n        else if(tokenData[tokenId].rentee == msg.sender){\n            require(block.number <= tokenData[tokenId].rentedAtBlock + rentedBlocks,\n            \"Your rental period has expired\");\n        }\n        return booksInfo[tokenData[tokenId].isbn].encryptedBookDataHash;\n    }\n\n    //function to sell to someone specific/special\n    function putForSaleForSomeoneSpecial(uint256 _tokenId, uint256 _salePrice, address buyer) public {\n        require(ownerOf(_tokenId) == msg.sender,\"You  are not the token owner\");\n        require(tokenData[_tokenId].isUpForResale == false,\"The token is already put for sale in public\");\n        tokenData[_tokenId].resalePrice = _salePrice;\n        specialBuyer[_tokenId] = buyer;\n        approve(pranaHelperAddress, _tokenId);\n    }\n\n    //function to buy token on the special channel\n    function buyTokenAsTheSpecialBuyer(uint256 _tokenId, address _tokenRecipient) public payable {\n        require(_tokenRecipient == specialBuyer[_tokenId], \"You are not authorized to buy this token\");\n        require(msg.value == tokenData[_tokenId].resalePrice,\n        \"Your price doesn't match match what the seller has asked\");\n\n        safeTransferFrom(ownerOf(_tokenId), _tokenRecipient, _tokenId);\n        specialBuyer[_tokenId] = address(0);\n    }\n\n    // function to get the balances stored in contract back into the respective owners' account\n    // this is to mainly to reduce the number of transactions and transaction cost associated with it.\n    // WARNING: Extensive testing required before this can be finalized!\n    // function withdrawBalance() public payable{\n    //     require(accountBalance[msg.sender] > 0, \"You don't have any balance to withdraw\");\n    //     (msg.sender).transfer(accountBalance[msg.sender]);\n    //     accountBalance[msg.sender] = 0;\n    // }\n\n    //function to view balance\n    // function viewBalance() public view returns(uint256){\n    //     return accountBalance[msg.sender];\n    // }\n\n    //function to get book details with the tokenId\n    //returns CID of coverpic+bookname\n    function viewTokenDetails(uint256 _tokenId) public view returns (uint256, string memory, uint256, uint256, bool) {\n        require(_exists(_tokenId), \"Token doesn't  exist\");\n        return (tokenData[_tokenId].isbn, booksInfo[tokenData[_tokenId].isbn].unencryptedBookDetailsCID,\n        tokenData[_tokenId].copyNumber, tokenData[_tokenId].resalePrice, tokenData[_tokenId].isUpForResale);\n    }\n\n    function numberofTokensForResale() public view returns(uint256){\n        return upForResaleTokens.length();\n    }\n\n    function tokenForResaleAtIndex(uint256 index) public view returns (uint256) {\n        return upForResaleTokens.at(index);\n    }\n\n    function viewBookDetails(uint256 _isbn) public view returns(string memory, address, uint256, uint256, uint256) {\n        require(booksInfo[_isbn].publisherAddress!=address(0), \"This book is not on the platform\");\n        return (booksInfo[_isbn].unencryptedBookDetailsCID, booksInfo[_isbn].publisherAddress,\n        booksInfo[_isbn].bookPrice, booksInfo[_isbn].transactionCut, booksInfo[_isbn].bookSales);\n\n    }\n}\n",
  "sourcePath": "/Users/user/Desktop/prana/contract/contracts/prana.sol",
  "compiler": {
    "name": "solc",
    "version": "0.6.12+commit.27d51765.Emscripten.clang"
  },
  "schemaVersion": "3.2.0",
  "updatedAt": "2020-08-02T12:08:11.490Z",
  "networkType": "ethereum",
  "devdoc": {
    "kind": "dev",
    "methods": {
      "approve(address,uint256)": {
        "details": "See {IERC721-approve}."
      },
      "balanceOf(address)": {
        "details": "See {IERC721-balanceOf}."
      },
      "baseURI()": {
        "details": "Returns the base URI set via {_setBaseURI}. This will be automatically added as a prefix in {tokenURI} to each token's URI, or to the token ID if no specific URI is set for that token ID."
      },
      "getApproved(uint256)": {
        "details": "See {IERC721-getApproved}."
      },
      "isApprovedForAll(address,address)": {
        "details": "See {IERC721-isApprovedForAll}."
      },
      "name()": {
        "details": "See {IERC721Metadata-name}."
      },
      "ownerOf(uint256)": {
        "details": "See {IERC721-ownerOf}."
      },
      "safeTransferFrom(address,address,uint256)": {
        "details": "See {IERC721-safeTransferFrom}."
      },
      "safeTransferFrom(address,address,uint256,bytes)": {
        "details": "See {IERC721-safeTransferFrom}."
      },
      "setApprovalForAll(address,bool)": {
        "details": "See {IERC721-setApprovalForAll}."
      },
      "supportsInterface(bytes4)": {
        "details": "See {IERC165-supportsInterface}. Time complexity O(1), guaranteed to always use less than 30 000 gas."
      },
      "symbol()": {
        "details": "See {IERC721Metadata-symbol}."
      },
      "tokenByIndex(uint256)": {
        "details": "See {IERC721Enumerable-tokenByIndex}."
      },
      "tokenOfOwnerByIndex(address,uint256)": {
        "details": "See {IERC721Enumerable-tokenOfOwnerByIndex}."
      },
      "tokenURI(uint256)": {
        "details": "See {IERC721Metadata-tokenURI}."
      },
      "totalSupply()": {
        "details": "See {IERC721Enumerable-totalSupply}."
      },
      "transferFrom(address,address,uint256)": {
        "details": "See {IERC721-transferFrom}."
      }
    },
    "version": 1
  },
  "userdoc": {
    "kind": "user",
    "methods": {},
    "version": 1
  }
}