{
  "contractName": "PranaInterface",
  "abi": [
    {
      "inputs": [
        {
          "internalType": "uint256",
          "name": "tokenid",
          "type": "uint256"
        },
        {
          "internalType": "address",
          "name": "_tokenRecipient",
          "type": "address"
        }
      ],
      "name": "buyToken",
      "outputs": [],
      "stateMutability": "payable",
      "type": "function"
    }
  ],
  "bytecode": "0x6080604052348015600f57600080fd5b5060a68061001e6000396000f3fe608060405260043610601c5760003560e01c80639134709e146021575b600080fd5b606a60048036036040811015603557600080fd5b8101908080359060200190929190803573ffffffffffffffffffffffffffffffffffffffff169060200190929190505050606c565b005b505056fea264697066735822122074e4b068ec622b9cfdd88aa76d7f1b484b9ed42ff403cf6af216281ebf2d1a0064736f6c634300060b0033",
  "source": "// SPDX-License-Identifier: ISC\n\npragma solidity ^0.6.0;\n\n\ncontract PranaInterface{\n    function buyToken(uint256 tokenid, address _tokenRecipient) public payable{}\n}\n\ncontract pranaHelper {\n\n\n    constructor () public {\n        owner = msg.sender;\n    }\n\n    //address of the contract deployer.\n    address owner;\n\n    //address of the prana contract\n    address pranaAddress;\n\n    //Modifier for onlyOwner functions\n    modifier onlyOwner {\n       require(msg.sender == owner, 'You are not the contract owner to call this function!');\n       _;\n    }\n\n    function setPranaAddress(address _pranaAddress) public onlyOwner{\n        pranaAddress = _pranaAddress;\n    }\n\n    function buyTokenFromPrana(uint tokenId) public payable{\n        PranaInterface P = PranaInterface(pranaAddress);\n        P.buyToken{value:msg.value}(tokenId, msg.sender);\n    }\n\n}",
  "sourcePath": "/home/richuak/Blockchain/prana/backend/contracts/pranaHelper.sol",
  "compiler": {
    "name": "solc",
    "version": "0.6.11+commit.5ef660b1.Emscripten.clang"
  },
  "schemaVersion": "3.0.23",
  "updatedAt": "2020-07-17T08:03:22.537Z",
  "devdoc": {
    "kind": "dev",
    "methods": {},
    "version": 1
  },
  "userdoc": {
    "kind": "user",
    "methods": {},
    "version": 1
  }
}